{
	"contracts/MyContract.sol": {
		"MyContract": {
			"abi": [
				{
					"inputs": [],
					"stateMutability": "nonpayable",
					"type": "constructor"
				},
				{
					"inputs": [
						{
							"internalType": "uint256",
							"name": "_id",
							"type": "uint256"
						},
						{
							"internalType": "uint256",
							"name": "_age",
							"type": "uint256"
						},
						{
							"internalType": "string",
							"name": "_name",
							"type": "string"
						}
					],
					"name": "addMyPerson",
					"outputs": [],
					"stateMutability": "nonpayable",
					"type": "function"
				},
				{
					"inputs": [
						{
							"internalType": "uint256",
							"name": "_id",
							"type": "uint256"
						},
						{
							"internalType": "uint256",
							"name": "_age",
							"type": "uint256"
						},
						{
							"internalType": "string",
							"name": "_name",
							"type": "string"
						}
					],
					"name": "addPerson",
					"outputs": [],
					"stateMutability": "nonpayable",
					"type": "function"
				},
				{
					"inputs": [
						{
							"internalType": "uint256",
							"name": "",
							"type": "uint256"
						}
					],
					"name": "anArray",
					"outputs": [
						{
							"internalType": "string",
							"name": "",
							"type": "string"
						}
					],
					"stateMutability": "view",
					"type": "function"
				},
				{
					"inputs": [
						{
							"internalType": "uint256",
							"name": "",
							"type": "uint256"
						},
						{
							"internalType": "uint256",
							"name": "",
							"type": "uint256"
						}
					],
					"name": "array2D",
					"outputs": [
						{
							"internalType": "uint256",
							"name": "",
							"type": "uint256"
						}
					],
					"stateMutability": "view",
					"type": "function"
				},
				{
					"inputs": [
						{
							"internalType": "uint256",
							"name": "",
							"type": "uint256"
						}
					],
					"name": "intArray",
					"outputs": [
						{
							"internalType": "uint256",
							"name": "",
							"type": "uint256"
						}
					],
					"stateMutability": "view",
					"type": "function"
				},
				{
					"inputs": [],
					"name": "integer",
					"outputs": [
						{
							"internalType": "int256",
							"name": "",
							"type": "int256"
						}
					],
					"stateMutability": "view",
					"type": "function"
				},
				{
					"inputs": [
						{
							"internalType": "uint256",
							"name": "_number",
							"type": "uint256"
						}
					],
					"name": "isEvenNumber",
					"outputs": [
						{
							"internalType": "bool",
							"name": "",
							"type": "bool"
						}
					],
					"stateMutability": "pure",
					"type": "function"
				},
				{
					"inputs": [],
					"name": "isOwner",
					"outputs": [
						{
							"internalType": "bool",
							"name": "",
							"type": "bool"
						}
					],
					"stateMutability": "view",
					"type": "function"
				},
				{
					"inputs": [],
					"name": "myAddress",
					"outputs": [
						{
							"internalType": "address",
							"name": "",
							"type": "address"
						}
					],
					"stateMutability": "view",
					"type": "function"
				},
				{
					"inputs": [],
					"name": "myBytes32",
					"outputs": [
						{
							"internalType": "bytes32",
							"name": "",
							"type": "bytes32"
						}
					],
					"stateMutability": "view",
					"type": "function"
				},
				{
					"inputs": [],
					"name": "myInt",
					"outputs": [
						{
							"internalType": "int256",
							"name": "",
							"type": "int256"
						}
					],
					"stateMutability": "view",
					"type": "function"
				},
				{
					"inputs": [
						{
							"internalType": "address",
							"name": "",
							"type": "address"
						},
						{
							"internalType": "uint256",
							"name": "",
							"type": "uint256"
						}
					],
					"name": "myPeople",
					"outputs": [
						{
							"internalType": "uint256",
							"name": "age",
							"type": "uint256"
						},
						{
							"internalType": "string",
							"name": "name",
							"type": "string"
						}
					],
					"stateMutability": "view",
					"type": "function"
				},
				{
					"inputs": [],
					"name": "myString",
					"outputs": [
						{
							"internalType": "string",
							"name": "",
							"type": "string"
						}
					],
					"stateMutability": "view",
					"type": "function"
				},
				{
					"inputs": [],
					"name": "myUint",
					"outputs": [
						{
							"internalType": "uint256",
							"name": "",
							"type": "uint256"
						}
					],
					"stateMutability": "view",
					"type": "function"
				},
				{
					"inputs": [
						{
							"internalType": "uint256",
							"name": "",
							"type": "uint256"
						}
					],
					"name": "names",
					"outputs": [
						{
							"internalType": "string",
							"name": "",
							"type": "string"
						}
					],
					"stateMutability": "view",
					"type": "function"
				},
				{
					"inputs": [],
					"name": "owner",
					"outputs": [
						{
							"internalType": "address",
							"name": "",
							"type": "address"
						}
					],
					"stateMutability": "view",
					"type": "function"
				},
				{
					"inputs": [],
					"name": "p1",
					"outputs": [
						{
							"internalType": "uint256",
							"name": "age",
							"type": "uint256"
						},
						{
							"internalType": "string",
							"name": "name",
							"type": "string"
						}
					],
					"stateMutability": "view",
					"type": "function"
				},
				{
					"inputs": [
						{
							"internalType": "uint256",
							"name": "",
							"type": "uint256"
						}
					],
					"name": "personMap",
					"outputs": [
						{
							"internalType": "uint256",
							"name": "age",
							"type": "uint256"
						},
						{
							"internalType": "string",
							"name": "name",
							"type": "string"
						}
					],
					"stateMutability": "view",
					"type": "function"
				},
				{
					"inputs": [
						{
							"internalType": "string",
							"name": "_value",
							"type": "string"
						}
					],
					"name": "pushValue",
					"outputs": [
						{
							"internalType": "uint256",
							"name": "",
							"type": "uint256"
						}
					],
					"stateMutability": "nonpayable",
					"type": "function"
				},
				{
					"inputs": [
						{
							"internalType": "uint256",
							"name": "",
							"type": "uint256"
						}
					],
					"name": "stringArray",
					"outputs": [
						{
							"internalType": "string",
							"name": "",
							"type": "string"
						}
					],
					"stateMutability": "view",
					"type": "function"
				},
				{
					"inputs": [],
					"name": "sumArrayEvenNums",
					"outputs": [
						{
							"internalType": "uint256",
							"name": "",
							"type": "uint256"
						}
					],
					"stateMutability": "view",
					"type": "function"
				}
			],
			"devdoc": {
				"kind": "dev",
				"methods": {},
				"version": 1
			},
			"evm": {
				"assembly": "    /* \"contracts/MyContract.sol\":60:2193  contract MyContract {... */\n  mstore(0x40, 0x80)\n    /* \"contracts/MyContract.sol\":134:135  1 */\n  0x01\n    /* \"contracts/MyContract.sol\":110:135  uint256 public myUint = 1 */\n  0x00\n  sstore\n    /* \"contracts/MyContract.sol\":165:166  1 */\n  0x01\n    /* \"contracts/MyContract.sol\":142:166  int256 public  myInt = 1 */\n  dup1\n  sstore\n    /* \"contracts/MyContract.sol\":194:195  1 */\n  0x01\n    /* \"contracts/MyContract.sol\":173:195  int public integer = 1 */\n  0x02\n  sstore\n    /* \"contracts/MyContract.sol\":214:246  string public myString = \"Hello\" */\n  mload(0x40)\n  dup1\n  0x40\n  add\n  0x40\n  mstore\n  dup1\n  0x05\n  dup2\n  mstore\n  0x20\n  add\n  0x48656c6c6f000000000000000000000000000000000000000000000000000000\n  dup2\n  mstore\n  pop\n  0x03\n  swap1\n  dup2\n  tag_1\n  swap2\n  swap1\n  tag_2\n  jump\t// in\ntag_1:\n  pop\n    /* \"contracts/MyContract.sol\":253:287  bytes32 public myBytes32 = \"Hello\" */\n  sstore(0x04, 0x48656c6c6f000000000000000000000000000000000000000000000000000000)\n    /* \"contracts/MyContract.sol\":323:365  0x5B38Da6a701c568545dCfcB03FcB875f56beddC4 */\n  0x5b38da6a701c568545dcfcb03fcb875f56beddc4\n    /* \"contracts/MyContract.sol\":296:365  address public myAddress = 0x5B38Da6a701c568545dCfcB03FcB875f56beddC4 */\n  0x05\n  exp(0x0100, 0x00)\n  dup2\n  sload\n  dup2\n  0xffffffffffffffffffffffffffffffffffffffff\n  mul\n  not\n  and\n  swap1\n  dup4\n  0xffffffffffffffffffffffffffffffffffffffff\n  and\n  mul\n  or\n  swap1\n  sstore\n  pop\n    /* \"contracts/MyContract.sol\":464:485  Person(24, \"Macbeth\") */\n  mload(0x40)\n  dup1\n  0x40\n  add\n  0x40\n  mstore\n  dup1\n    /* \"contracts/MyContract.sol\":471:473  24 */\n  0x18\n    /* \"contracts/MyContract.sol\":464:485  Person(24, \"Macbeth\") */\n  dup2\n  mstore\n  0x20\n  add\n  mload(0x40)\n  dup1\n  0x40\n  add\n  0x40\n  mstore\n  dup1\n  0x07\n  dup2\n  mstore\n  0x20\n  add\n  0x4d61636265746800000000000000000000000000000000000000000000000000\n  dup2\n  mstore\n  pop\n  dup2\n  mstore\n  pop\n    /* \"contracts/MyContract.sol\":445:485  Person public p1 = Person(24, \"Macbeth\") */\n  0x06\n  0x00\n  dup3\n  add\n  mload\n  dup2\n  0x00\n  add\n  sstore\n  0x20\n  dup3\n  add\n  mload\n  dup2\n  0x01\n  add\n  swap1\n  dup2\n  tag_3\n  swap2\n  swap1\n  tag_2\n  jump\t// in\ntag_3:\n  pop\n  pop\n  pop\n    /* \"contracts/MyContract.sol\":494:528  uint[] public intArray = [1, 2, 3] */\n  mload(0x40)\n  dup1\n  0x60\n  add\n  0x40\n  mstore\n  dup1\n    /* \"contracts/MyContract.sol\":520:521  1 */\n  0x01\n    /* \"contracts/MyContract.sol\":494:528  uint[] public intArray = [1, 2, 3] */\n  0xff\n  and\n  dup2\n  mstore\n  0x20\n  add\n    /* \"contracts/MyContract.sol\":523:524  2 */\n  0x02\n    /* \"contracts/MyContract.sol\":494:528  uint[] public intArray = [1, 2, 3] */\n  0xff\n  and\n  dup2\n  mstore\n  0x20\n  add\n    /* \"contracts/MyContract.sol\":526:527  3 */\n  0x03\n    /* \"contracts/MyContract.sol\":494:528  uint[] public intArray = [1, 2, 3] */\n  0xff\n  and\n  dup2\n  mstore\n  pop\n  0x08\n  swap1\n  0x03\n  tag_4\n  swap3\n  swap2\n  swap1\n  tag_5\n  jump\t// in\ntag_4:\n  pop\n    /* \"contracts/MyContract.sol\":535:579  string[] public stringArray = [\"ABC\", \"DEF\"] */\n  mload(0x40)\n  dup1\n  0x40\n  add\n  0x40\n  mstore\n  dup1\n  mload(0x40)\n  dup1\n  0x40\n  add\n  0x40\n  mstore\n  dup1\n  0x03\n  dup2\n  mstore\n  0x20\n  add\n  0x4142430000000000000000000000000000000000000000000000000000000000\n  dup2\n  mstore\n  pop\n  dup2\n  mstore\n  0x20\n  add\n  mload(0x40)\n  dup1\n  0x40\n  add\n  0x40\n  mstore\n  dup1\n  0x03\n  dup2\n  mstore\n  0x20\n  add\n  0x4445460000000000000000000000000000000000000000000000000000000000\n  dup2\n  mstore\n  pop\n  dup2\n  mstore\n  pop\n  0x09\n  swap1\n  0x02\n  tag_6\n  swap3\n  swap2\n  swap1\n  tag_7\n  jump\t// in\ntag_6:\n  pop\n    /* \"contracts/MyContract.sol\":776:827  uint256[][] public array2D = [[1, 2, 3], [4, 5, 6]] */\n  mload(0x40)\n  dup1\n  0x40\n  add\n  0x40\n  mstore\n  dup1\n  mload(0x40)\n  dup1\n  0x60\n  add\n  0x40\n  mstore\n  dup1\n    /* \"contracts/MyContract.sol\":807:808  1 */\n  0x01\n    /* \"contracts/MyContract.sol\":776:827  uint256[][] public array2D = [[1, 2, 3], [4, 5, 6]] */\n  0xff\n  and\n  dup2\n  mstore\n  0x20\n  add\n    /* \"contracts/MyContract.sol\":810:811  2 */\n  0x02\n    /* \"contracts/MyContract.sol\":776:827  uint256[][] public array2D = [[1, 2, 3], [4, 5, 6]] */\n  0xff\n  and\n  dup2\n  mstore\n  0x20\n  add\n    /* \"contracts/MyContract.sol\":813:814  3 */\n  0x03\n    /* \"contracts/MyContract.sol\":776:827  uint256[][] public array2D = [[1, 2, 3], [4, 5, 6]] */\n  0xff\n  and\n  dup2\n  mstore\n  pop\n  dup2\n  mstore\n  0x20\n  add\n  mload(0x40)\n  dup1\n  0x60\n  add\n  0x40\n  mstore\n  dup1\n    /* \"contracts/MyContract.sol\":818:819  4 */\n  0x04\n    /* \"contracts/MyContract.sol\":776:827  uint256[][] public array2D = [[1, 2, 3], [4, 5, 6]] */\n  0xff\n  and\n  dup2\n  mstore\n  0x20\n  add\n    /* \"contracts/MyContract.sol\":821:822  5 */\n  0x05\n    /* \"contracts/MyContract.sol\":776:827  uint256[][] public array2D = [[1, 2, 3], [4, 5, 6]] */\n  0xff\n  and\n  dup2\n  mstore\n  0x20\n  add\n    /* \"contracts/MyContract.sol\":824:825  6 */\n  0x06\n    /* \"contracts/MyContract.sol\":776:827  uint256[][] public array2D = [[1, 2, 3], [4, 5, 6]] */\n  0xff\n  and\n  dup2\n  mstore\n  pop\n  dup2\n  mstore\n  pop\n  0x0b\n  swap1\n  0x02\n  tag_8\n  swap3\n  swap2\n  swap1\n  tag_9\n  jump\t// in\ntag_8:\n  pop\n    /* \"contracts/MyContract.sol\":927:1030  constructor() {... */\n  callvalue\n  dup1\n  iszero\n  tag_10\n  jumpi\n  0x00\n  dup1\n  revert\ntag_10:\n  pop\n    /* \"contracts/MyContract.sol\":952:966  names[1] = \"A\" */\n  mload(0x40)\n  dup1\n  0x40\n  add\n  0x40\n  mstore\n  dup1\n  0x01\n  dup2\n  mstore\n  0x20\n  add\n  0x4100000000000000000000000000000000000000000000000000000000000000\n  dup2\n  mstore\n  pop\n    /* \"contracts/MyContract.sol\":952:957  names */\n  0x0c\n    /* \"contracts/MyContract.sol\":952:960  names[1] */\n  0x00\n    /* \"contracts/MyContract.sol\":958:959  1 */\n  0x01\n    /* \"contracts/MyContract.sol\":952:960  names[1] */\n  dup2\n  mstore\n  0x20\n  add\n  swap1\n  dup2\n  mstore\n  0x20\n  add\n  0x00\n  keccak256\n    /* \"contracts/MyContract.sol\":952:966  names[1] = \"A\" */\n  swap1\n  dup2\n  tag_13\n  swap2\n  swap1\n  tag_2\n  jump\t// in\ntag_13:\n  pop\n    /* \"contracts/MyContract.sol\":977:991  names[2] = \"B\" */\n  mload(0x40)\n  dup1\n  0x40\n  add\n  0x40\n  mstore\n  dup1\n  0x01\n  dup2\n  mstore\n  0x20\n  add\n  0x4200000000000000000000000000000000000000000000000000000000000000\n  dup2\n  mstore\n  pop\n    /* \"contracts/MyContract.sol\":977:982  names */\n  0x0c\n    /* \"contracts/MyContract.sol\":977:985  names[2] */\n  0x00\n    /* \"contracts/MyContract.sol\":983:984  2 */\n  0x02\n    /* \"contracts/MyContract.sol\":977:985  names[2] */\n  dup2\n  mstore\n  0x20\n  add\n  swap1\n  dup2\n  mstore\n  0x20\n  add\n  0x00\n  keccak256\n    /* \"contracts/MyContract.sol\":977:991  names[2] = \"B\" */\n  swap1\n  dup2\n  tag_14\n  swap2\n  swap1\n  tag_2\n  jump\t// in\ntag_14:\n  pop\n    /* \"contracts/MyContract.sol\":1012:1022  msg.sender */\n  caller\n    /* \"contracts/MyContract.sol\":1004:1009  owner */\n  0x0d\n  0x00\n    /* \"contracts/MyContract.sol\":1004:1022  owner = msg.sender */\n  0x0100\n  exp\n  dup2\n  sload\n  dup2\n  0xffffffffffffffffffffffffffffffffffffffff\n  mul\n  not\n  and\n  swap1\n  dup4\n  0xffffffffffffffffffffffffffffffffffffffff\n  and\n  mul\n  or\n  swap1\n  sstore\n  pop\n    /* \"contracts/MyContract.sol\":60:2193  contract MyContract {... */\n  jump(tag_15)\ntag_5:\n  dup3\n  dup1\n  sload\n  dup3\n  dup3\n  sstore\n  swap1\n  0x00\n  mstore\n  keccak256(0x00, 0x20)\n  swap1\n  dup2\n  add\n  swap3\n  dup3\n  iszero\n  tag_16\n  jumpi\n  swap2\n  0x20\n  mul\n  dup3\n  add\ntag_17:\n  dup3\n  dup2\n  gt\n  iszero\n  tag_18\n  jumpi\n  dup3\n  mload\n  dup3\n  swap1\n  0xff\n  and\n  swap1\n  sstore\n  swap2\n  0x20\n  add\n  swap2\n  swap1\n  0x01\n  add\n  swap1\n  jump(tag_17)\ntag_18:\ntag_16:\n  pop\n  swap1\n  pop\n  tag_19\n  swap2\n  swap1\n  tag_20\n  jump\t// in\ntag_19:\n  pop\n  swap1\n  jump\t// out\ntag_7:\n  dup3\n  dup1\n  sload\n  dup3\n  dup3\n  sstore\n  swap1\n  0x00\n  mstore\n  keccak256(0x00, 0x20)\n  swap1\n  dup2\n  add\n  swap3\n  dup3\n  iszero\n  tag_21\n  jumpi\n  swap2\n  0x20\n  mul\n  dup3\n  add\ntag_22:\n  dup3\n  dup2\n  gt\n  iszero\n  tag_23\n  jumpi\n  dup3\n  mload\n  dup3\n  swap1\n  dup2\n  tag_24\n  swap2\n  swap1\n  tag_2\n  jump\t// in\ntag_24:\n  pop\n  swap2\n  0x20\n  add\n  swap2\n  swap1\n  0x01\n  add\n  swap1\n  jump(tag_22)\ntag_23:\ntag_21:\n  pop\n  swap1\n  pop\n  tag_25\n  swap2\n  swap1\n  tag_26\n  jump\t// in\ntag_25:\n  pop\n  swap1\n  jump\t// out\ntag_9:\n  dup3\n  dup1\n  sload\n  dup3\n  dup3\n  sstore\n  swap1\n  0x00\n  mstore\n  keccak256(0x00, 0x20)\n  swap1\n  dup2\n  add\n  swap3\n  dup3\n  iszero\n  tag_27\n  jumpi\n  swap2\n  0x20\n  mul\n  dup3\n  add\ntag_28:\n  dup3\n  dup2\n  gt\n  iszero\n  tag_29\n  jumpi\n  dup3\n  mload\n  dup3\n  swap1\n  0x03\n  tag_30\n  swap3\n  swap2\n  swap1\n  tag_5\n  jump\t// in\ntag_30:\n  pop\n  swap2\n  0x20\n  add\n  swap2\n  swap1\n  0x01\n  add\n  swap1\n  jump(tag_28)\ntag_29:\ntag_27:\n  pop\n  swap1\n  pop\n  tag_31\n  swap2\n  swap1\n  tag_32\n  jump\t// in\ntag_31:\n  pop\n  swap1\n  jump\t// out\ntag_20:\ntag_33:\n  dup1\n  dup3\n  gt\n  iszero\n  tag_34\n  jumpi\n  0x00\n  dup2\n  0x00\n  swap1\n  sstore\n  pop\n  0x01\n  add\n  jump(tag_33)\ntag_34:\n  pop\n  swap1\n  jump\t// out\ntag_26:\ntag_35:\n  dup1\n  dup3\n  gt\n  iszero\n  tag_36\n  jumpi\n  0x00\n  dup2\n  dup2\n  tag_37\n  swap2\n  swap1\n  tag_38\n  jump\t// in\ntag_37:\n  pop\n  0x01\n  add\n  jump(tag_35)\ntag_36:\n  pop\n  swap1\n  jump\t// out\ntag_32:\ntag_39:\n  dup1\n  dup3\n  gt\n  iszero\n  tag_40\n  jumpi\n  0x00\n  dup2\n  dup2\n  tag_41\n  swap2\n  swap1\n  tag_42\n  jump\t// in\ntag_41:\n  pop\n  0x01\n  add\n  jump(tag_39)\ntag_40:\n  pop\n  swap1\n  jump\t// out\ntag_38:\n  pop\n  dup1\n  sload\n  tag_43\n  swap1\n  tag_44\n  jump\t// in\ntag_43:\n  0x00\n  dup3\n  sstore\n  dup1\n  0x1f\n  lt\n  tag_46\n  jumpi\n  pop\n  jump(tag_45)\ntag_46:\n  0x1f\n  add\n  0x20\n  swap1\n  div\n  swap1\n  0x00\n  mstore\n  keccak256(0x00, 0x20)\n  swap1\n  dup2\n  add\n  swap1\n  tag_47\n  swap2\n  swap1\n  tag_20\n  jump\t// in\ntag_47:\ntag_45:\n  pop\n  jump\t// out\ntag_42:\n  pop\n  dup1\n  sload\n  0x00\n  dup3\n  sstore\n  swap1\n  0x00\n  mstore\n  keccak256(0x00, 0x20)\n  swap1\n  dup2\n  add\n  swap1\n  tag_49\n  swap2\n  swap1\n  tag_20\n  jump\t// in\ntag_49:\n  pop\n  jump\t// out\n    /* \"#utility.yul\":7:106   */\ntag_50:\n    /* \"#utility.yul\":59:65   */\n  0x00\n    /* \"#utility.yul\":93:98   */\n  dup2\n    /* \"#utility.yul\":87:99   */\n  mload\n    /* \"#utility.yul\":77:99   */\n  swap1\n  pop\n    /* \"#utility.yul\":7:106   */\n  swap2\n  swap1\n  pop\n  jump\t// out\n    /* \"#utility.yul\":112:292   */\ntag_51:\n    /* \"#utility.yul\":160:237   */\n  0x4e487b7100000000000000000000000000000000000000000000000000000000\n    /* \"#utility.yul\":157:158   */\n  0x00\n    /* \"#utility.yul\":150:238   */\n  mstore\n    /* \"#utility.yul\":257:261   */\n  0x41\n    /* \"#utility.yul\":254:255   */\n  0x04\n    /* \"#utility.yul\":247:262   */\n  mstore\n    /* \"#utility.yul\":281:285   */\n  0x24\n    /* \"#utility.yul\":278:279   */\n  0x00\n    /* \"#utility.yul\":271:286   */\n  revert\n    /* \"#utility.yul\":298:478   */\ntag_52:\n    /* \"#utility.yul\":346:423   */\n  0x4e487b7100000000000000000000000000000000000000000000000000000000\n    /* \"#utility.yul\":343:344   */\n  0x00\n    /* \"#utility.yul\":336:424   */\n  mstore\n    /* \"#utility.yul\":443:447   */\n  0x22\n    /* \"#utility.yul\":440:441   */\n  0x04\n    /* \"#utility.yul\":433:448   */\n  mstore\n    /* \"#utility.yul\":467:471   */\n  0x24\n    /* \"#utility.yul\":464:465   */\n  0x00\n    /* \"#utility.yul\":457:472   */\n  revert\n    /* \"#utility.yul\":484:804   */\ntag_44:\n    /* \"#utility.yul\":528:534   */\n  0x00\n    /* \"#utility.yul\":565:566   */\n  0x02\n    /* \"#utility.yul\":559:563   */\n  dup3\n    /* \"#utility.yul\":555:567   */\n  div\n    /* \"#utility.yul\":545:567   */\n  swap1\n  pop\n    /* \"#utility.yul\":612:613   */\n  0x01\n    /* \"#utility.yul\":606:610   */\n  dup3\n    /* \"#utility.yul\":602:614   */\n  and\n    /* \"#utility.yul\":633:651   */\n  dup1\n    /* \"#utility.yul\":623:704   */\n  tag_74\n  jumpi\n    /* \"#utility.yul\":689:693   */\n  0x7f\n    /* \"#utility.yul\":681:687   */\n  dup3\n    /* \"#utility.yul\":677:694   */\n  and\n    /* \"#utility.yul\":667:694   */\n  swap2\n  pop\n    /* \"#utility.yul\":623:704   */\ntag_74:\n    /* \"#utility.yul\":751:753   */\n  0x20\n    /* \"#utility.yul\":743:749   */\n  dup3\n    /* \"#utility.yul\":740:754   */\n  lt\n    /* \"#utility.yul\":720:738   */\n  dup2\n    /* \"#utility.yul\":717:755   */\n  sub\n    /* \"#utility.yul\":714:798   */\n  tag_75\n  jumpi\n    /* \"#utility.yul\":770:788   */\n  tag_76\n  tag_52\n  jump\t// in\ntag_76:\n    /* \"#utility.yul\":714:798   */\ntag_75:\n    /* \"#utility.yul\":535:804   */\n  pop\n    /* \"#utility.yul\":484:804   */\n  swap2\n  swap1\n  pop\n  jump\t// out\n    /* \"#utility.yul\":810:951   */\ntag_53:\n    /* \"#utility.yul\":859:863   */\n  0x00\n    /* \"#utility.yul\":882:885   */\n  dup2\n    /* \"#utility.yul\":874:885   */\n  swap1\n  pop\n    /* \"#utility.yul\":905:908   */\n  dup2\n    /* \"#utility.yul\":902:903   */\n  0x00\n    /* \"#utility.yul\":895:909   */\n  mstore\n    /* \"#utility.yul\":939:943   */\n  0x20\n    /* \"#utility.yul\":936:937   */\n  0x00\n    /* \"#utility.yul\":926:944   */\n  keccak256\n    /* \"#utility.yul\":918:944   */\n  swap1\n  pop\n    /* \"#utility.yul\":810:951   */\n  swap2\n  swap1\n  pop\n  jump\t// out\n    /* \"#utility.yul\":957:1050   */\ntag_54:\n    /* \"#utility.yul\":994:1000   */\n  0x00\n    /* \"#utility.yul\":1041:1043   */\n  0x20\n    /* \"#utility.yul\":1036:1038   */\n  0x1f\n    /* \"#utility.yul\":1029:1034   */\n  dup4\n    /* \"#utility.yul\":1025:1039   */\n  add\n    /* \"#utility.yul\":1021:1044   */\n  div\n    /* \"#utility.yul\":1011:1044   */\n  swap1\n  pop\n    /* \"#utility.yul\":957:1050   */\n  swap2\n  swap1\n  pop\n  jump\t// out\n    /* \"#utility.yul\":1056:1163   */\ntag_55:\n    /* \"#utility.yul\":1100:1108   */\n  0x00\n    /* \"#utility.yul\":1150:1155   */\n  dup3\n    /* \"#utility.yul\":1144:1148   */\n  dup3\n    /* \"#utility.yul\":1140:1156   */\n  shl\n    /* \"#utility.yul\":1119:1156   */\n  swap1\n  pop\n    /* \"#utility.yul\":1056:1163   */\n  swap3\n  swap2\n  pop\n  pop\n  jump\t// out\n    /* \"#utility.yul\":1169:1562   */\ntag_56:\n    /* \"#utility.yul\":1238:1244   */\n  0x00\n    /* \"#utility.yul\":1288:1289   */\n  0x08\n    /* \"#utility.yul\":1276:1286   */\n  dup4\n    /* \"#utility.yul\":1272:1290   */\n  mul\n    /* \"#utility.yul\":1311:1408   */\n  tag_81\n    /* \"#utility.yul\":1341:1407   */\n  0xffffffffffffffffffffffffffffffffffffffffffffffffffffffffffffffff\n    /* \"#utility.yul\":1330:1339   */\n  dup3\n    /* \"#utility.yul\":1311:1408   */\n  tag_55\n  jump\t// in\ntag_81:\n    /* \"#utility.yul\":1429:1468   */\n  tag_82\n    /* \"#utility.yul\":1459:1467   */\n  dup7\n    /* \"#utility.yul\":1448:1457   */\n  dup4\n    /* \"#utility.yul\":1429:1468   */\n  tag_55\n  jump\t// in\ntag_82:\n    /* \"#utility.yul\":1417:1468   */\n  swap6\n  pop\n    /* \"#utility.yul\":1501:1505   */\n  dup1\n    /* \"#utility.yul\":1497:1506   */\n  not\n    /* \"#utility.yul\":1490:1495   */\n  dup5\n    /* \"#utility.yul\":1486:1507   */\n  and\n    /* \"#utility.yul\":1477:1507   */\n  swap4\n  pop\n    /* \"#utility.yul\":1550:1554   */\n  dup1\n    /* \"#utility.yul\":1540:1548   */\n  dup7\n    /* \"#utility.yul\":1536:1555   */\n  and\n    /* \"#utility.yul\":1529:1534   */\n  dup5\n    /* \"#utility.yul\":1526:1556   */\n  or\n    /* \"#utility.yul\":1516:1556   */\n  swap3\n  pop\n    /* \"#utility.yul\":1245:1562   */\n  pop\n  pop\n    /* \"#utility.yul\":1169:1562   */\n  swap4\n  swap3\n  pop\n  pop\n  pop\n  jump\t// out\n    /* \"#utility.yul\":1568:1645   */\ntag_57:\n    /* \"#utility.yul\":1605:1612   */\n  0x00\n    /* \"#utility.yul\":1634:1639   */\n  dup2\n    /* \"#utility.yul\":1623:1639   */\n  swap1\n  pop\n    /* \"#utility.yul\":1568:1645   */\n  swap2\n  swap1\n  pop\n  jump\t// out\n    /* \"#utility.yul\":1651:1711   */\ntag_58:\n    /* \"#utility.yul\":1679:1682   */\n  0x00\n    /* \"#utility.yul\":1700:1705   */\n  dup2\n    /* \"#utility.yul\":1693:1705   */\n  swap1\n  pop\n    /* \"#utility.yul\":1651:1711   */\n  swap2\n  swap1\n  pop\n  jump\t// out\n    /* \"#utility.yul\":1717:1859   */\ntag_59:\n    /* \"#utility.yul\":1767:1776   */\n  0x00\n    /* \"#utility.yul\":1800:1853   */\n  tag_86\n    /* \"#utility.yul\":1818:1852   */\n  tag_87\n    /* \"#utility.yul\":1827:1851   */\n  tag_88\n    /* \"#utility.yul\":1845:1850   */\n  dup5\n    /* \"#utility.yul\":1827:1851   */\n  tag_57\n  jump\t// in\ntag_88:\n    /* \"#utility.yul\":1818:1852   */\n  tag_58\n  jump\t// in\ntag_87:\n    /* \"#utility.yul\":1800:1853   */\n  tag_57\n  jump\t// in\ntag_86:\n    /* \"#utility.yul\":1787:1853   */\n  swap1\n  pop\n    /* \"#utility.yul\":1717:1859   */\n  swap2\n  swap1\n  pop\n  jump\t// out\n    /* \"#utility.yul\":1865:1940   */\ntag_60:\n    /* \"#utility.yul\":1908:1911   */\n  0x00\n    /* \"#utility.yul\":1929:1934   */\n  dup2\n    /* \"#utility.yul\":1922:1934   */\n  swap1\n  pop\n    /* \"#utility.yul\":1865:1940   */\n  swap2\n  swap1\n  pop\n  jump\t// out\n    /* \"#utility.yul\":1946:2215   */\ntag_61:\n    /* \"#utility.yul\":2056:2095   */\n  tag_91\n    /* \"#utility.yul\":2087:2094   */\n  dup4\n    /* \"#utility.yul\":2056:2095   */\n  tag_59\n  jump\t// in\ntag_91:\n    /* \"#utility.yul\":2117:2208   */\n  tag_92\n    /* \"#utility.yul\":2166:2207   */\n  tag_93\n    /* \"#utility.yul\":2190:2206   */\n  dup3\n    /* \"#utility.yul\":2166:2207   */\n  tag_60\n  jump\t// in\ntag_93:\n    /* \"#utility.yul\":2158:2164   */\n  dup5\n    /* \"#utility.yul\":2151:2155   */\n  dup5\n    /* \"#utility.yul\":2145:2156   */\n  sload\n    /* \"#utility.yul\":2117:2208   */\n  tag_56\n  jump\t// in\ntag_92:\n    /* \"#utility.yul\":2111:2115   */\n  dup3\n    /* \"#utility.yul\":2104:2209   */\n  sstore\n    /* \"#utility.yul\":2022:2215   */\n  pop\n    /* \"#utility.yul\":1946:2215   */\n  pop\n  pop\n  pop\n  jump\t// out\n    /* \"#utility.yul\":2221:2294   */\ntag_62:\n    /* \"#utility.yul\":2266:2269   */\n  0x00\n    /* \"#utility.yul\":2221:2294   */\n  swap1\n  jump\t// out\n    /* \"#utility.yul\":2300:2489   */\ntag_63:\n    /* \"#utility.yul\":2377:2409   */\n  tag_96\n  tag_62\n  jump\t// in\ntag_96:\n    /* \"#utility.yul\":2418:2483   */\n  tag_97\n    /* \"#utility.yul\":2476:2482   */\n  dup2\n    /* \"#utility.yul\":2468:2474   */\n  dup5\n    /* \"#utility.yul\":2462:2466   */\n  dup5\n    /* \"#utility.yul\":2418:2483   */\n  tag_61\n  jump\t// in\ntag_97:\n    /* \"#utility.yul\":2353:2489   */\n  pop\n    /* \"#utility.yul\":2300:2489   */\n  pop\n  pop\n  jump\t// out\n    /* \"#utility.yul\":2495:2681   */\ntag_64:\n    /* \"#utility.yul\":2555:2675   */\ntag_99:\n    /* \"#utility.yul\":2572:2575   */\n  dup2\n    /* \"#utility.yul\":2565:2570   */\n  dup2\n    /* \"#utility.yul\":2562:2576   */\n  lt\n    /* \"#utility.yul\":2555:2675   */\n  iszero\n  tag_101\n  jumpi\n    /* \"#utility.yul\":2626:2665   */\n  tag_102\n    /* \"#utility.yul\":2663:2664   */\n  0x00\n    /* \"#utility.yul\":2656:2661   */\n  dup3\n    /* \"#utility.yul\":2626:2665   */\n  tag_63\n  jump\t// in\ntag_102:\n    /* \"#utility.yul\":2599:2600   */\n  0x01\n    /* \"#utility.yul\":2592:2597   */\n  dup2\n    /* \"#utility.yul\":2588:2601   */\n  add\n    /* \"#utility.yul\":2579:2601   */\n  swap1\n  pop\n    /* \"#utility.yul\":2555:2675   */\n  jump(tag_99)\ntag_101:\n    /* \"#utility.yul\":2495:2681   */\n  pop\n  pop\n  jump\t// out\n    /* \"#utility.yul\":2687:3230   */\ntag_65:\n    /* \"#utility.yul\":2788:2790   */\n  0x1f\n    /* \"#utility.yul\":2783:2786   */\n  dup3\n    /* \"#utility.yul\":2780:2791   */\n  gt\n    /* \"#utility.yul\":2777:3223   */\n  iszero\n  tag_104\n  jumpi\n    /* \"#utility.yul\":2822:2860   */\n  tag_105\n    /* \"#utility.yul\":2854:2859   */\n  dup2\n    /* \"#utility.yul\":2822:2860   */\n  tag_53\n  jump\t// in\ntag_105:\n    /* \"#utility.yul\":2906:2935   */\n  tag_106\n    /* \"#utility.yul\":2924:2934   */\n  dup5\n    /* \"#utility.yul\":2906:2935   */\n  tag_54\n  jump\t// in\ntag_106:\n    /* \"#utility.yul\":2896:2904   */\n  dup2\n    /* \"#utility.yul\":2892:2936   */\n  add\n    /* \"#utility.yul\":3089:3091   */\n  0x20\n    /* \"#utility.yul\":3077:3087   */\n  dup6\n    /* \"#utility.yul\":3074:3092   */\n  lt\n    /* \"#utility.yul\":3071:3120   */\n  iszero\n  tag_107\n  jumpi\n    /* \"#utility.yul\":3110:3118   */\n  dup2\n    /* \"#utility.yul\":3095:3118   */\n  swap1\n  pop\n    /* \"#utility.yul\":3071:3120   */\ntag_107:\n    /* \"#utility.yul\":3133:3213   */\n  tag_108\n    /* \"#utility.yul\":3189:3211   */\n  tag_109\n    /* \"#utility.yul\":3207:3210   */\n  dup6\n    /* \"#utility.yul\":3189:3211   */\n  tag_54\n  jump\t// in\ntag_109:\n    /* \"#utility.yul\":3179:3187   */\n  dup4\n    /* \"#utility.yul\":3175:3212   */\n  add\n    /* \"#utility.yul\":3162:3173   */\n  dup3\n    /* \"#utility.yul\":3133:3213   */\n  tag_64\n  jump\t// in\ntag_108:\n    /* \"#utility.yul\":2792:3223   */\n  pop\n  pop\n    /* \"#utility.yul\":2777:3223   */\ntag_104:\n    /* \"#utility.yul\":2687:3230   */\n  pop\n  pop\n  pop\n  jump\t// out\n    /* \"#utility.yul\":3236:3353   */\ntag_66:\n    /* \"#utility.yul\":3290:3298   */\n  0x00\n    /* \"#utility.yul\":3340:3345   */\n  dup3\n    /* \"#utility.yul\":3334:3338   */\n  dup3\n    /* \"#utility.yul\":3330:3346   */\n  shr\n    /* \"#utility.yul\":3309:3346   */\n  swap1\n  pop\n    /* \"#utility.yul\":3236:3353   */\n  swap3\n  swap2\n  pop\n  pop\n  jump\t// out\n    /* \"#utility.yul\":3359:3528   */\ntag_67:\n    /* \"#utility.yul\":3403:3409   */\n  0x00\n    /* \"#utility.yul\":3436:3487   */\n  tag_112\n    /* \"#utility.yul\":3484:3485   */\n  0x00\n    /* \"#utility.yul\":3480:3486   */\n  not\n    /* \"#utility.yul\":3472:3477   */\n  dup5\n    /* \"#utility.yul\":3469:3470   */\n  0x08\n    /* \"#utility.yul\":3465:3478   */\n  mul\n    /* \"#utility.yul\":3436:3487   */\n  tag_66\n  jump\t// in\ntag_112:\n    /* \"#utility.yul\":3432:3488   */\n  not\n    /* \"#utility.yul\":3517:3521   */\n  dup1\n    /* \"#utility.yul\":3511:3515   */\n  dup4\n    /* \"#utility.yul\":3507:3522   */\n  and\n    /* \"#utility.yul\":3497:3522   */\n  swap2\n  pop\n    /* \"#utility.yul\":3410:3528   */\n  pop\n    /* \"#utility.yul\":3359:3528   */\n  swap3\n  swap2\n  pop\n  pop\n  jump\t// out\n    /* \"#utility.yul\":3533:3828   */\ntag_68:\n    /* \"#utility.yul\":3609:3613   */\n  0x00\n    /* \"#utility.yul\":3755:3784   */\n  tag_114\n    /* \"#utility.yul\":3780:3783   */\n  dup4\n    /* \"#utility.yul\":3774:3778   */\n  dup4\n    /* \"#utility.yul\":3755:3784   */\n  tag_67\n  jump\t// in\ntag_114:\n    /* \"#utility.yul\":3747:3784   */\n  swap2\n  pop\n    /* \"#utility.yul\":3817:3820   */\n  dup3\n    /* \"#utility.yul\":3814:3815   */\n  0x02\n    /* \"#utility.yul\":3810:3821   */\n  mul\n    /* \"#utility.yul\":3804:3808   */\n  dup3\n    /* \"#utility.yul\":3801:3822   */\n  or\n    /* \"#utility.yul\":3793:3822   */\n  swap1\n  pop\n    /* \"#utility.yul\":3533:3828   */\n  swap3\n  swap2\n  pop\n  pop\n  jump\t// out\n    /* \"#utility.yul\":3833:5228   */\ntag_2:\n    /* \"#utility.yul\":3950:3987   */\n  tag_116\n    /* \"#utility.yul\":3983:3986   */\n  dup3\n    /* \"#utility.yul\":3950:3987   */\n  tag_50\n  jump\t// in\ntag_116:\n    /* \"#utility.yul\":4052:4070   */\n  0xffffffffffffffff\n    /* \"#utility.yul\":4044:4050   */\n  dup2\n    /* \"#utility.yul\":4041:4071   */\n  gt\n    /* \"#utility.yul\":4038:4094   */\n  iszero\n  tag_117\n  jumpi\n    /* \"#utility.yul\":4074:4092   */\n  tag_118\n  tag_51\n  jump\t// in\ntag_118:\n    /* \"#utility.yul\":4038:4094   */\ntag_117:\n    /* \"#utility.yul\":4118:4156   */\n  tag_119\n    /* \"#utility.yul\":4150:4154   */\n  dup3\n    /* \"#utility.yul\":4144:4155   */\n  sload\n    /* \"#utility.yul\":4118:4156   */\n  tag_44\n  jump\t// in\ntag_119:\n    /* \"#utility.yul\":4203:4270   */\n  tag_120\n    /* \"#utility.yul\":4263:4269   */\n  dup3\n    /* \"#utility.yul\":4255:4261   */\n  dup3\n    /* \"#utility.yul\":4249:4253   */\n  dup6\n    /* \"#utility.yul\":4203:4270   */\n  tag_65\n  jump\t// in\ntag_120:\n    /* \"#utility.yul\":4297:4298   */\n  0x00\n    /* \"#utility.yul\":4321:4325   */\n  0x20\n    /* \"#utility.yul\":4308:4325   */\n  swap1\n  pop\n    /* \"#utility.yul\":4353:4355   */\n  0x1f\n    /* \"#utility.yul\":4345:4351   */\n  dup4\n    /* \"#utility.yul\":4342:4356   */\n  gt\n    /* \"#utility.yul\":4370:4371   */\n  0x01\n    /* \"#utility.yul\":4365:4983   */\n  dup2\n  eq\n  tag_122\n  jumpi\n    /* \"#utility.yul\":5027:5028   */\n  0x00\n    /* \"#utility.yul\":5044:5050   */\n  dup5\n    /* \"#utility.yul\":5041:5118   */\n  iszero\n  tag_123\n  jumpi\n    /* \"#utility.yul\":5093:5102   */\n  dup3\n    /* \"#utility.yul\":5088:5091   */\n  dup8\n    /* \"#utility.yul\":5084:5103   */\n  add\n    /* \"#utility.yul\":5078:5104   */\n  mload\n    /* \"#utility.yul\":5069:5104   */\n  swap1\n  pop\n    /* \"#utility.yul\":5041:5118   */\ntag_123:\n    /* \"#utility.yul\":5144:5211   */\n  tag_124\n    /* \"#utility.yul\":5204:5210   */\n  dup6\n    /* \"#utility.yul\":5197:5202   */\n  dup3\n    /* \"#utility.yul\":5144:5211   */\n  tag_68\n  jump\t// in\ntag_124:\n    /* \"#utility.yul\":5138:5142   */\n  dup7\n    /* \"#utility.yul\":5131:5212   */\n  sstore\n    /* \"#utility.yul\":5000:5222   */\n  pop\n    /* \"#utility.yul\":4335:5222   */\n  jump(tag_121)\n    /* \"#utility.yul\":4365:4983   */\ntag_122:\n    /* \"#utility.yul\":4417:4421   */\n  0x1f\n    /* \"#utility.yul\":4413:4422   */\n  not\n    /* \"#utility.yul\":4405:4411   */\n  dup5\n    /* \"#utility.yul\":4401:4423   */\n  and\n    /* \"#utility.yul\":4451:4488   */\n  tag_125\n    /* \"#utility.yul\":4483:4487   */\n  dup7\n    /* \"#utility.yul\":4451:4488   */\n  tag_53\n  jump\t// in\ntag_125:\n    /* \"#utility.yul\":4510:4511   */\n  0x00\n    /* \"#utility.yul\":4524:4732   */\ntag_126:\n    /* \"#utility.yul\":4538:4545   */\n  dup3\n    /* \"#utility.yul\":4535:4536   */\n  dup2\n    /* \"#utility.yul\":4532:4546   */\n  lt\n    /* \"#utility.yul\":4524:4732   */\n  iszero\n  tag_128\n  jumpi\n    /* \"#utility.yul\":4617:4626   */\n  dup5\n    /* \"#utility.yul\":4612:4615   */\n  dup10\n    /* \"#utility.yul\":4608:4627   */\n  add\n    /* \"#utility.yul\":4602:4628   */\n  mload\n    /* \"#utility.yul\":4594:4600   */\n  dup3\n    /* \"#utility.yul\":4587:4629   */\n  sstore\n    /* \"#utility.yul\":4668:4669   */\n  0x01\n    /* \"#utility.yul\":4660:4666   */\n  dup3\n    /* \"#utility.yul\":4656:4670   */\n  add\n    /* \"#utility.yul\":4646:4670   */\n  swap2\n  pop\n    /* \"#utility.yul\":4715:4717   */\n  0x20\n    /* \"#utility.yul\":4704:4713   */\n  dup6\n    /* \"#utility.yul\":4700:4718   */\n  add\n    /* \"#utility.yul\":4687:4718   */\n  swap5\n  pop\n    /* \"#utility.yul\":4561:4565   */\n  0x20\n    /* \"#utility.yul\":4558:4559   */\n  dup2\n    /* \"#utility.yul\":4554:4566   */\n  add\n    /* \"#utility.yul\":4549:4566   */\n  swap1\n  pop\n    /* \"#utility.yul\":4524:4732   */\n  jump(tag_126)\ntag_128:\n    /* \"#utility.yul\":4760:4766   */\n  dup7\n    /* \"#utility.yul\":4751:4758   */\n  dup4\n    /* \"#utility.yul\":4748:4767   */\n  lt\n    /* \"#utility.yul\":4745:4924   */\n  iszero\n  tag_129\n  jumpi\n    /* \"#utility.yul\":4818:4827   */\n  dup5\n    /* \"#utility.yul\":4813:4816   */\n  dup10\n    /* \"#utility.yul\":4809:4828   */\n  add\n    /* \"#utility.yul\":4803:4829   */\n  mload\n    /* \"#utility.yul\":4861:4909   */\n  tag_130\n    /* \"#utility.yul\":4903:4907   */\n  0x1f\n    /* \"#utility.yul\":4895:4901   */\n  dup10\n    /* \"#utility.yul\":4891:4908   */\n  and\n    /* \"#utility.yul\":4880:4889   */\n  dup3\n    /* \"#utility.yul\":4861:4909   */\n  tag_67\n  jump\t// in\ntag_130:\n    /* \"#utility.yul\":4853:4859   */\n  dup4\n    /* \"#utility.yul\":4846:4910   */\n  sstore\n    /* \"#utility.yul\":4768:4924   */\n  pop\n    /* \"#utility.yul\":4745:4924   */\ntag_129:\n    /* \"#utility.yul\":4970:4971   */\n  0x01\n    /* \"#utility.yul\":4966:4967   */\n  0x02\n    /* \"#utility.yul\":4958:4964   */\n  dup9\n    /* \"#utility.yul\":4954:4968   */\n  mul\n    /* \"#utility.yul\":4950:4972   */\n  add\n    /* \"#utility.yul\":4944:4948   */\n  dup9\n    /* \"#utility.yul\":4937:4973   */\n  sstore\n    /* \"#utility.yul\":4372:4983   */\n  pop\n  pop\n  pop\n    /* \"#utility.yul\":4335:5222   */\ntag_121:\n  pop\n    /* \"#utility.yul\":3925:5228   */\n  pop\n  pop\n  pop\n    /* \"#utility.yul\":3833:5228   */\n  pop\n  pop\n  jump\t// out\n    /* \"contracts/MyContract.sol\":60:2193  contract MyContract {... */\ntag_15:\n  dataSize(sub_0)\n  dup1\n  dataOffset(sub_0)\n  0x00\n  codecopy\n  0x00\n  return\nstop\n\nsub_0: assembly {\n        /* \"contracts/MyContract.sol\":60:2193  contract MyContract {... */\n      mstore(0x40, 0x80)\n      callvalue\n      dup1\n      iszero\n      tag_1\n      jumpi\n      0x00\n      dup1\n      revert\n    tag_1:\n      pop\n      jumpi(tag_2, lt(calldatasize, 0x04))\n      shr(0xe0, calldataload(0x00))\n      dup1\n      0x6422c4c8\n      gt\n      tag_24\n      jumpi\n      dup1\n      0xb7b3e86a\n      gt\n      tag_25\n      jumpi\n      dup1\n      0xb7b3e86a\n      eq\n      tag_18\n      jumpi\n      dup1\n      0xbc7640ed\n      eq\n      tag_19\n      jumpi\n      dup1\n      0xbe9a8428\n      eq\n      tag_20\n      jumpi\n      dup1\n      0xc2a2747b\n      eq\n      tag_21\n      jumpi\n      dup1\n      0xd3268fc1\n      eq\n      tag_22\n      jumpi\n      dup1\n      0xe5054c69\n      eq\n      tag_23\n      jumpi\n      jump(tag_2)\n    tag_25:\n      dup1\n      0x6422c4c8\n      eq\n      tag_13\n      jumpi\n      dup1\n      0x8cc7d446\n      eq\n      tag_14\n      jumpi\n      dup1\n      0x8da5cb5b\n      eq\n      tag_15\n      jumpi\n      dup1\n      0x8f32d59b\n      eq\n      tag_16\n      jumpi\n      dup1\n      0xabfc398d\n      eq\n      tag_17\n      jumpi\n      jump(tag_2)\n    tag_24:\n      dup1\n      0x4622ab03\n      gt\n      tag_26\n      jumpi\n      dup1\n      0x4622ab03\n      eq\n      tag_8\n      jumpi\n      dup1\n      0x492bfa18\n      eq\n      tag_9\n      jumpi\n      dup1\n      0x4b3e7e0c\n      eq\n      tag_10\n      jumpi\n      dup1\n      0x5b3e722d\n      eq\n      tag_11\n      jumpi\n      dup1\n      0x609fba8f\n      eq\n      tag_12\n      jumpi\n      jump(tag_2)\n    tag_26:\n      dup1\n      0x06540f7e\n      eq\n      tag_3\n      jumpi\n      dup1\n      0x09efb8ff\n      eq\n      tag_4\n      jumpi\n      dup1\n      0x26b85ee1\n      eq\n      tag_5\n      jumpi\n      dup1\n      0x2c7b97a6\n      eq\n      tag_6\n      jumpi\n      dup1\n      0x2cb777a6\n      eq\n      tag_7\n      jumpi\n    tag_2:\n      0x00\n      dup1\n      revert\n        /* \"contracts/MyContract.sol\":110:135  uint256 public myUint = 1 */\n    tag_3:\n      tag_27\n      tag_28\n      jump\t// in\n    tag_27:\n      mload(0x40)\n      tag_29\n      swap2\n      swap1\n      tag_30\n      jump\t// in\n    tag_29:\n      mload(0x40)\n      dup1\n      swap2\n      sub\n      swap1\n      return\n        /* \"contracts/MyContract.sol\":173:195  int public integer = 1 */\n    tag_4:\n      tag_31\n      tag_32\n      jump\t// in\n    tag_31:\n      mload(0x40)\n      tag_33\n      swap2\n      swap1\n      tag_34\n      jump\t// in\n    tag_33:\n      mload(0x40)\n      dup1\n      swap2\n      sub\n      swap1\n      return\n        /* \"contracts/MyContract.sol\":296:365  address public myAddress = 0x5B38Da6a701c568545dCfcB03FcB875f56beddC4 */\n    tag_5:\n      tag_35\n      tag_36\n      jump\t// in\n    tag_35:\n      mload(0x40)\n      tag_37\n      swap2\n      swap1\n      tag_38\n      jump\t// in\n    tag_37:\n      mload(0x40)\n      dup1\n      swap2\n      sub\n      swap1\n      return\n        /* \"contracts/MyContract.sol\":1038:1079  mapping (uint => Person) public personMap */\n    tag_6:\n      tag_39\n      0x04\n      dup1\n      calldatasize\n      sub\n      dup2\n      add\n      swap1\n      tag_40\n      swap2\n      swap1\n      tag_41\n      jump\t// in\n    tag_40:\n      tag_42\n      jump\t// in\n    tag_39:\n      mload(0x40)\n      tag_43\n      swap3\n      swap2\n      swap1\n      tag_44\n      jump\t// in\n    tag_43:\n      mload(0x40)\n      dup1\n      swap2\n      sub\n      swap1\n      return\n        /* \"contracts/MyContract.sol\":142:166  int256 public  myInt = 1 */\n    tag_7:\n      tag_45\n      tag_46\n      jump\t// in\n    tag_45:\n      mload(0x40)\n      tag_47\n      swap2\n      swap1\n      tag_34\n      jump\t// in\n    tag_47:\n      mload(0x40)\n      dup1\n      swap2\n      sub\n      swap1\n      return\n        /* \"contracts/MyContract.sol\":852:889  mapping (uint => string) public names */\n    tag_8:\n      tag_48\n      0x04\n      dup1\n      calldatasize\n      sub\n      dup2\n      add\n      swap1\n      tag_49\n      swap2\n      swap1\n      tag_41\n      jump\t// in\n    tag_49:\n      tag_50\n      jump\t// in\n    tag_48:\n      mload(0x40)\n      tag_51\n      swap2\n      swap1\n      tag_52\n      jump\t// in\n    tag_51:\n      mload(0x40)\n      dup1\n      swap2\n      sub\n      swap1\n      return\n        /* \"contracts/MyContract.sol\":214:246  string public myString = \"Hello\" */\n    tag_9:\n      tag_53\n      tag_54\n      jump\t// in\n    tag_53:\n      mload(0x40)\n      tag_55\n      swap2\n      swap1\n      tag_52\n      jump\t// in\n    tag_55:\n      mload(0x40)\n      dup1\n      swap2\n      sub\n      swap1\n      return\n        /* \"contracts/MyContract.sol\":253:287  bytes32 public myBytes32 = \"Hello\" */\n    tag_10:\n      tag_56\n      tag_57\n      jump\t// in\n    tag_56:\n      mload(0x40)\n      tag_58\n      swap2\n      swap1\n      tag_59\n      jump\t// in\n    tag_58:\n      mload(0x40)\n      dup1\n      swap2\n      sub\n      swap1\n      return\n        /* \"contracts/MyContract.sol\":586:609  string[] public anArray */\n    tag_11:\n      tag_60\n      0x04\n      dup1\n      calldatasize\n      sub\n      dup2\n      add\n      swap1\n      tag_61\n      swap2\n      swap1\n      tag_41\n      jump\t// in\n    tag_61:\n      tag_62\n      jump\t// in\n    tag_60:\n      mload(0x40)\n      tag_63\n      swap2\n      swap1\n      tag_52\n      jump\t// in\n    tag_63:\n      mload(0x40)\n      dup1\n      swap2\n      sub\n      swap1\n      return\n        /* \"contracts/MyContract.sol\":494:528  uint[] public intArray = [1, 2, 3] */\n    tag_12:\n      tag_64\n      0x04\n      dup1\n      calldatasize\n      sub\n      dup2\n      add\n      swap1\n      tag_65\n      swap2\n      swap1\n      tag_41\n      jump\t// in\n    tag_65:\n      tag_66\n      jump\t// in\n    tag_64:\n      mload(0x40)\n      tag_67\n      swap2\n      swap1\n      tag_30\n      jump\t// in\n    tag_67:\n      mload(0x40)\n      dup1\n      swap2\n      sub\n      swap1\n      return\n        /* \"contracts/MyContract.sol\":535:579  string[] public stringArray = [\"ABC\", \"DEF\"] */\n    tag_13:\n      tag_68\n      0x04\n      dup1\n      calldatasize\n      sub\n      dup2\n      add\n      swap1\n      tag_69\n      swap2\n      swap1\n      tag_41\n      jump\t// in\n    tag_69:\n      tag_70\n      jump\t// in\n    tag_68:\n      mload(0x40)\n      tag_71\n      swap2\n      swap1\n      tag_52\n      jump\t// in\n    tag_71:\n      mload(0x40)\n      dup1\n      swap2\n      sub\n      swap1\n      return\n        /* \"contracts/MyContract.sol\":1244:1305  mapping (address => mapping (uint => Person)) public myPeople */\n    tag_14:\n      tag_72\n      0x04\n      dup1\n      calldatasize\n      sub\n      dup2\n      add\n      swap1\n      tag_73\n      swap2\n      swap1\n      tag_74\n      jump\t// in\n    tag_73:\n      tag_75\n      jump\t// in\n    tag_72:\n      mload(0x40)\n      tag_76\n      swap3\n      swap2\n      swap1\n      tag_44\n      jump\t// in\n    tag_76:\n      mload(0x40)\n      dup1\n      swap2\n      sub\n      swap1\n      return\n        /* \"contracts/MyContract.sol\":898:918  address public owner */\n    tag_15:\n      tag_77\n      tag_78\n      jump\t// in\n    tag_77:\n      mload(0x40)\n      tag_79\n      swap2\n      swap1\n      tag_38\n      jump\t// in\n    tag_79:\n      mload(0x40)\n      dup1\n      swap2\n      sub\n      swap1\n      return\n        /* \"contracts/MyContract.sol\":2091:2184  function isOwner() public view returns (bool) {... */\n    tag_16:\n      tag_80\n      tag_81\n      jump\t// in\n    tag_80:\n      mload(0x40)\n      tag_82\n      swap2\n      swap1\n      tag_83\n      jump\t// in\n    tag_82:\n      mload(0x40)\n      dup1\n      swap2\n      sub\n      swap1\n      return\n        /* \"contracts/MyContract.sol\":1314:1451  function addMyPerson(uint _id, uint _age, string memory _name) public {... */\n    tag_17:\n      tag_84\n      0x04\n      dup1\n      calldatasize\n      sub\n      dup2\n      add\n      swap1\n      tag_85\n      swap2\n      swap1\n      tag_86\n      jump\t// in\n    tag_85:\n      tag_87\n      jump\t// in\n    tag_84:\n      stop\n        /* \"contracts/MyContract.sol\":1088:1211  function addPerson(uint _id, uint _age, string memory _name) public {... */\n    tag_18:\n      tag_88\n      0x04\n      dup1\n      calldatasize\n      sub\n      dup2\n      add\n      swap1\n      tag_89\n      swap2\n      swap1\n      tag_86\n      jump\t// in\n    tag_89:\n      tag_90\n      jump\t// in\n    tag_88:\n      stop\n        /* \"contracts/MyContract.sol\":618:751  function pushValue(string memory _value) public returns(uint) {... */\n    tag_19:\n      tag_91\n      0x04\n      dup1\n      calldatasize\n      sub\n      dup2\n      add\n      swap1\n      tag_92\n      swap2\n      swap1\n      tag_93\n      jump\t// in\n    tag_92:\n      tag_94\n      jump\t// in\n    tag_91:\n      mload(0x40)\n      tag_95\n      swap2\n      swap1\n      tag_30\n      jump\t// in\n    tag_95:\n      mload(0x40)\n      dup1\n      swap2\n      sub\n      swap1\n      return\n        /* \"contracts/MyContract.sol\":1804:2083  function sumArrayEvenNums() public view returns(uint) {... */\n    tag_20:\n      tag_96\n      tag_97\n      jump\t// in\n    tag_96:\n      mload(0x40)\n      tag_98\n      swap2\n      swap1\n      tag_30\n      jump\t// in\n    tag_98:\n      mload(0x40)\n      dup1\n      swap2\n      sub\n      swap1\n      return\n        /* \"contracts/MyContract.sol\":445:485  Person public p1 = Person(24, \"Macbeth\") */\n    tag_21:\n      tag_99\n      tag_100\n      jump\t// in\n    tag_99:\n      mload(0x40)\n      tag_101\n      swap3\n      swap2\n      swap1\n      tag_44\n      jump\t// in\n    tag_101:\n      mload(0x40)\n      dup1\n      swap2\n      sub\n      swap1\n      return\n        /* \"contracts/MyContract.sol\":776:827  uint256[][] public array2D = [[1, 2, 3], [4, 5, 6]] */\n    tag_22:\n      tag_102\n      0x04\n      dup1\n      calldatasize\n      sub\n      dup2\n      add\n      swap1\n      tag_103\n      swap2\n      swap1\n      tag_104\n      jump\t// in\n    tag_103:\n      tag_105\n      jump\t// in\n    tag_102:\n      mload(0x40)\n      tag_106\n      swap2\n      swap1\n      tag_30\n      jump\t// in\n    tag_106:\n      mload(0x40)\n      dup1\n      swap2\n      sub\n      swap1\n      return\n        /* \"contracts/MyContract.sol\":1611:1796  function isEvenNumber(uint _number) public pure returns(bool) {... */\n    tag_23:\n      tag_107\n      0x04\n      dup1\n      calldatasize\n      sub\n      dup2\n      add\n      swap1\n      tag_108\n      swap2\n      swap1\n      tag_41\n      jump\t// in\n    tag_108:\n      tag_109\n      jump\t// in\n    tag_107:\n      mload(0x40)\n      tag_110\n      swap2\n      swap1\n      tag_83\n      jump\t// in\n    tag_110:\n      mload(0x40)\n      dup1\n      swap2\n      sub\n      swap1\n      return\n        /* \"contracts/MyContract.sol\":110:135  uint256 public myUint = 1 */\n    tag_28:\n      sload(0x00)\n      dup2\n      jump\t// out\n        /* \"contracts/MyContract.sol\":173:195  int public integer = 1 */\n    tag_32:\n      sload(0x02)\n      dup2\n      jump\t// out\n        /* \"contracts/MyContract.sol\":296:365  address public myAddress = 0x5B38Da6a701c568545dCfcB03FcB875f56beddC4 */\n    tag_36:\n      0x05\n      0x00\n      swap1\n      sload\n      swap1\n      0x0100\n      exp\n      swap1\n      div\n      0xffffffffffffffffffffffffffffffffffffffff\n      and\n      dup2\n      jump\t// out\n        /* \"contracts/MyContract.sol\":1038:1079  mapping (uint => Person) public personMap */\n    tag_42:\n      mstore(0x20, 0x0e)\n      dup1\n      0x00\n      mstore\n      keccak256(0x00, 0x40)\n      0x00\n      swap2\n      pop\n      swap1\n      pop\n      dup1\n      0x00\n      add\n      sload\n      swap1\n      dup1\n      0x01\n      add\n      dup1\n      sload\n      tag_111\n      swap1\n      tag_112\n      jump\t// in\n    tag_111:\n      dup1\n      0x1f\n      add\n      0x20\n      dup1\n      swap2\n      div\n      mul\n      0x20\n      add\n      mload(0x40)\n      swap1\n      dup2\n      add\n      0x40\n      mstore\n      dup1\n      swap3\n      swap2\n      swap1\n      dup2\n      dup2\n      mstore\n      0x20\n      add\n      dup3\n      dup1\n      sload\n      tag_113\n      swap1\n      tag_112\n      jump\t// in\n    tag_113:\n      dup1\n      iszero\n      tag_114\n      jumpi\n      dup1\n      0x1f\n      lt\n      tag_115\n      jumpi\n      0x0100\n      dup1\n      dup4\n      sload\n      div\n      mul\n      dup4\n      mstore\n      swap2\n      0x20\n      add\n      swap2\n      jump(tag_114)\n    tag_115:\n      dup3\n      add\n      swap2\n      swap1\n      0x00\n      mstore\n      keccak256(0x00, 0x20)\n      swap1\n    tag_116:\n      dup2\n      sload\n      dup2\n      mstore\n      swap1\n      0x01\n      add\n      swap1\n      0x20\n      add\n      dup1\n      dup4\n      gt\n      tag_116\n      jumpi\n      dup3\n      swap1\n      sub\n      0x1f\n      and\n      dup3\n      add\n      swap2\n    tag_114:\n      pop\n      pop\n      pop\n      pop\n      pop\n      swap1\n      pop\n      dup3\n      jump\t// out\n        /* \"contracts/MyContract.sol\":142:166  int256 public  myInt = 1 */\n    tag_46:\n      sload(0x01)\n      dup2\n      jump\t// out\n        /* \"contracts/MyContract.sol\":852:889  mapping (uint => string) public names */\n    tag_50:\n      mstore(0x20, 0x0c)\n      dup1\n      0x00\n      mstore\n      keccak256(0x00, 0x40)\n      0x00\n      swap2\n      pop\n      swap1\n      pop\n      dup1\n      sload\n      tag_117\n      swap1\n      tag_112\n      jump\t// in\n    tag_117:\n      dup1\n      0x1f\n      add\n      0x20\n      dup1\n      swap2\n      div\n      mul\n      0x20\n      add\n      mload(0x40)\n      swap1\n      dup2\n      add\n      0x40\n      mstore\n      dup1\n      swap3\n      swap2\n      swap1\n      dup2\n      dup2\n      mstore\n      0x20\n      add\n      dup3\n      dup1\n      sload\n      tag_118\n      swap1\n      tag_112\n      jump\t// in\n    tag_118:\n      dup1\n      iszero\n      tag_119\n      jumpi\n      dup1\n      0x1f\n      lt\n      tag_120\n      jumpi\n      0x0100\n      dup1\n      dup4\n      sload\n      div\n      mul\n      dup4\n      mstore\n      swap2\n      0x20\n      add\n      swap2\n      jump(tag_119)\n    tag_120:\n      dup3\n      add\n      swap2\n      swap1\n      0x00\n      mstore\n      keccak256(0x00, 0x20)\n      swap1\n    tag_121:\n      dup2\n      sload\n      dup2\n      mstore\n      swap1\n      0x01\n      add\n      swap1\n      0x20\n      add\n      dup1\n      dup4\n      gt\n      tag_121\n      jumpi\n      dup3\n      swap1\n      sub\n      0x1f\n      and\n      dup3\n      add\n      swap2\n    tag_119:\n      pop\n      pop\n      pop\n      pop\n      pop\n      dup2\n      jump\t// out\n        /* \"contracts/MyContract.sol\":214:246  string public myString = \"Hello\" */\n    tag_54:\n      0x03\n      dup1\n      sload\n      tag_122\n      swap1\n      tag_112\n      jump\t// in\n    tag_122:\n      dup1\n      0x1f\n      add\n      0x20\n      dup1\n      swap2\n      div\n      mul\n      0x20\n      add\n      mload(0x40)\n      swap1\n      dup2\n      add\n      0x40\n      mstore\n      dup1\n      swap3\n      swap2\n      swap1\n      dup2\n      dup2\n      mstore\n      0x20\n      add\n      dup3\n      dup1\n      sload\n      tag_123\n      swap1\n      tag_112\n      jump\t// in\n    tag_123:\n      dup1\n      iszero\n      tag_124\n      jumpi\n      dup1\n      0x1f\n      lt\n      tag_125\n      jumpi\n      0x0100\n      dup1\n      dup4\n      sload\n      div\n      mul\n      dup4\n      mstore\n      swap2\n      0x20\n      add\n      swap2\n      jump(tag_124)\n    tag_125:\n      dup3\n      add\n      swap2\n      swap1\n      0x00\n      mstore\n      keccak256(0x00, 0x20)\n      swap1\n    tag_126:\n      dup2\n      sload\n      dup2\n      mstore\n      swap1\n      0x01\n      add\n      swap1\n      0x20\n      add\n      dup1\n      dup4\n      gt\n      tag_126\n      jumpi\n      dup3\n      swap1\n      sub\n      0x1f\n      and\n      dup3\n      add\n      swap2\n    tag_124:\n      pop\n      pop\n      pop\n      pop\n      pop\n      dup2\n      jump\t// out\n        /* \"contracts/MyContract.sol\":253:287  bytes32 public myBytes32 = \"Hello\" */\n    tag_57:\n      sload(0x04)\n      dup2\n      jump\t// out\n        /* \"contracts/MyContract.sol\":586:609  string[] public anArray */\n    tag_62:\n      0x0a\n      dup2\n      dup2\n      sload\n      dup2\n      lt\n      tag_127\n      jumpi\n      0x00\n      dup1\n      revert\n    tag_127:\n      swap1\n      0x00\n      mstore\n      keccak256(0x00, 0x20)\n      add\n      0x00\n      swap2\n      pop\n      swap1\n      pop\n      dup1\n      sload\n      tag_129\n      swap1\n      tag_112\n      jump\t// in\n    tag_129:\n      dup1\n      0x1f\n      add\n      0x20\n      dup1\n      swap2\n      div\n      mul\n      0x20\n      add\n      mload(0x40)\n      swap1\n      dup2\n      add\n      0x40\n      mstore\n      dup1\n      swap3\n      swap2\n      swap1\n      dup2\n      dup2\n      mstore\n      0x20\n      add\n      dup3\n      dup1\n      sload\n      tag_130\n      swap1\n      tag_112\n      jump\t// in\n    tag_130:\n      dup1\n      iszero\n      tag_131\n      jumpi\n      dup1\n      0x1f\n      lt\n      tag_132\n      jumpi\n      0x0100\n      dup1\n      dup4\n      sload\n      div\n      mul\n      dup4\n      mstore\n      swap2\n      0x20\n      add\n      swap2\n      jump(tag_131)\n    tag_132:\n      dup3\n      add\n      swap2\n      swap1\n      0x00\n      mstore\n      keccak256(0x00, 0x20)\n      swap1\n    tag_133:\n      dup2\n      sload\n      dup2\n      mstore\n      swap1\n      0x01\n      add\n      swap1\n      0x20\n      add\n      dup1\n      dup4\n      gt\n      tag_133\n      jumpi\n      dup3\n      swap1\n      sub\n      0x1f\n      and\n      dup3\n      add\n      swap2\n    tag_131:\n      pop\n      pop\n      pop\n      pop\n      pop\n      dup2\n      jump\t// out\n        /* \"contracts/MyContract.sol\":494:528  uint[] public intArray = [1, 2, 3] */\n    tag_66:\n      0x08\n      dup2\n      dup2\n      sload\n      dup2\n      lt\n      tag_134\n      jumpi\n      0x00\n      dup1\n      revert\n    tag_134:\n      swap1\n      0x00\n      mstore\n      keccak256(0x00, 0x20)\n      add\n      0x00\n      swap2\n      pop\n      swap1\n      pop\n      sload\n      dup2\n      jump\t// out\n        /* \"contracts/MyContract.sol\":535:579  string[] public stringArray = [\"ABC\", \"DEF\"] */\n    tag_70:\n      0x09\n      dup2\n      dup2\n      sload\n      dup2\n      lt\n      tag_136\n      jumpi\n      0x00\n      dup1\n      revert\n    tag_136:\n      swap1\n      0x00\n      mstore\n      keccak256(0x00, 0x20)\n      add\n      0x00\n      swap2\n      pop\n      swap1\n      pop\n      dup1\n      sload\n      tag_138\n      swap1\n      tag_112\n      jump\t// in\n    tag_138:\n      dup1\n      0x1f\n      add\n      0x20\n      dup1\n      swap2\n      div\n      mul\n      0x20\n      add\n      mload(0x40)\n      swap1\n      dup2\n      add\n      0x40\n      mstore\n      dup1\n      swap3\n      swap2\n      swap1\n      dup2\n      dup2\n      mstore\n      0x20\n      add\n      dup3\n      dup1\n      sload\n      tag_139\n      swap1\n      tag_112\n      jump\t// in\n    tag_139:\n      dup1\n      iszero\n      tag_140\n      jumpi\n      dup1\n      0x1f\n      lt\n      tag_141\n      jumpi\n      0x0100\n      dup1\n      dup4\n      sload\n      div\n      mul\n      dup4\n      mstore\n      swap2\n      0x20\n      add\n      swap2\n      jump(tag_140)\n    tag_141:\n      dup3\n      add\n      swap2\n      swap1\n      0x00\n      mstore\n      keccak256(0x00, 0x20)\n      swap1\n    tag_142:\n      dup2\n      sload\n      dup2\n      mstore\n      swap1\n      0x01\n      add\n      swap1\n      0x20\n      add\n      dup1\n      dup4\n      gt\n      tag_142\n      jumpi\n      dup3\n      swap1\n      sub\n      0x1f\n      and\n      dup3\n      add\n      swap2\n    tag_140:\n      pop\n      pop\n      pop\n      pop\n      pop\n      dup2\n      jump\t// out\n        /* \"contracts/MyContract.sol\":1244:1305  mapping (address => mapping (uint => Person)) public myPeople */\n    tag_75:\n      mstore(0x20, 0x0f)\n      dup2\n      0x00\n      mstore\n      mstore(0x20, keccak256(0x00, 0x40))\n      dup1\n      0x00\n      mstore\n      keccak256(0x00, 0x40)\n      0x00\n      swap2\n      pop\n      swap2\n      pop\n      pop\n      dup1\n      0x00\n      add\n      sload\n      swap1\n      dup1\n      0x01\n      add\n      dup1\n      sload\n      tag_143\n      swap1\n      tag_112\n      jump\t// in\n    tag_143:\n      dup1\n      0x1f\n      add\n      0x20\n      dup1\n      swap2\n      div\n      mul\n      0x20\n      add\n      mload(0x40)\n      swap1\n      dup2\n      add\n      0x40\n      mstore\n      dup1\n      swap3\n      swap2\n      swap1\n      dup2\n      dup2\n      mstore\n      0x20\n      add\n      dup3\n      dup1\n      sload\n      tag_144\n      swap1\n      tag_112\n      jump\t// in\n    tag_144:\n      dup1\n      iszero\n      tag_145\n      jumpi\n      dup1\n      0x1f\n      lt\n      tag_146\n      jumpi\n      0x0100\n      dup1\n      dup4\n      sload\n      div\n      mul\n      dup4\n      mstore\n      swap2\n      0x20\n      add\n      swap2\n      jump(tag_145)\n    tag_146:\n      dup3\n      add\n      swap2\n      swap1\n      0x00\n      mstore\n      keccak256(0x00, 0x20)\n      swap1\n    tag_147:\n      dup2\n      sload\n      dup2\n      mstore\n      swap1\n      0x01\n      add\n      swap1\n      0x20\n      add\n      dup1\n      dup4\n      gt\n      tag_147\n      jumpi\n      dup3\n      swap1\n      sub\n      0x1f\n      and\n      dup3\n      add\n      swap2\n    tag_145:\n      pop\n      pop\n      pop\n      pop\n      pop\n      swap1\n      pop\n      dup3\n      jump\t// out\n        /* \"contracts/MyContract.sol\":898:918  address public owner */\n    tag_78:\n      0x0d\n      0x00\n      swap1\n      sload\n      swap1\n      0x0100\n      exp\n      swap1\n      div\n      0xffffffffffffffffffffffffffffffffffffffff\n      and\n      dup2\n      jump\t// out\n        /* \"contracts/MyContract.sol\":2091:2184  function isOwner() public view returns (bool) {... */\n    tag_81:\n        /* \"contracts/MyContract.sol\":2131:2135  bool */\n      0x00\n        /* \"contracts/MyContract.sol\":2165:2175  msg.sender */\n      caller\n        /* \"contracts/MyContract.sol\":2156:2175  owner == msg.sender */\n      0xffffffffffffffffffffffffffffffffffffffff\n      and\n        /* \"contracts/MyContract.sol\":2156:2161  owner */\n      0x0d\n      0x00\n      swap1\n      sload\n      swap1\n      0x0100\n      exp\n      swap1\n      div\n      0xffffffffffffffffffffffffffffffffffffffff\n      and\n        /* \"contracts/MyContract.sol\":2156:2175  owner == msg.sender */\n      0xffffffffffffffffffffffffffffffffffffffff\n      and\n      eq\n        /* \"contracts/MyContract.sol\":2148:2176  return (owner == msg.sender) */\n      swap1\n      pop\n        /* \"contracts/MyContract.sol\":2091:2184  function isOwner() public view returns (bool) {... */\n      swap1\n      jump\t// out\n        /* \"contracts/MyContract.sol\":1314:1451  function addMyPerson(uint _id, uint _age, string memory _name) public {... */\n    tag_87:\n        /* \"contracts/MyContract.sol\":1423:1442  Person(_age, _name) */\n      mload(0x40)\n      dup1\n      0x40\n      add\n      0x40\n      mstore\n      dup1\n        /* \"contracts/MyContract.sol\":1430:1434  _age */\n      dup4\n        /* \"contracts/MyContract.sol\":1423:1442  Person(_age, _name) */\n      dup2\n      mstore\n      0x20\n      add\n        /* \"contracts/MyContract.sol\":1436:1441  _name */\n      dup3\n        /* \"contracts/MyContract.sol\":1423:1442  Person(_age, _name) */\n      dup2\n      mstore\n      pop\n        /* \"contracts/MyContract.sol\":1395:1403  myPeople */\n      0x0f\n        /* \"contracts/MyContract.sol\":1395:1415  myPeople[msg.sender] */\n      0x00\n        /* \"contracts/MyContract.sol\":1404:1414  msg.sender */\n      caller\n        /* \"contracts/MyContract.sol\":1395:1415  myPeople[msg.sender] */\n      0xffffffffffffffffffffffffffffffffffffffff\n      and\n      0xffffffffffffffffffffffffffffffffffffffff\n      and\n      dup2\n      mstore\n      0x20\n      add\n      swap1\n      dup2\n      mstore\n      0x20\n      add\n      0x00\n      keccak256\n        /* \"contracts/MyContract.sol\":1395:1420  myPeople[msg.sender][_id] */\n      0x00\n        /* \"contracts/MyContract.sol\":1416:1419  _id */\n      dup6\n        /* \"contracts/MyContract.sol\":1395:1420  myPeople[msg.sender][_id] */\n      dup2\n      mstore\n      0x20\n      add\n      swap1\n      dup2\n      mstore\n      0x20\n      add\n      0x00\n      keccak256\n        /* \"contracts/MyContract.sol\":1395:1442  myPeople[msg.sender][_id] = Person(_age, _name) */\n      0x00\n      dup3\n      add\n      mload\n      dup2\n      0x00\n      add\n      sstore\n      0x20\n      dup3\n      add\n      mload\n      dup2\n      0x01\n      add\n      swap1\n      dup2\n      tag_150\n      swap2\n      swap1\n      tag_151\n      jump\t// in\n    tag_150:\n      pop\n      swap1\n      pop\n      pop\n        /* \"contracts/MyContract.sol\":1314:1451  function addMyPerson(uint _id, uint _age, string memory _name) public {... */\n      pop\n      pop\n      pop\n      jump\t// out\n        /* \"contracts/MyContract.sol\":1088:1211  function addPerson(uint _id, uint _age, string memory _name) public {... */\n    tag_90:\n        /* \"contracts/MyContract.sol\":1184:1203  Person(_age, _name) */\n      mload(0x40)\n      dup1\n      0x40\n      add\n      0x40\n      mstore\n      dup1\n        /* \"contracts/MyContract.sol\":1191:1195  _age */\n      dup4\n        /* \"contracts/MyContract.sol\":1184:1203  Person(_age, _name) */\n      dup2\n      mstore\n      0x20\n      add\n        /* \"contracts/MyContract.sol\":1197:1202  _name */\n      dup3\n        /* \"contracts/MyContract.sol\":1184:1203  Person(_age, _name) */\n      dup2\n      mstore\n      pop\n        /* \"contracts/MyContract.sol\":1167:1176  personMap */\n      0x0e\n        /* \"contracts/MyContract.sol\":1167:1181  personMap[_id] */\n      0x00\n        /* \"contracts/MyContract.sol\":1177:1180  _id */\n      dup6\n        /* \"contracts/MyContract.sol\":1167:1181  personMap[_id] */\n      dup2\n      mstore\n      0x20\n      add\n      swap1\n      dup2\n      mstore\n      0x20\n      add\n      0x00\n      keccak256\n        /* \"contracts/MyContract.sol\":1167:1203  personMap[_id] = Person(_age, _name) */\n      0x00\n      dup3\n      add\n      mload\n      dup2\n      0x00\n      add\n      sstore\n      0x20\n      dup3\n      add\n      mload\n      dup2\n      0x01\n      add\n      swap1\n      dup2\n      tag_153\n      swap2\n      swap1\n      tag_151\n      jump\t// in\n    tag_153:\n      pop\n      swap1\n      pop\n      pop\n        /* \"contracts/MyContract.sol\":1088:1211  function addPerson(uint _id, uint _age, string memory _name) public {... */\n      pop\n      pop\n      pop\n      jump\t// out\n        /* \"contracts/MyContract.sol\":618:751  function pushValue(string memory _value) public returns(uint) {... */\n    tag_94:\n        /* \"contracts/MyContract.sol\":674:678  uint */\n      0x00\n        /* \"contracts/MyContract.sol\":691:698  anArray */\n      0x0a\n        /* \"contracts/MyContract.sol\":704:710  _value */\n      dup3\n        /* \"contracts/MyContract.sol\":691:711  anArray.push(_value) */\n      swap1\n      dup1\n      0x01\n      dup2\n      sload\n      add\n      dup1\n      dup3\n      sstore\n      dup1\n      swap2\n      pop\n      pop\n      0x01\n      swap1\n      sub\n      swap1\n      0x00\n      mstore\n      keccak256(0x00, 0x20)\n      add\n      0x00\n      swap1\n      swap2\n      swap1\n      swap2\n      swap1\n      swap2\n      pop\n      swap1\n      dup2\n      tag_156\n      swap2\n      swap1\n      tag_151\n      jump\t// in\n    tag_156:\n      pop\n        /* \"contracts/MyContract.sol\":729:736  anArray */\n      0x0a\n        /* \"contracts/MyContract.sol\":729:743  anArray.length */\n      dup1\n      sload\n      swap1\n      pop\n        /* \"contracts/MyContract.sol\":722:743  return anArray.length */\n      swap1\n      pop\n        /* \"contracts/MyContract.sol\":618:751  function pushValue(string memory _value) public returns(uint) {... */\n      swap2\n      swap1\n      pop\n      jump\t// out\n        /* \"contracts/MyContract.sol\":1804:2083  function sumArrayEvenNums() public view returns(uint) {... */\n    tag_97:\n        /* \"contracts/MyContract.sol\":1852:1856  uint */\n      0x00\n        /* \"contracts/MyContract.sol\":1869:1879  uint count */\n      dup1\n        /* \"contracts/MyContract.sol\":1882:1883  0 */\n      0x00\n        /* \"contracts/MyContract.sol\":1869:1883  uint count = 0 */\n      swap1\n      pop\n        /* \"contracts/MyContract.sol\":1901:1907  uint i */\n      0x00\n        /* \"contracts/MyContract.sol\":1896:2051  for (uint i = 0; i < intArray.length; i++) {... */\n    tag_158:\n        /* \"contracts/MyContract.sol\":1917:1925  intArray */\n      0x08\n        /* \"contracts/MyContract.sol\":1917:1932  intArray.length */\n      dup1\n      sload\n      swap1\n      pop\n        /* \"contracts/MyContract.sol\":1913:1914  i */\n      dup2\n        /* \"contracts/MyContract.sol\":1913:1932  i < intArray.length */\n      lt\n        /* \"contracts/MyContract.sol\":1896:2051  for (uint i = 0; i < intArray.length; i++) {... */\n      iszero\n      tag_159\n      jumpi\n        /* \"contracts/MyContract.sol\":1958:1983  isEvenNumber(intArray[i]) */\n      tag_161\n        /* \"contracts/MyContract.sol\":1971:1979  intArray */\n      0x08\n        /* \"contracts/MyContract.sol\":1980:1981  i */\n      dup3\n        /* \"contracts/MyContract.sol\":1971:1982  intArray[i] */\n      dup2\n      sload\n      dup2\n      lt\n      tag_162\n      jumpi\n      tag_163\n      tag_164\n      jump\t// in\n    tag_163:\n    tag_162:\n      swap1\n      0x00\n      mstore\n      keccak256(0x00, 0x20)\n      add\n      sload\n        /* \"contracts/MyContract.sol\":1958:1970  isEvenNumber */\n      tag_109\n        /* \"contracts/MyContract.sol\":1958:1983  isEvenNumber(intArray[i]) */\n      jump\t// in\n    tag_161:\n        /* \"contracts/MyContract.sol\":1954:2040  if (isEvenNumber(intArray[i])) {... */\n      iszero\n      tag_166\n      jumpi\n        /* \"contracts/MyContract.sol\":2013:2021  intArray */\n      0x08\n        /* \"contracts/MyContract.sol\":2022:2023  i */\n      dup2\n        /* \"contracts/MyContract.sol\":2013:2024  intArray[i] */\n      dup2\n      sload\n      dup2\n      lt\n      tag_167\n      jumpi\n      tag_168\n      tag_164\n      jump\t// in\n    tag_168:\n    tag_167:\n      swap1\n      0x00\n      mstore\n      keccak256(0x00, 0x20)\n      add\n      sload\n        /* \"contracts/MyContract.sol\":2004:2024  count += intArray[i] */\n      dup3\n      tag_170\n      swap2\n      swap1\n      tag_171\n      jump\t// in\n    tag_170:\n      swap2\n      pop\n        /* \"contracts/MyContract.sol\":1954:2040  if (isEvenNumber(intArray[i])) {... */\n    tag_166:\n        /* \"contracts/MyContract.sol\":1934:1937  i++ */\n      dup1\n      dup1\n      tag_172\n      swap1\n      tag_173\n      jump\t// in\n    tag_172:\n      swap2\n      pop\n      pop\n        /* \"contracts/MyContract.sol\":1896:2051  for (uint i = 0; i < intArray.length; i++) {... */\n      jump(tag_158)\n    tag_159:\n      pop\n        /* \"contracts/MyContract.sol\":2070:2075  count */\n      dup1\n        /* \"contracts/MyContract.sol\":2063:2075  return count */\n      swap2\n      pop\n      pop\n        /* \"contracts/MyContract.sol\":1804:2083  function sumArrayEvenNums() public view returns(uint) {... */\n      swap1\n      jump\t// out\n        /* \"contracts/MyContract.sol\":445:485  Person public p1 = Person(24, \"Macbeth\") */\n    tag_100:\n      0x06\n      dup1\n      0x00\n      add\n      sload\n      swap1\n      dup1\n      0x01\n      add\n      dup1\n      sload\n      tag_174\n      swap1\n      tag_112\n      jump\t// in\n    tag_174:\n      dup1\n      0x1f\n      add\n      0x20\n      dup1\n      swap2\n      div\n      mul\n      0x20\n      add\n      mload(0x40)\n      swap1\n      dup2\n      add\n      0x40\n      mstore\n      dup1\n      swap3\n      swap2\n      swap1\n      dup2\n      dup2\n      mstore\n      0x20\n      add\n      dup3\n      dup1\n      sload\n      tag_175\n      swap1\n      tag_112\n      jump\t// in\n    tag_175:\n      dup1\n      iszero\n      tag_176\n      jumpi\n      dup1\n      0x1f\n      lt\n      tag_177\n      jumpi\n      0x0100\n      dup1\n      dup4\n      sload\n      div\n      mul\n      dup4\n      mstore\n      swap2\n      0x20\n      add\n      swap2\n      jump(tag_176)\n    tag_177:\n      dup3\n      add\n      swap2\n      swap1\n      0x00\n      mstore\n      keccak256(0x00, 0x20)\n      swap1\n    tag_178:\n      dup2\n      sload\n      dup2\n      mstore\n      swap1\n      0x01\n      add\n      swap1\n      0x20\n      add\n      dup1\n      dup4\n      gt\n      tag_178\n      jumpi\n      dup3\n      swap1\n      sub\n      0x1f\n      and\n      dup3\n      add\n      swap2\n    tag_176:\n      pop\n      pop\n      pop\n      pop\n      pop\n      swap1\n      pop\n      dup3\n      jump\t// out\n        /* \"contracts/MyContract.sol\":776:827  uint256[][] public array2D = [[1, 2, 3], [4, 5, 6]] */\n    tag_105:\n      0x0b\n      dup3\n      dup2\n      sload\n      dup2\n      lt\n      tag_179\n      jumpi\n      0x00\n      dup1\n      revert\n    tag_179:\n      swap1\n      0x00\n      mstore\n      keccak256(0x00, 0x20)\n      add\n      dup2\n      dup2\n      sload\n      dup2\n      lt\n      tag_181\n      jumpi\n      0x00\n      dup1\n      revert\n    tag_181:\n      swap1\n      0x00\n      mstore\n      keccak256(0x00, 0x20)\n      add\n      0x00\n      swap2\n      pop\n      swap2\n      pop\n      pop\n      sload\n      dup2\n      jump\t// out\n        /* \"contracts/MyContract.sol\":1611:1796  function isEvenNumber(uint _number) public pure returns(bool) {... */\n    tag_109:\n        /* \"contracts/MyContract.sol\":1667:1671  bool */\n      0x00\n        /* \"contracts/MyContract.sol\":1703:1704  0 */\n      dup1\n        /* \"contracts/MyContract.sol\":1698:1699  2 */\n      0x02\n        /* \"contracts/MyContract.sol\":1688:1695  _number */\n      dup4\n        /* \"contracts/MyContract.sol\":1688:1699  _number % 2 */\n      tag_184\n      swap2\n      swap1\n      tag_185\n      jump\t// in\n    tag_184:\n        /* \"contracts/MyContract.sol\":1688:1704  _number % 2 == 0 */\n      sub\n        /* \"contracts/MyContract.sol\":1684:1789  if (_number % 2 == 0) {... */\n      tag_186\n      jumpi\n        /* \"contracts/MyContract.sol\":1728:1732  true */\n      0x01\n        /* \"contracts/MyContract.sol\":1721:1732  return true */\n      swap1\n      pop\n      jump(tag_183)\n        /* \"contracts/MyContract.sol\":1684:1789  if (_number % 2 == 0) {... */\n    tag_186:\n        /* \"contracts/MyContract.sol\":1772:1777  false */\n      0x00\n        /* \"contracts/MyContract.sol\":1765:1777  return false */\n      swap1\n      pop\n        /* \"contracts/MyContract.sol\":1611:1796  function isEvenNumber(uint _number) public pure returns(bool) {... */\n    tag_183:\n      swap2\n      swap1\n      pop\n      jump\t// out\n        /* \"#utility.yul\":7:84   */\n    tag_188:\n        /* \"#utility.yul\":44:51   */\n      0x00\n        /* \"#utility.yul\":73:78   */\n      dup2\n        /* \"#utility.yul\":62:78   */\n      swap1\n      pop\n        /* \"#utility.yul\":7:84   */\n      swap2\n      swap1\n      pop\n      jump\t// out\n        /* \"#utility.yul\":90:208   */\n    tag_189:\n        /* \"#utility.yul\":177:201   */\n      tag_241\n        /* \"#utility.yul\":195:200   */\n      dup2\n        /* \"#utility.yul\":177:201   */\n      tag_188\n      jump\t// in\n    tag_241:\n        /* \"#utility.yul\":172:175   */\n      dup3\n        /* \"#utility.yul\":165:202   */\n      mstore\n        /* \"#utility.yul\":90:208   */\n      pop\n      pop\n      jump\t// out\n        /* \"#utility.yul\":214:436   */\n    tag_30:\n        /* \"#utility.yul\":307:311   */\n      0x00\n        /* \"#utility.yul\":345:347   */\n      0x20\n        /* \"#utility.yul\":334:343   */\n      dup3\n        /* \"#utility.yul\":330:348   */\n      add\n        /* \"#utility.yul\":322:348   */\n      swap1\n      pop\n        /* \"#utility.yul\":358:429   */\n      tag_243\n        /* \"#utility.yul\":426:427   */\n      0x00\n        /* \"#utility.yul\":415:424   */\n      dup4\n        /* \"#utility.yul\":411:428   */\n      add\n        /* \"#utility.yul\":402:408   */\n      dup5\n        /* \"#utility.yul\":358:429   */\n      tag_189\n      jump\t// in\n    tag_243:\n        /* \"#utility.yul\":214:436   */\n      swap3\n      swap2\n      pop\n      pop\n      jump\t// out\n        /* \"#utility.yul\":442:518   */\n    tag_190:\n        /* \"#utility.yul\":478:485   */\n      0x00\n        /* \"#utility.yul\":507:512   */\n      dup2\n        /* \"#utility.yul\":496:512   */\n      swap1\n      pop\n        /* \"#utility.yul\":442:518   */\n      swap2\n      swap1\n      pop\n      jump\t// out\n        /* \"#utility.yul\":524:639   */\n    tag_191:\n        /* \"#utility.yul\":609:632   */\n      tag_246\n        /* \"#utility.yul\":626:631   */\n      dup2\n        /* \"#utility.yul\":609:632   */\n      tag_190\n      jump\t// in\n    tag_246:\n        /* \"#utility.yul\":604:607   */\n      dup3\n        /* \"#utility.yul\":597:633   */\n      mstore\n        /* \"#utility.yul\":524:639   */\n      pop\n      pop\n      jump\t// out\n        /* \"#utility.yul\":645:863   */\n    tag_34:\n        /* \"#utility.yul\":736:740   */\n      0x00\n        /* \"#utility.yul\":774:776   */\n      0x20\n        /* \"#utility.yul\":763:772   */\n      dup3\n        /* \"#utility.yul\":759:777   */\n      add\n        /* \"#utility.yul\":751:777   */\n      swap1\n      pop\n        /* \"#utility.yul\":787:856   */\n      tag_248\n        /* \"#utility.yul\":853:854   */\n      0x00\n        /* \"#utility.yul\":842:851   */\n      dup4\n        /* \"#utility.yul\":838:855   */\n      add\n        /* \"#utility.yul\":829:835   */\n      dup5\n        /* \"#utility.yul\":787:856   */\n      tag_191\n      jump\t// in\n    tag_248:\n        /* \"#utility.yul\":645:863   */\n      swap3\n      swap2\n      pop\n      pop\n      jump\t// out\n        /* \"#utility.yul\":869:995   */\n    tag_192:\n        /* \"#utility.yul\":906:913   */\n      0x00\n        /* \"#utility.yul\":946:988   */\n      0xffffffffffffffffffffffffffffffffffffffff\n        /* \"#utility.yul\":939:944   */\n      dup3\n        /* \"#utility.yul\":935:989   */\n      and\n        /* \"#utility.yul\":924:989   */\n      swap1\n      pop\n        /* \"#utility.yul\":869:995   */\n      swap2\n      swap1\n      pop\n      jump\t// out\n        /* \"#utility.yul\":1001:1097   */\n    tag_193:\n        /* \"#utility.yul\":1038:1045   */\n      0x00\n        /* \"#utility.yul\":1067:1091   */\n      tag_251\n        /* \"#utility.yul\":1085:1090   */\n      dup3\n        /* \"#utility.yul\":1067:1091   */\n      tag_192\n      jump\t// in\n    tag_251:\n        /* \"#utility.yul\":1056:1091   */\n      swap1\n      pop\n        /* \"#utility.yul\":1001:1097   */\n      swap2\n      swap1\n      pop\n      jump\t// out\n        /* \"#utility.yul\":1103:1221   */\n    tag_194:\n        /* \"#utility.yul\":1190:1214   */\n      tag_253\n        /* \"#utility.yul\":1208:1213   */\n      dup2\n        /* \"#utility.yul\":1190:1214   */\n      tag_193\n      jump\t// in\n    tag_253:\n        /* \"#utility.yul\":1185:1188   */\n      dup3\n        /* \"#utility.yul\":1178:1215   */\n      mstore\n        /* \"#utility.yul\":1103:1221   */\n      pop\n      pop\n      jump\t// out\n        /* \"#utility.yul\":1227:1449   */\n    tag_38:\n        /* \"#utility.yul\":1320:1324   */\n      0x00\n        /* \"#utility.yul\":1358:1360   */\n      0x20\n        /* \"#utility.yul\":1347:1356   */\n      dup3\n        /* \"#utility.yul\":1343:1361   */\n      add\n        /* \"#utility.yul\":1335:1361   */\n      swap1\n      pop\n        /* \"#utility.yul\":1371:1442   */\n      tag_255\n        /* \"#utility.yul\":1439:1440   */\n      0x00\n        /* \"#utility.yul\":1428:1437   */\n      dup4\n        /* \"#utility.yul\":1424:1441   */\n      add\n        /* \"#utility.yul\":1415:1421   */\n      dup5\n        /* \"#utility.yul\":1371:1442   */\n      tag_194\n      jump\t// in\n    tag_255:\n        /* \"#utility.yul\":1227:1449   */\n      swap3\n      swap2\n      pop\n      pop\n      jump\t// out\n        /* \"#utility.yul\":1455:1530   */\n    tag_195:\n        /* \"#utility.yul\":1488:1494   */\n      0x00\n        /* \"#utility.yul\":1521:1523   */\n      0x40\n        /* \"#utility.yul\":1515:1524   */\n      mload\n        /* \"#utility.yul\":1505:1524   */\n      swap1\n      pop\n        /* \"#utility.yul\":1455:1530   */\n      swap1\n      jump\t// out\n        /* \"#utility.yul\":1536:1653   */\n    tag_196:\n        /* \"#utility.yul\":1645:1646   */\n      0x00\n        /* \"#utility.yul\":1642:1643   */\n      dup1\n        /* \"#utility.yul\":1635:1647   */\n      revert\n        /* \"#utility.yul\":1659:1776   */\n    tag_197:\n        /* \"#utility.yul\":1768:1769   */\n      0x00\n        /* \"#utility.yul\":1765:1766   */\n      dup1\n        /* \"#utility.yul\":1758:1770   */\n      revert\n        /* \"#utility.yul\":1782:1904   */\n    tag_198:\n        /* \"#utility.yul\":1855:1879   */\n      tag_260\n        /* \"#utility.yul\":1873:1878   */\n      dup2\n        /* \"#utility.yul\":1855:1879   */\n      tag_188\n      jump\t// in\n    tag_260:\n        /* \"#utility.yul\":1848:1853   */\n      dup2\n        /* \"#utility.yul\":1845:1880   */\n      eq\n        /* \"#utility.yul\":1835:1898   */\n      tag_261\n      jumpi\n        /* \"#utility.yul\":1894:1895   */\n      0x00\n        /* \"#utility.yul\":1891:1892   */\n      dup1\n        /* \"#utility.yul\":1884:1896   */\n      revert\n        /* \"#utility.yul\":1835:1898   */\n    tag_261:\n        /* \"#utility.yul\":1782:1904   */\n      pop\n      jump\t// out\n        /* \"#utility.yul\":1910:2049   */\n    tag_199:\n        /* \"#utility.yul\":1956:1961   */\n      0x00\n        /* \"#utility.yul\":1994:2000   */\n      dup2\n        /* \"#utility.yul\":1981:2001   */\n      calldataload\n        /* \"#utility.yul\":1972:2001   */\n      swap1\n      pop\n        /* \"#utility.yul\":2010:2043   */\n      tag_263\n        /* \"#utility.yul\":2037:2042   */\n      dup2\n        /* \"#utility.yul\":2010:2043   */\n      tag_198\n      jump\t// in\n    tag_263:\n        /* \"#utility.yul\":1910:2049   */\n      swap3\n      swap2\n      pop\n      pop\n      jump\t// out\n        /* \"#utility.yul\":2055:2384   */\n    tag_41:\n        /* \"#utility.yul\":2114:2120   */\n      0x00\n        /* \"#utility.yul\":2163:2165   */\n      0x20\n        /* \"#utility.yul\":2151:2160   */\n      dup3\n        /* \"#utility.yul\":2142:2149   */\n      dup5\n        /* \"#utility.yul\":2138:2161   */\n      sub\n        /* \"#utility.yul\":2134:2166   */\n      slt\n        /* \"#utility.yul\":2131:2250   */\n      iszero\n      tag_265\n      jumpi\n        /* \"#utility.yul\":2169:2248   */\n      tag_266\n      tag_196\n      jump\t// in\n    tag_266:\n        /* \"#utility.yul\":2131:2250   */\n    tag_265:\n        /* \"#utility.yul\":2289:2290   */\n      0x00\n        /* \"#utility.yul\":2314:2367   */\n      tag_267\n        /* \"#utility.yul\":2359:2366   */\n      dup5\n        /* \"#utility.yul\":2350:2356   */\n      dup3\n        /* \"#utility.yul\":2339:2348   */\n      dup6\n        /* \"#utility.yul\":2335:2357   */\n      add\n        /* \"#utility.yul\":2314:2367   */\n      tag_199\n      jump\t// in\n    tag_267:\n        /* \"#utility.yul\":2304:2367   */\n      swap2\n      pop\n        /* \"#utility.yul\":2260:2377   */\n      pop\n        /* \"#utility.yul\":2055:2384   */\n      swap3\n      swap2\n      pop\n      pop\n      jump\t// out\n        /* \"#utility.yul\":2390:2489   */\n    tag_200:\n        /* \"#utility.yul\":2442:2448   */\n      0x00\n        /* \"#utility.yul\":2476:2481   */\n      dup2\n        /* \"#utility.yul\":2470:2482   */\n      mload\n        /* \"#utility.yul\":2460:2482   */\n      swap1\n      pop\n        /* \"#utility.yul\":2390:2489   */\n      swap2\n      swap1\n      pop\n      jump\t// out\n        /* \"#utility.yul\":2495:2664   */\n    tag_201:\n        /* \"#utility.yul\":2579:2590   */\n      0x00\n        /* \"#utility.yul\":2613:2619   */\n      dup3\n        /* \"#utility.yul\":2608:2611   */\n      dup3\n        /* \"#utility.yul\":2601:2620   */\n      mstore\n        /* \"#utility.yul\":2653:2657   */\n      0x20\n        /* \"#utility.yul\":2648:2651   */\n      dup3\n        /* \"#utility.yul\":2644:2658   */\n      add\n        /* \"#utility.yul\":2629:2658   */\n      swap1\n      pop\n        /* \"#utility.yul\":2495:2664   */\n      swap3\n      swap2\n      pop\n      pop\n      jump\t// out\n        /* \"#utility.yul\":2670:2916   */\n    tag_202:\n        /* \"#utility.yul\":2751:2752   */\n      0x00\n        /* \"#utility.yul\":2761:2874   */\n    tag_271:\n        /* \"#utility.yul\":2775:2781   */\n      dup4\n        /* \"#utility.yul\":2772:2773   */\n      dup2\n        /* \"#utility.yul\":2769:2782   */\n      lt\n        /* \"#utility.yul\":2761:2874   */\n      iszero\n      tag_273\n      jumpi\n        /* \"#utility.yul\":2860:2861   */\n      dup1\n        /* \"#utility.yul\":2855:2858   */\n      dup3\n        /* \"#utility.yul\":2851:2862   */\n      add\n        /* \"#utility.yul\":2845:2863   */\n      mload\n        /* \"#utility.yul\":2841:2842   */\n      dup2\n        /* \"#utility.yul\":2836:2839   */\n      dup5\n        /* \"#utility.yul\":2832:2843   */\n      add\n        /* \"#utility.yul\":2825:2864   */\n      mstore\n        /* \"#utility.yul\":2797:2799   */\n      0x20\n        /* \"#utility.yul\":2794:2795   */\n      dup2\n        /* \"#utility.yul\":2790:2800   */\n      add\n        /* \"#utility.yul\":2785:2800   */\n      swap1\n      pop\n        /* \"#utility.yul\":2761:2874   */\n      jump(tag_271)\n    tag_273:\n        /* \"#utility.yul\":2908:2909   */\n      0x00\n        /* \"#utility.yul\":2899:2905   */\n      dup5\n        /* \"#utility.yul\":2894:2897   */\n      dup5\n        /* \"#utility.yul\":2890:2906   */\n      add\n        /* \"#utility.yul\":2883:2910   */\n      mstore\n        /* \"#utility.yul\":2732:2916   */\n      pop\n        /* \"#utility.yul\":2670:2916   */\n      pop\n      pop\n      pop\n      jump\t// out\n        /* \"#utility.yul\":2922:3024   */\n    tag_203:\n        /* \"#utility.yul\":2963:2969   */\n      0x00\n        /* \"#utility.yul\":3014:3016   */\n      0x1f\n        /* \"#utility.yul\":3010:3017   */\n      not\n        /* \"#utility.yul\":3005:3007   */\n      0x1f\n        /* \"#utility.yul\":2998:3003   */\n      dup4\n        /* \"#utility.yul\":2994:3008   */\n      add\n        /* \"#utility.yul\":2990:3018   */\n      and\n        /* \"#utility.yul\":2980:3018   */\n      swap1\n      pop\n        /* \"#utility.yul\":2922:3024   */\n      swap2\n      swap1\n      pop\n      jump\t// out\n        /* \"#utility.yul\":3030:3407   */\n    tag_204:\n        /* \"#utility.yul\":3118:3121   */\n      0x00\n        /* \"#utility.yul\":3146:3185   */\n      tag_276\n        /* \"#utility.yul\":3179:3184   */\n      dup3\n        /* \"#utility.yul\":3146:3185   */\n      tag_200\n      jump\t// in\n    tag_276:\n        /* \"#utility.yul\":3201:3272   */\n      tag_277\n        /* \"#utility.yul\":3265:3271   */\n      dup2\n        /* \"#utility.yul\":3260:3263   */\n      dup6\n        /* \"#utility.yul\":3201:3272   */\n      tag_201\n      jump\t// in\n    tag_277:\n        /* \"#utility.yul\":3194:3272   */\n      swap4\n      pop\n        /* \"#utility.yul\":3281:3346   */\n      tag_278\n        /* \"#utility.yul\":3339:3345   */\n      dup2\n        /* \"#utility.yul\":3334:3337   */\n      dup6\n        /* \"#utility.yul\":3327:3331   */\n      0x20\n        /* \"#utility.yul\":3320:3325   */\n      dup7\n        /* \"#utility.yul\":3316:3332   */\n      add\n        /* \"#utility.yul\":3281:3346   */\n      tag_202\n      jump\t// in\n    tag_278:\n        /* \"#utility.yul\":3371:3400   */\n      tag_279\n        /* \"#utility.yul\":3393:3399   */\n      dup2\n        /* \"#utility.yul\":3371:3400   */\n      tag_203\n      jump\t// in\n    tag_279:\n        /* \"#utility.yul\":3366:3369   */\n      dup5\n        /* \"#utility.yul\":3362:3401   */\n      add\n        /* \"#utility.yul\":3355:3401   */\n      swap2\n      pop\n        /* \"#utility.yul\":3122:3407   */\n      pop\n        /* \"#utility.yul\":3030:3407   */\n      swap3\n      swap2\n      pop\n      pop\n      jump\t// out\n        /* \"#utility.yul\":3413:3836   */\n    tag_44:\n        /* \"#utility.yul\":3554:3558   */\n      0x00\n        /* \"#utility.yul\":3592:3594   */\n      0x40\n        /* \"#utility.yul\":3581:3590   */\n      dup3\n        /* \"#utility.yul\":3577:3595   */\n      add\n        /* \"#utility.yul\":3569:3595   */\n      swap1\n      pop\n        /* \"#utility.yul\":3605:3676   */\n      tag_281\n        /* \"#utility.yul\":3673:3674   */\n      0x00\n        /* \"#utility.yul\":3662:3671   */\n      dup4\n        /* \"#utility.yul\":3658:3675   */\n      add\n        /* \"#utility.yul\":3649:3655   */\n      dup6\n        /* \"#utility.yul\":3605:3676   */\n      tag_189\n      jump\t// in\n    tag_281:\n        /* \"#utility.yul\":3723:3732   */\n      dup2\n        /* \"#utility.yul\":3717:3721   */\n      dup2\n        /* \"#utility.yul\":3713:3733   */\n      sub\n        /* \"#utility.yul\":3708:3710   */\n      0x20\n        /* \"#utility.yul\":3697:3706   */\n      dup4\n        /* \"#utility.yul\":3693:3711   */\n      add\n        /* \"#utility.yul\":3686:3734   */\n      mstore\n        /* \"#utility.yul\":3751:3829   */\n      tag_282\n        /* \"#utility.yul\":3824:3828   */\n      dup2\n        /* \"#utility.yul\":3815:3821   */\n      dup5\n        /* \"#utility.yul\":3751:3829   */\n      tag_204\n      jump\t// in\n    tag_282:\n        /* \"#utility.yul\":3743:3829   */\n      swap1\n      pop\n        /* \"#utility.yul\":3413:3836   */\n      swap4\n      swap3\n      pop\n      pop\n      pop\n      jump\t// out\n        /* \"#utility.yul\":3842:4155   */\n    tag_52:\n        /* \"#utility.yul\":3955:3959   */\n      0x00\n        /* \"#utility.yul\":3993:3995   */\n      0x20\n        /* \"#utility.yul\":3982:3991   */\n      dup3\n        /* \"#utility.yul\":3978:3996   */\n      add\n        /* \"#utility.yul\":3970:3996   */\n      swap1\n      pop\n        /* \"#utility.yul\":4042:4051   */\n      dup2\n        /* \"#utility.yul\":4036:4040   */\n      dup2\n        /* \"#utility.yul\":4032:4052   */\n      sub\n        /* \"#utility.yul\":4028:4029   */\n      0x00\n        /* \"#utility.yul\":4017:4026   */\n      dup4\n        /* \"#utility.yul\":4013:4030   */\n      add\n        /* \"#utility.yul\":4006:4053   */\n      mstore\n        /* \"#utility.yul\":4070:4148   */\n      tag_284\n        /* \"#utility.yul\":4143:4147   */\n      dup2\n        /* \"#utility.yul\":4134:4140   */\n      dup5\n        /* \"#utility.yul\":4070:4148   */\n      tag_204\n      jump\t// in\n    tag_284:\n        /* \"#utility.yul\":4062:4148   */\n      swap1\n      pop\n        /* \"#utility.yul\":3842:4155   */\n      swap3\n      swap2\n      pop\n      pop\n      jump\t// out\n        /* \"#utility.yul\":4161:4238   */\n    tag_205:\n        /* \"#utility.yul\":4198:4205   */\n      0x00\n        /* \"#utility.yul\":4227:4232   */\n      dup2\n        /* \"#utility.yul\":4216:4232   */\n      swap1\n      pop\n        /* \"#utility.yul\":4161:4238   */\n      swap2\n      swap1\n      pop\n      jump\t// out\n        /* \"#utility.yul\":4244:4362   */\n    tag_206:\n        /* \"#utility.yul\":4331:4355   */\n      tag_287\n        /* \"#utility.yul\":4349:4354   */\n      dup2\n        /* \"#utility.yul\":4331:4355   */\n      tag_205\n      jump\t// in\n    tag_287:\n        /* \"#utility.yul\":4326:4329   */\n      dup3\n        /* \"#utility.yul\":4319:4356   */\n      mstore\n        /* \"#utility.yul\":4244:4362   */\n      pop\n      pop\n      jump\t// out\n        /* \"#utility.yul\":4368:4590   */\n    tag_59:\n        /* \"#utility.yul\":4461:4465   */\n      0x00\n        /* \"#utility.yul\":4499:4501   */\n      0x20\n        /* \"#utility.yul\":4488:4497   */\n      dup3\n        /* \"#utility.yul\":4484:4502   */\n      add\n        /* \"#utility.yul\":4476:4502   */\n      swap1\n      pop\n        /* \"#utility.yul\":4512:4583   */\n      tag_289\n        /* \"#utility.yul\":4580:4581   */\n      0x00\n        /* \"#utility.yul\":4569:4578   */\n      dup4\n        /* \"#utility.yul\":4565:4582   */\n      add\n        /* \"#utility.yul\":4556:4562   */\n      dup5\n        /* \"#utility.yul\":4512:4583   */\n      tag_206\n      jump\t// in\n    tag_289:\n        /* \"#utility.yul\":4368:4590   */\n      swap3\n      swap2\n      pop\n      pop\n      jump\t// out\n        /* \"#utility.yul\":4596:4718   */\n    tag_207:\n        /* \"#utility.yul\":4669:4693   */\n      tag_291\n        /* \"#utility.yul\":4687:4692   */\n      dup2\n        /* \"#utility.yul\":4669:4693   */\n      tag_193\n      jump\t// in\n    tag_291:\n        /* \"#utility.yul\":4662:4667   */\n      dup2\n        /* \"#utility.yul\":4659:4694   */\n      eq\n        /* \"#utility.yul\":4649:4712   */\n      tag_292\n      jumpi\n        /* \"#utility.yul\":4708:4709   */\n      0x00\n        /* \"#utility.yul\":4705:4706   */\n      dup1\n        /* \"#utility.yul\":4698:4710   */\n      revert\n        /* \"#utility.yul\":4649:4712   */\n    tag_292:\n        /* \"#utility.yul\":4596:4718   */\n      pop\n      jump\t// out\n        /* \"#utility.yul\":4724:4863   */\n    tag_208:\n        /* \"#utility.yul\":4770:4775   */\n      0x00\n        /* \"#utility.yul\":4808:4814   */\n      dup2\n        /* \"#utility.yul\":4795:4815   */\n      calldataload\n        /* \"#utility.yul\":4786:4815   */\n      swap1\n      pop\n        /* \"#utility.yul\":4824:4857   */\n      tag_294\n        /* \"#utility.yul\":4851:4856   */\n      dup2\n        /* \"#utility.yul\":4824:4857   */\n      tag_207\n      jump\t// in\n    tag_294:\n        /* \"#utility.yul\":4724:4863   */\n      swap3\n      swap2\n      pop\n      pop\n      jump\t// out\n        /* \"#utility.yul\":4869:5343   */\n    tag_74:\n        /* \"#utility.yul\":4937:4943   */\n      0x00\n        /* \"#utility.yul\":4945:4951   */\n      dup1\n        /* \"#utility.yul\":4994:4996   */\n      0x40\n        /* \"#utility.yul\":4982:4991   */\n      dup4\n        /* \"#utility.yul\":4973:4980   */\n      dup6\n        /* \"#utility.yul\":4969:4992   */\n      sub\n        /* \"#utility.yul\":4965:4997   */\n      slt\n        /* \"#utility.yul\":4962:5081   */\n      iszero\n      tag_296\n      jumpi\n        /* \"#utility.yul\":5000:5079   */\n      tag_297\n      tag_196\n      jump\t// in\n    tag_297:\n        /* \"#utility.yul\":4962:5081   */\n    tag_296:\n        /* \"#utility.yul\":5120:5121   */\n      0x00\n        /* \"#utility.yul\":5145:5198   */\n      tag_298\n        /* \"#utility.yul\":5190:5197   */\n      dup6\n        /* \"#utility.yul\":5181:5187   */\n      dup3\n        /* \"#utility.yul\":5170:5179   */\n      dup7\n        /* \"#utility.yul\":5166:5188   */\n      add\n        /* \"#utility.yul\":5145:5198   */\n      tag_208\n      jump\t// in\n    tag_298:\n        /* \"#utility.yul\":5135:5198   */\n      swap3\n      pop\n        /* \"#utility.yul\":5091:5208   */\n      pop\n        /* \"#utility.yul\":5247:5249   */\n      0x20\n        /* \"#utility.yul\":5273:5326   */\n      tag_299\n        /* \"#utility.yul\":5318:5325   */\n      dup6\n        /* \"#utility.yul\":5309:5315   */\n      dup3\n        /* \"#utility.yul\":5298:5307   */\n      dup7\n        /* \"#utility.yul\":5294:5316   */\n      add\n        /* \"#utility.yul\":5273:5326   */\n      tag_199\n      jump\t// in\n    tag_299:\n        /* \"#utility.yul\":5263:5326   */\n      swap2\n      pop\n        /* \"#utility.yul\":5218:5336   */\n      pop\n        /* \"#utility.yul\":4869:5343   */\n      swap3\n      pop\n      swap3\n      swap1\n      pop\n      jump\t// out\n        /* \"#utility.yul\":5349:5439   */\n    tag_209:\n        /* \"#utility.yul\":5383:5390   */\n      0x00\n        /* \"#utility.yul\":5426:5431   */\n      dup2\n        /* \"#utility.yul\":5419:5432   */\n      iszero\n        /* \"#utility.yul\":5412:5433   */\n      iszero\n        /* \"#utility.yul\":5401:5433   */\n      swap1\n      pop\n        /* \"#utility.yul\":5349:5439   */\n      swap2\n      swap1\n      pop\n      jump\t// out\n        /* \"#utility.yul\":5445:5554   */\n    tag_210:\n        /* \"#utility.yul\":5526:5547   */\n      tag_302\n        /* \"#utility.yul\":5541:5546   */\n      dup2\n        /* \"#utility.yul\":5526:5547   */\n      tag_209\n      jump\t// in\n    tag_302:\n        /* \"#utility.yul\":5521:5524   */\n      dup3\n        /* \"#utility.yul\":5514:5548   */\n      mstore\n        /* \"#utility.yul\":5445:5554   */\n      pop\n      pop\n      jump\t// out\n        /* \"#utility.yul\":5560:5770   */\n    tag_83:\n        /* \"#utility.yul\":5647:5651   */\n      0x00\n        /* \"#utility.yul\":5685:5687   */\n      0x20\n        /* \"#utility.yul\":5674:5683   */\n      dup3\n        /* \"#utility.yul\":5670:5688   */\n      add\n        /* \"#utility.yul\":5662:5688   */\n      swap1\n      pop\n        /* \"#utility.yul\":5698:5763   */\n      tag_304\n        /* \"#utility.yul\":5760:5761   */\n      0x00\n        /* \"#utility.yul\":5749:5758   */\n      dup4\n        /* \"#utility.yul\":5745:5762   */\n      add\n        /* \"#utility.yul\":5736:5742   */\n      dup5\n        /* \"#utility.yul\":5698:5763   */\n      tag_210\n      jump\t// in\n    tag_304:\n        /* \"#utility.yul\":5560:5770   */\n      swap3\n      swap2\n      pop\n      pop\n      jump\t// out\n        /* \"#utility.yul\":5776:5893   */\n    tag_211:\n        /* \"#utility.yul\":5885:5886   */\n      0x00\n        /* \"#utility.yul\":5882:5883   */\n      dup1\n        /* \"#utility.yul\":5875:5887   */\n      revert\n        /* \"#utility.yul\":5899:6016   */\n    tag_212:\n        /* \"#utility.yul\":6008:6009   */\n      0x00\n        /* \"#utility.yul\":6005:6006   */\n      dup1\n        /* \"#utility.yul\":5998:6010   */\n      revert\n        /* \"#utility.yul\":6022:6202   */\n    tag_213:\n        /* \"#utility.yul\":6070:6147   */\n      0x4e487b7100000000000000000000000000000000000000000000000000000000\n        /* \"#utility.yul\":6067:6068   */\n      0x00\n        /* \"#utility.yul\":6060:6148   */\n      mstore\n        /* \"#utility.yul\":6167:6171   */\n      0x41\n        /* \"#utility.yul\":6164:6165   */\n      0x04\n        /* \"#utility.yul\":6157:6172   */\n      mstore\n        /* \"#utility.yul\":6191:6195   */\n      0x24\n        /* \"#utility.yul\":6188:6189   */\n      0x00\n        /* \"#utility.yul\":6181:6196   */\n      revert\n        /* \"#utility.yul\":6208:6489   */\n    tag_214:\n        /* \"#utility.yul\":6291:6318   */\n      tag_309\n        /* \"#utility.yul\":6313:6317   */\n      dup3\n        /* \"#utility.yul\":6291:6318   */\n      tag_203\n      jump\t// in\n    tag_309:\n        /* \"#utility.yul\":6283:6289   */\n      dup2\n        /* \"#utility.yul\":6279:6319   */\n      add\n        /* \"#utility.yul\":6421:6427   */\n      dup2\n        /* \"#utility.yul\":6409:6419   */\n      dup2\n        /* \"#utility.yul\":6406:6428   */\n      lt\n        /* \"#utility.yul\":6385:6403   */\n      0xffffffffffffffff\n        /* \"#utility.yul\":6373:6383   */\n      dup3\n        /* \"#utility.yul\":6370:6404   */\n      gt\n        /* \"#utility.yul\":6367:6429   */\n      or\n        /* \"#utility.yul\":6364:6452   */\n      iszero\n      tag_310\n      jumpi\n        /* \"#utility.yul\":6432:6450   */\n      tag_311\n      tag_213\n      jump\t// in\n    tag_311:\n        /* \"#utility.yul\":6364:6452   */\n    tag_310:\n        /* \"#utility.yul\":6472:6482   */\n      dup1\n        /* \"#utility.yul\":6468:6470   */\n      0x40\n        /* \"#utility.yul\":6461:6483   */\n      mstore\n        /* \"#utility.yul\":6251:6489   */\n      pop\n        /* \"#utility.yul\":6208:6489   */\n      pop\n      pop\n      jump\t// out\n        /* \"#utility.yul\":6495:6624   */\n    tag_215:\n        /* \"#utility.yul\":6529:6535   */\n      0x00\n        /* \"#utility.yul\":6556:6576   */\n      tag_313\n      tag_195\n      jump\t// in\n    tag_313:\n        /* \"#utility.yul\":6546:6576   */\n      swap1\n      pop\n        /* \"#utility.yul\":6585:6618   */\n      tag_314\n        /* \"#utility.yul\":6613:6617   */\n      dup3\n        /* \"#utility.yul\":6605:6611   */\n      dup3\n        /* \"#utility.yul\":6585:6618   */\n      tag_214\n      jump\t// in\n    tag_314:\n        /* \"#utility.yul\":6495:6624   */\n      swap2\n      swap1\n      pop\n      jump\t// out\n        /* \"#utility.yul\":6630:6938   */\n    tag_216:\n        /* \"#utility.yul\":6692:6696   */\n      0x00\n        /* \"#utility.yul\":6782:6800   */\n      0xffffffffffffffff\n        /* \"#utility.yul\":6774:6780   */\n      dup3\n        /* \"#utility.yul\":6771:6801   */\n      gt\n        /* \"#utility.yul\":6768:6824   */\n      iszero\n      tag_316\n      jumpi\n        /* \"#utility.yul\":6804:6822   */\n      tag_317\n      tag_213\n      jump\t// in\n    tag_317:\n        /* \"#utility.yul\":6768:6824   */\n    tag_316:\n        /* \"#utility.yul\":6842:6871   */\n      tag_318\n        /* \"#utility.yul\":6864:6870   */\n      dup3\n        /* \"#utility.yul\":6842:6871   */\n      tag_203\n      jump\t// in\n    tag_318:\n        /* \"#utility.yul\":6834:6871   */\n      swap1\n      pop\n        /* \"#utility.yul\":6926:6930   */\n      0x20\n        /* \"#utility.yul\":6920:6924   */\n      dup2\n        /* \"#utility.yul\":6916:6931   */\n      add\n        /* \"#utility.yul\":6908:6931   */\n      swap1\n      pop\n        /* \"#utility.yul\":6630:6938   */\n      swap2\n      swap1\n      pop\n      jump\t// out\n        /* \"#utility.yul\":6944:7090   */\n    tag_217:\n        /* \"#utility.yul\":7041:7047   */\n      dup3\n        /* \"#utility.yul\":7036:7039   */\n      dup2\n        /* \"#utility.yul\":7031:7034   */\n      dup4\n        /* \"#utility.yul\":7018:7048   */\n      calldatacopy\n        /* \"#utility.yul\":7082:7083   */\n      0x00\n        /* \"#utility.yul\":7073:7079   */\n      dup4\n        /* \"#utility.yul\":7068:7071   */\n      dup4\n        /* \"#utility.yul\":7064:7080   */\n      add\n        /* \"#utility.yul\":7057:7084   */\n      mstore\n        /* \"#utility.yul\":6944:7090   */\n      pop\n      pop\n      pop\n      jump\t// out\n        /* \"#utility.yul\":7096:7521   */\n    tag_218:\n        /* \"#utility.yul\":7174:7179   */\n      0x00\n        /* \"#utility.yul\":7199:7265   */\n      tag_321\n        /* \"#utility.yul\":7215:7264   */\n      tag_322\n        /* \"#utility.yul\":7257:7263   */\n      dup5\n        /* \"#utility.yul\":7215:7264   */\n      tag_216\n      jump\t// in\n    tag_322:\n        /* \"#utility.yul\":7199:7265   */\n      tag_215\n      jump\t// in\n    tag_321:\n        /* \"#utility.yul\":7190:7265   */\n      swap1\n      pop\n        /* \"#utility.yul\":7288:7294   */\n      dup3\n        /* \"#utility.yul\":7281:7286   */\n      dup2\n        /* \"#utility.yul\":7274:7295   */\n      mstore\n        /* \"#utility.yul\":7326:7330   */\n      0x20\n        /* \"#utility.yul\":7319:7324   */\n      dup2\n        /* \"#utility.yul\":7315:7331   */\n      add\n        /* \"#utility.yul\":7364:7367   */\n      dup5\n        /* \"#utility.yul\":7355:7361   */\n      dup5\n        /* \"#utility.yul\":7350:7353   */\n      dup5\n        /* \"#utility.yul\":7346:7362   */\n      add\n        /* \"#utility.yul\":7343:7368   */\n      gt\n        /* \"#utility.yul\":7340:7452   */\n      iszero\n      tag_323\n      jumpi\n        /* \"#utility.yul\":7371:7450   */\n      tag_324\n      tag_212\n      jump\t// in\n    tag_324:\n        /* \"#utility.yul\":7340:7452   */\n    tag_323:\n        /* \"#utility.yul\":7461:7515   */\n      tag_325\n        /* \"#utility.yul\":7508:7514   */\n      dup5\n        /* \"#utility.yul\":7503:7506   */\n      dup3\n        /* \"#utility.yul\":7498:7501   */\n      dup6\n        /* \"#utility.yul\":7461:7515   */\n      tag_217\n      jump\t// in\n    tag_325:\n        /* \"#utility.yul\":7180:7521   */\n      pop\n        /* \"#utility.yul\":7096:7521   */\n      swap4\n      swap3\n      pop\n      pop\n      pop\n      jump\t// out\n        /* \"#utility.yul\":7541:7881   */\n    tag_219:\n        /* \"#utility.yul\":7597:7602   */\n      0x00\n        /* \"#utility.yul\":7646:7649   */\n      dup3\n        /* \"#utility.yul\":7639:7643   */\n      0x1f\n        /* \"#utility.yul\":7631:7637   */\n      dup4\n        /* \"#utility.yul\":7627:7644   */\n      add\n        /* \"#utility.yul\":7623:7650   */\n      slt\n        /* \"#utility.yul\":7613:7735   */\n      tag_327\n      jumpi\n        /* \"#utility.yul\":7654:7733   */\n      tag_328\n      tag_211\n      jump\t// in\n    tag_328:\n        /* \"#utility.yul\":7613:7735   */\n    tag_327:\n        /* \"#utility.yul\":7771:7777   */\n      dup2\n        /* \"#utility.yul\":7758:7778   */\n      calldataload\n        /* \"#utility.yul\":7796:7875   */\n      tag_329\n        /* \"#utility.yul\":7871:7874   */\n      dup5\n        /* \"#utility.yul\":7863:7869   */\n      dup3\n        /* \"#utility.yul\":7856:7860   */\n      0x20\n        /* \"#utility.yul\":7848:7854   */\n      dup7\n        /* \"#utility.yul\":7844:7861   */\n      add\n        /* \"#utility.yul\":7796:7875   */\n      tag_218\n      jump\t// in\n    tag_329:\n        /* \"#utility.yul\":7787:7875   */\n      swap2\n      pop\n        /* \"#utility.yul\":7603:7881   */\n      pop\n        /* \"#utility.yul\":7541:7881   */\n      swap3\n      swap2\n      pop\n      pop\n      jump\t// out\n        /* \"#utility.yul\":7887:8686   */\n    tag_86:\n        /* \"#utility.yul\":7974:7980   */\n      0x00\n        /* \"#utility.yul\":7982:7988   */\n      dup1\n        /* \"#utility.yul\":7990:7996   */\n      0x00\n        /* \"#utility.yul\":8039:8041   */\n      0x60\n        /* \"#utility.yul\":8027:8036   */\n      dup5\n        /* \"#utility.yul\":8018:8025   */\n      dup7\n        /* \"#utility.yul\":8014:8037   */\n      sub\n        /* \"#utility.yul\":8010:8042   */\n      slt\n        /* \"#utility.yul\":8007:8126   */\n      iszero\n      tag_331\n      jumpi\n        /* \"#utility.yul\":8045:8124   */\n      tag_332\n      tag_196\n      jump\t// in\n    tag_332:\n        /* \"#utility.yul\":8007:8126   */\n    tag_331:\n        /* \"#utility.yul\":8165:8166   */\n      0x00\n        /* \"#utility.yul\":8190:8243   */\n      tag_333\n        /* \"#utility.yul\":8235:8242   */\n      dup7\n        /* \"#utility.yul\":8226:8232   */\n      dup3\n        /* \"#utility.yul\":8215:8224   */\n      dup8\n        /* \"#utility.yul\":8211:8233   */\n      add\n        /* \"#utility.yul\":8190:8243   */\n      tag_199\n      jump\t// in\n    tag_333:\n        /* \"#utility.yul\":8180:8243   */\n      swap4\n      pop\n        /* \"#utility.yul\":8136:8253   */\n      pop\n        /* \"#utility.yul\":8292:8294   */\n      0x20\n        /* \"#utility.yul\":8318:8371   */\n      tag_334\n        /* \"#utility.yul\":8363:8370   */\n      dup7\n        /* \"#utility.yul\":8354:8360   */\n      dup3\n        /* \"#utility.yul\":8343:8352   */\n      dup8\n        /* \"#utility.yul\":8339:8361   */\n      add\n        /* \"#utility.yul\":8318:8371   */\n      tag_199\n      jump\t// in\n    tag_334:\n        /* \"#utility.yul\":8308:8371   */\n      swap3\n      pop\n        /* \"#utility.yul\":8263:8381   */\n      pop\n        /* \"#utility.yul\":8448:8450   */\n      0x40\n        /* \"#utility.yul\":8437:8446   */\n      dup5\n        /* \"#utility.yul\":8433:8451   */\n      add\n        /* \"#utility.yul\":8420:8452   */\n      calldataload\n        /* \"#utility.yul\":8479:8497   */\n      0xffffffffffffffff\n        /* \"#utility.yul\":8471:8477   */\n      dup2\n        /* \"#utility.yul\":8468:8498   */\n      gt\n        /* \"#utility.yul\":8465:8582   */\n      iszero\n      tag_335\n      jumpi\n        /* \"#utility.yul\":8501:8580   */\n      tag_336\n      tag_197\n      jump\t// in\n    tag_336:\n        /* \"#utility.yul\":8465:8582   */\n    tag_335:\n        /* \"#utility.yul\":8606:8669   */\n      tag_337\n        /* \"#utility.yul\":8661:8668   */\n      dup7\n        /* \"#utility.yul\":8652:8658   */\n      dup3\n        /* \"#utility.yul\":8641:8650   */\n      dup8\n        /* \"#utility.yul\":8637:8659   */\n      add\n        /* \"#utility.yul\":8606:8669   */\n      tag_219\n      jump\t// in\n    tag_337:\n        /* \"#utility.yul\":8596:8669   */\n      swap2\n      pop\n        /* \"#utility.yul\":8391:8679   */\n      pop\n        /* \"#utility.yul\":7887:8686   */\n      swap3\n      pop\n      swap3\n      pop\n      swap3\n      jump\t// out\n        /* \"#utility.yul\":8692:9201   */\n    tag_93:\n        /* \"#utility.yul\":8761:8767   */\n      0x00\n        /* \"#utility.yul\":8810:8812   */\n      0x20\n        /* \"#utility.yul\":8798:8807   */\n      dup3\n        /* \"#utility.yul\":8789:8796   */\n      dup5\n        /* \"#utility.yul\":8785:8808   */\n      sub\n        /* \"#utility.yul\":8781:8813   */\n      slt\n        /* \"#utility.yul\":8778:8897   */\n      iszero\n      tag_339\n      jumpi\n        /* \"#utility.yul\":8816:8895   */\n      tag_340\n      tag_196\n      jump\t// in\n    tag_340:\n        /* \"#utility.yul\":8778:8897   */\n    tag_339:\n        /* \"#utility.yul\":8964:8965   */\n      0x00\n        /* \"#utility.yul\":8953:8962   */\n      dup3\n        /* \"#utility.yul\":8949:8966   */\n      add\n        /* \"#utility.yul\":8936:8967   */\n      calldataload\n        /* \"#utility.yul\":8994:9012   */\n      0xffffffffffffffff\n        /* \"#utility.yul\":8986:8992   */\n      dup2\n        /* \"#utility.yul\":8983:9013   */\n      gt\n        /* \"#utility.yul\":8980:9097   */\n      iszero\n      tag_341\n      jumpi\n        /* \"#utility.yul\":9016:9095   */\n      tag_342\n      tag_197\n      jump\t// in\n    tag_342:\n        /* \"#utility.yul\":8980:9097   */\n    tag_341:\n        /* \"#utility.yul\":9121:9184   */\n      tag_343\n        /* \"#utility.yul\":9176:9183   */\n      dup5\n        /* \"#utility.yul\":9167:9173   */\n      dup3\n        /* \"#utility.yul\":9156:9165   */\n      dup6\n        /* \"#utility.yul\":9152:9174   */\n      add\n        /* \"#utility.yul\":9121:9184   */\n      tag_219\n      jump\t// in\n    tag_343:\n        /* \"#utility.yul\":9111:9184   */\n      swap2\n      pop\n        /* \"#utility.yul\":8907:9194   */\n      pop\n        /* \"#utility.yul\":8692:9201   */\n      swap3\n      swap2\n      pop\n      pop\n      jump\t// out\n        /* \"#utility.yul\":9207:9681   */\n    tag_104:\n        /* \"#utility.yul\":9275:9281   */\n      0x00\n        /* \"#utility.yul\":9283:9289   */\n      dup1\n        /* \"#utility.yul\":9332:9334   */\n      0x40\n        /* \"#utility.yul\":9320:9329   */\n      dup4\n        /* \"#utility.yul\":9311:9318   */\n      dup6\n        /* \"#utility.yul\":9307:9330   */\n      sub\n        /* \"#utility.yul\":9303:9335   */\n      slt\n        /* \"#utility.yul\":9300:9419   */\n      iszero\n      tag_345\n      jumpi\n        /* \"#utility.yul\":9338:9417   */\n      tag_346\n      tag_196\n      jump\t// in\n    tag_346:\n        /* \"#utility.yul\":9300:9419   */\n    tag_345:\n        /* \"#utility.yul\":9458:9459   */\n      0x00\n        /* \"#utility.yul\":9483:9536   */\n      tag_347\n        /* \"#utility.yul\":9528:9535   */\n      dup6\n        /* \"#utility.yul\":9519:9525   */\n      dup3\n        /* \"#utility.yul\":9508:9517   */\n      dup7\n        /* \"#utility.yul\":9504:9526   */\n      add\n        /* \"#utility.yul\":9483:9536   */\n      tag_199\n      jump\t// in\n    tag_347:\n        /* \"#utility.yul\":9473:9536   */\n      swap3\n      pop\n        /* \"#utility.yul\":9429:9546   */\n      pop\n        /* \"#utility.yul\":9585:9587   */\n      0x20\n        /* \"#utility.yul\":9611:9664   */\n      tag_348\n        /* \"#utility.yul\":9656:9663   */\n      dup6\n        /* \"#utility.yul\":9647:9653   */\n      dup3\n        /* \"#utility.yul\":9636:9645   */\n      dup7\n        /* \"#utility.yul\":9632:9654   */\n      add\n        /* \"#utility.yul\":9611:9664   */\n      tag_199\n      jump\t// in\n    tag_348:\n        /* \"#utility.yul\":9601:9664   */\n      swap2\n      pop\n        /* \"#utility.yul\":9556:9674   */\n      pop\n        /* \"#utility.yul\":9207:9681   */\n      swap3\n      pop\n      swap3\n      swap1\n      pop\n      jump\t// out\n        /* \"#utility.yul\":9687:9867   */\n    tag_220:\n        /* \"#utility.yul\":9735:9812   */\n      0x4e487b7100000000000000000000000000000000000000000000000000000000\n        /* \"#utility.yul\":9732:9733   */\n      0x00\n        /* \"#utility.yul\":9725:9813   */\n      mstore\n        /* \"#utility.yul\":9832:9836   */\n      0x22\n        /* \"#utility.yul\":9829:9830   */\n      0x04\n        /* \"#utility.yul\":9822:9837   */\n      mstore\n        /* \"#utility.yul\":9856:9860   */\n      0x24\n        /* \"#utility.yul\":9853:9854   */\n      0x00\n        /* \"#utility.yul\":9846:9861   */\n      revert\n        /* \"#utility.yul\":9873:10193   */\n    tag_112:\n        /* \"#utility.yul\":9917:9923   */\n      0x00\n        /* \"#utility.yul\":9954:9955   */\n      0x02\n        /* \"#utility.yul\":9948:9952   */\n      dup3\n        /* \"#utility.yul\":9944:9956   */\n      div\n        /* \"#utility.yul\":9934:9956   */\n      swap1\n      pop\n        /* \"#utility.yul\":10001:10002   */\n      0x01\n        /* \"#utility.yul\":9995:9999   */\n      dup3\n        /* \"#utility.yul\":9991:10003   */\n      and\n        /* \"#utility.yul\":10022:10040   */\n      dup1\n        /* \"#utility.yul\":10012:10093   */\n      tag_351\n      jumpi\n        /* \"#utility.yul\":10078:10082   */\n      0x7f\n        /* \"#utility.yul\":10070:10076   */\n      dup3\n        /* \"#utility.yul\":10066:10083   */\n      and\n        /* \"#utility.yul\":10056:10083   */\n      swap2\n      pop\n        /* \"#utility.yul\":10012:10093   */\n    tag_351:\n        /* \"#utility.yul\":10140:10142   */\n      0x20\n        /* \"#utility.yul\":10132:10138   */\n      dup3\n        /* \"#utility.yul\":10129:10143   */\n      lt\n        /* \"#utility.yul\":10109:10127   */\n      dup2\n        /* \"#utility.yul\":10106:10144   */\n      sub\n        /* \"#utility.yul\":10103:10187   */\n      tag_352\n      jumpi\n        /* \"#utility.yul\":10159:10177   */\n      tag_353\n      tag_220\n      jump\t// in\n    tag_353:\n        /* \"#utility.yul\":10103:10187   */\n    tag_352:\n        /* \"#utility.yul\":9924:10193   */\n      pop\n        /* \"#utility.yul\":9873:10193   */\n      swap2\n      swap1\n      pop\n      jump\t// out\n        /* \"#utility.yul\":10199:10340   */\n    tag_221:\n        /* \"#utility.yul\":10248:10252   */\n      0x00\n        /* \"#utility.yul\":10271:10274   */\n      dup2\n        /* \"#utility.yul\":10263:10274   */\n      swap1\n      pop\n        /* \"#utility.yul\":10294:10297   */\n      dup2\n        /* \"#utility.yul\":10291:10292   */\n      0x00\n        /* \"#utility.yul\":10284:10298   */\n      mstore\n        /* \"#utility.yul\":10328:10332   */\n      0x20\n        /* \"#utility.yul\":10325:10326   */\n      0x00\n        /* \"#utility.yul\":10315:10333   */\n      keccak256\n        /* \"#utility.yul\":10307:10333   */\n      swap1\n      pop\n        /* \"#utility.yul\":10199:10340   */\n      swap2\n      swap1\n      pop\n      jump\t// out\n        /* \"#utility.yul\":10346:10439   */\n    tag_222:\n        /* \"#utility.yul\":10383:10389   */\n      0x00\n        /* \"#utility.yul\":10430:10432   */\n      0x20\n        /* \"#utility.yul\":10425:10427   */\n      0x1f\n        /* \"#utility.yul\":10418:10423   */\n      dup4\n        /* \"#utility.yul\":10414:10428   */\n      add\n        /* \"#utility.yul\":10410:10433   */\n      div\n        /* \"#utility.yul\":10400:10433   */\n      swap1\n      pop\n        /* \"#utility.yul\":10346:10439   */\n      swap2\n      swap1\n      pop\n      jump\t// out\n        /* \"#utility.yul\":10445:10552   */\n    tag_223:\n        /* \"#utility.yul\":10489:10497   */\n      0x00\n        /* \"#utility.yul\":10539:10544   */\n      dup3\n        /* \"#utility.yul\":10533:10537   */\n      dup3\n        /* \"#utility.yul\":10529:10545   */\n      shl\n        /* \"#utility.yul\":10508:10545   */\n      swap1\n      pop\n        /* \"#utility.yul\":10445:10552   */\n      swap3\n      swap2\n      pop\n      pop\n      jump\t// out\n        /* \"#utility.yul\":10558:10951   */\n    tag_224:\n        /* \"#utility.yul\":10627:10633   */\n      0x00\n        /* \"#utility.yul\":10677:10678   */\n      0x08\n        /* \"#utility.yul\":10665:10675   */\n      dup4\n        /* \"#utility.yul\":10661:10679   */\n      mul\n        /* \"#utility.yul\":10700:10797   */\n      tag_358\n        /* \"#utility.yul\":10730:10796   */\n      0xffffffffffffffffffffffffffffffffffffffffffffffffffffffffffffffff\n        /* \"#utility.yul\":10719:10728   */\n      dup3\n        /* \"#utility.yul\":10700:10797   */\n      tag_223\n      jump\t// in\n    tag_358:\n        /* \"#utility.yul\":10818:10857   */\n      tag_359\n        /* \"#utility.yul\":10848:10856   */\n      dup7\n        /* \"#utility.yul\":10837:10846   */\n      dup4\n        /* \"#utility.yul\":10818:10857   */\n      tag_223\n      jump\t// in\n    tag_359:\n        /* \"#utility.yul\":10806:10857   */\n      swap6\n      pop\n        /* \"#utility.yul\":10890:10894   */\n      dup1\n        /* \"#utility.yul\":10886:10895   */\n      not\n        /* \"#utility.yul\":10879:10884   */\n      dup5\n        /* \"#utility.yul\":10875:10896   */\n      and\n        /* \"#utility.yul\":10866:10896   */\n      swap4\n      pop\n        /* \"#utility.yul\":10939:10943   */\n      dup1\n        /* \"#utility.yul\":10929:10937   */\n      dup7\n        /* \"#utility.yul\":10925:10944   */\n      and\n        /* \"#utility.yul\":10918:10923   */\n      dup5\n        /* \"#utility.yul\":10915:10945   */\n      or\n        /* \"#utility.yul\":10905:10945   */\n      swap3\n      pop\n        /* \"#utility.yul\":10634:10951   */\n      pop\n      pop\n        /* \"#utility.yul\":10558:10951   */\n      swap4\n      swap3\n      pop\n      pop\n      pop\n      jump\t// out\n        /* \"#utility.yul\":10957:11017   */\n    tag_225:\n        /* \"#utility.yul\":10985:10988   */\n      0x00\n        /* \"#utility.yul\":11006:11011   */\n      dup2\n        /* \"#utility.yul\":10999:11011   */\n      swap1\n      pop\n        /* \"#utility.yul\":10957:11017   */\n      swap2\n      swap1\n      pop\n      jump\t// out\n        /* \"#utility.yul\":11023:11165   */\n    tag_226:\n        /* \"#utility.yul\":11073:11082   */\n      0x00\n        /* \"#utility.yul\":11106:11159   */\n      tag_362\n        /* \"#utility.yul\":11124:11158   */\n      tag_363\n        /* \"#utility.yul\":11133:11157   */\n      tag_364\n        /* \"#utility.yul\":11151:11156   */\n      dup5\n        /* \"#utility.yul\":11133:11157   */\n      tag_188\n      jump\t// in\n    tag_364:\n        /* \"#utility.yul\":11124:11158   */\n      tag_225\n      jump\t// in\n    tag_363:\n        /* \"#utility.yul\":11106:11159   */\n      tag_188\n      jump\t// in\n    tag_362:\n        /* \"#utility.yul\":11093:11159   */\n      swap1\n      pop\n        /* \"#utility.yul\":11023:11165   */\n      swap2\n      swap1\n      pop\n      jump\t// out\n        /* \"#utility.yul\":11171:11246   */\n    tag_227:\n        /* \"#utility.yul\":11214:11217   */\n      0x00\n        /* \"#utility.yul\":11235:11240   */\n      dup2\n        /* \"#utility.yul\":11228:11240   */\n      swap1\n      pop\n        /* \"#utility.yul\":11171:11246   */\n      swap2\n      swap1\n      pop\n      jump\t// out\n        /* \"#utility.yul\":11252:11521   */\n    tag_228:\n        /* \"#utility.yul\":11362:11401   */\n      tag_367\n        /* \"#utility.yul\":11393:11400   */\n      dup4\n        /* \"#utility.yul\":11362:11401   */\n      tag_226\n      jump\t// in\n    tag_367:\n        /* \"#utility.yul\":11423:11514   */\n      tag_368\n        /* \"#utility.yul\":11472:11513   */\n      tag_369\n        /* \"#utility.yul\":11496:11512   */\n      dup3\n        /* \"#utility.yul\":11472:11513   */\n      tag_227\n      jump\t// in\n    tag_369:\n        /* \"#utility.yul\":11464:11470   */\n      dup5\n        /* \"#utility.yul\":11457:11461   */\n      dup5\n        /* \"#utility.yul\":11451:11462   */\n      sload\n        /* \"#utility.yul\":11423:11514   */\n      tag_224\n      jump\t// in\n    tag_368:\n        /* \"#utility.yul\":11417:11421   */\n      dup3\n        /* \"#utility.yul\":11410:11515   */\n      sstore\n        /* \"#utility.yul\":11328:11521   */\n      pop\n        /* \"#utility.yul\":11252:11521   */\n      pop\n      pop\n      pop\n      jump\t// out\n        /* \"#utility.yul\":11527:11600   */\n    tag_229:\n        /* \"#utility.yul\":11572:11575   */\n      0x00\n        /* \"#utility.yul\":11527:11600   */\n      swap1\n      jump\t// out\n        /* \"#utility.yul\":11606:11795   */\n    tag_230:\n        /* \"#utility.yul\":11683:11715   */\n      tag_372\n      tag_229\n      jump\t// in\n    tag_372:\n        /* \"#utility.yul\":11724:11789   */\n      tag_373\n        /* \"#utility.yul\":11782:11788   */\n      dup2\n        /* \"#utility.yul\":11774:11780   */\n      dup5\n        /* \"#utility.yul\":11768:11772   */\n      dup5\n        /* \"#utility.yul\":11724:11789   */\n      tag_228\n      jump\t// in\n    tag_373:\n        /* \"#utility.yul\":11659:11795   */\n      pop\n        /* \"#utility.yul\":11606:11795   */\n      pop\n      pop\n      jump\t// out\n        /* \"#utility.yul\":11801:11987   */\n    tag_231:\n        /* \"#utility.yul\":11861:11981   */\n    tag_375:\n        /* \"#utility.yul\":11878:11881   */\n      dup2\n        /* \"#utility.yul\":11871:11876   */\n      dup2\n        /* \"#utility.yul\":11868:11882   */\n      lt\n        /* \"#utility.yul\":11861:11981   */\n      iszero\n      tag_377\n      jumpi\n        /* \"#utility.yul\":11932:11971   */\n      tag_378\n        /* \"#utility.yul\":11969:11970   */\n      0x00\n        /* \"#utility.yul\":11962:11967   */\n      dup3\n        /* \"#utility.yul\":11932:11971   */\n      tag_230\n      jump\t// in\n    tag_378:\n        /* \"#utility.yul\":11905:11906   */\n      0x01\n        /* \"#utility.yul\":11898:11903   */\n      dup2\n        /* \"#utility.yul\":11894:11907   */\n      add\n        /* \"#utility.yul\":11885:11907   */\n      swap1\n      pop\n        /* \"#utility.yul\":11861:11981   */\n      jump(tag_375)\n    tag_377:\n        /* \"#utility.yul\":11801:11987   */\n      pop\n      pop\n      jump\t// out\n        /* \"#utility.yul\":11993:12536   */\n    tag_232:\n        /* \"#utility.yul\":12094:12096   */\n      0x1f\n        /* \"#utility.yul\":12089:12092   */\n      dup3\n        /* \"#utility.yul\":12086:12097   */\n      gt\n        /* \"#utility.yul\":12083:12529   */\n      iszero\n      tag_380\n      jumpi\n        /* \"#utility.yul\":12128:12166   */\n      tag_381\n        /* \"#utility.yul\":12160:12165   */\n      dup2\n        /* \"#utility.yul\":12128:12166   */\n      tag_221\n      jump\t// in\n    tag_381:\n        /* \"#utility.yul\":12212:12241   */\n      tag_382\n        /* \"#utility.yul\":12230:12240   */\n      dup5\n        /* \"#utility.yul\":12212:12241   */\n      tag_222\n      jump\t// in\n    tag_382:\n        /* \"#utility.yul\":12202:12210   */\n      dup2\n        /* \"#utility.yul\":12198:12242   */\n      add\n        /* \"#utility.yul\":12395:12397   */\n      0x20\n        /* \"#utility.yul\":12383:12393   */\n      dup6\n        /* \"#utility.yul\":12380:12398   */\n      lt\n        /* \"#utility.yul\":12377:12426   */\n      iszero\n      tag_383\n      jumpi\n        /* \"#utility.yul\":12416:12424   */\n      dup2\n        /* \"#utility.yul\":12401:12424   */\n      swap1\n      pop\n        /* \"#utility.yul\":12377:12426   */\n    tag_383:\n        /* \"#utility.yul\":12439:12519   */\n      tag_384\n        /* \"#utility.yul\":12495:12517   */\n      tag_385\n        /* \"#utility.yul\":12513:12516   */\n      dup6\n        /* \"#utility.yul\":12495:12517   */\n      tag_222\n      jump\t// in\n    tag_385:\n        /* \"#utility.yul\":12485:12493   */\n      dup4\n        /* \"#utility.yul\":12481:12518   */\n      add\n        /* \"#utility.yul\":12468:12479   */\n      dup3\n        /* \"#utility.yul\":12439:12519   */\n      tag_231\n      jump\t// in\n    tag_384:\n        /* \"#utility.yul\":12098:12529   */\n      pop\n      pop\n        /* \"#utility.yul\":12083:12529   */\n    tag_380:\n        /* \"#utility.yul\":11993:12536   */\n      pop\n      pop\n      pop\n      jump\t// out\n        /* \"#utility.yul\":12542:12659   */\n    tag_233:\n        /* \"#utility.yul\":12596:12604   */\n      0x00\n        /* \"#utility.yul\":12646:12651   */\n      dup3\n        /* \"#utility.yul\":12640:12644   */\n      dup3\n        /* \"#utility.yul\":12636:12652   */\n      shr\n        /* \"#utility.yul\":12615:12652   */\n      swap1\n      pop\n        /* \"#utility.yul\":12542:12659   */\n      swap3\n      swap2\n      pop\n      pop\n      jump\t// out\n        /* \"#utility.yul\":12665:12834   */\n    tag_234:\n        /* \"#utility.yul\":12709:12715   */\n      0x00\n        /* \"#utility.yul\":12742:12793   */\n      tag_388\n        /* \"#utility.yul\":12790:12791   */\n      0x00\n        /* \"#utility.yul\":12786:12792   */\n      not\n        /* \"#utility.yul\":12778:12783   */\n      dup5\n        /* \"#utility.yul\":12775:12776   */\n      0x08\n        /* \"#utility.yul\":12771:12784   */\n      mul\n        /* \"#utility.yul\":12742:12793   */\n      tag_233\n      jump\t// in\n    tag_388:\n        /* \"#utility.yul\":12738:12794   */\n      not\n        /* \"#utility.yul\":12823:12827   */\n      dup1\n        /* \"#utility.yul\":12817:12821   */\n      dup4\n        /* \"#utility.yul\":12813:12828   */\n      and\n        /* \"#utility.yul\":12803:12828   */\n      swap2\n      pop\n        /* \"#utility.yul\":12716:12834   */\n      pop\n        /* \"#utility.yul\":12665:12834   */\n      swap3\n      swap2\n      pop\n      pop\n      jump\t// out\n        /* \"#utility.yul\":12839:13134   */\n    tag_235:\n        /* \"#utility.yul\":12915:12919   */\n      0x00\n        /* \"#utility.yul\":13061:13090   */\n      tag_390\n        /* \"#utility.yul\":13086:13089   */\n      dup4\n        /* \"#utility.yul\":13080:13084   */\n      dup4\n        /* \"#utility.yul\":13061:13090   */\n      tag_234\n      jump\t// in\n    tag_390:\n        /* \"#utility.yul\":13053:13090   */\n      swap2\n      pop\n        /* \"#utility.yul\":13123:13126   */\n      dup3\n        /* \"#utility.yul\":13120:13121   */\n      0x02\n        /* \"#utility.yul\":13116:13127   */\n      mul\n        /* \"#utility.yul\":13110:13114   */\n      dup3\n        /* \"#utility.yul\":13107:13128   */\n      or\n        /* \"#utility.yul\":13099:13128   */\n      swap1\n      pop\n        /* \"#utility.yul\":12839:13134   */\n      swap3\n      swap2\n      pop\n      pop\n      jump\t// out\n        /* \"#utility.yul\":13139:14534   */\n    tag_151:\n        /* \"#utility.yul\":13256:13293   */\n      tag_392\n        /* \"#utility.yul\":13289:13292   */\n      dup3\n        /* \"#utility.yul\":13256:13293   */\n      tag_200\n      jump\t// in\n    tag_392:\n        /* \"#utility.yul\":13358:13376   */\n      0xffffffffffffffff\n        /* \"#utility.yul\":13350:13356   */\n      dup2\n        /* \"#utility.yul\":13347:13377   */\n      gt\n        /* \"#utility.yul\":13344:13400   */\n      iszero\n      tag_393\n      jumpi\n        /* \"#utility.yul\":13380:13398   */\n      tag_394\n      tag_213\n      jump\t// in\n    tag_394:\n        /* \"#utility.yul\":13344:13400   */\n    tag_393:\n        /* \"#utility.yul\":13424:13462   */\n      tag_395\n        /* \"#utility.yul\":13456:13460   */\n      dup3\n        /* \"#utility.yul\":13450:13461   */\n      sload\n        /* \"#utility.yul\":13424:13462   */\n      tag_112\n      jump\t// in\n    tag_395:\n        /* \"#utility.yul\":13509:13576   */\n      tag_396\n        /* \"#utility.yul\":13569:13575   */\n      dup3\n        /* \"#utility.yul\":13561:13567   */\n      dup3\n        /* \"#utility.yul\":13555:13559   */\n      dup6\n        /* \"#utility.yul\":13509:13576   */\n      tag_232\n      jump\t// in\n    tag_396:\n        /* \"#utility.yul\":13603:13604   */\n      0x00\n        /* \"#utility.yul\":13627:13631   */\n      0x20\n        /* \"#utility.yul\":13614:13631   */\n      swap1\n      pop\n        /* \"#utility.yul\":13659:13661   */\n      0x1f\n        /* \"#utility.yul\":13651:13657   */\n      dup4\n        /* \"#utility.yul\":13648:13662   */\n      gt\n        /* \"#utility.yul\":13676:13677   */\n      0x01\n        /* \"#utility.yul\":13671:14289   */\n      dup2\n      eq\n      tag_398\n      jumpi\n        /* \"#utility.yul\":14333:14334   */\n      0x00\n        /* \"#utility.yul\":14350:14356   */\n      dup5\n        /* \"#utility.yul\":14347:14424   */\n      iszero\n      tag_399\n      jumpi\n        /* \"#utility.yul\":14399:14408   */\n      dup3\n        /* \"#utility.yul\":14394:14397   */\n      dup8\n        /* \"#utility.yul\":14390:14409   */\n      add\n        /* \"#utility.yul\":14384:14410   */\n      mload\n        /* \"#utility.yul\":14375:14410   */\n      swap1\n      pop\n        /* \"#utility.yul\":14347:14424   */\n    tag_399:\n        /* \"#utility.yul\":14450:14517   */\n      tag_400\n        /* \"#utility.yul\":14510:14516   */\n      dup6\n        /* \"#utility.yul\":14503:14508   */\n      dup3\n        /* \"#utility.yul\":14450:14517   */\n      tag_235\n      jump\t// in\n    tag_400:\n        /* \"#utility.yul\":14444:14448   */\n      dup7\n        /* \"#utility.yul\":14437:14518   */\n      sstore\n        /* \"#utility.yul\":14306:14528   */\n      pop\n        /* \"#utility.yul\":13641:14528   */\n      jump(tag_397)\n        /* \"#utility.yul\":13671:14289   */\n    tag_398:\n        /* \"#utility.yul\":13723:13727   */\n      0x1f\n        /* \"#utility.yul\":13719:13728   */\n      not\n        /* \"#utility.yul\":13711:13717   */\n      dup5\n        /* \"#utility.yul\":13707:13729   */\n      and\n        /* \"#utility.yul\":13757:13794   */\n      tag_401\n        /* \"#utility.yul\":13789:13793   */\n      dup7\n        /* \"#utility.yul\":13757:13794   */\n      tag_221\n      jump\t// in\n    tag_401:\n        /* \"#utility.yul\":13816:13817   */\n      0x00\n        /* \"#utility.yul\":13830:14038   */\n    tag_402:\n        /* \"#utility.yul\":13844:13851   */\n      dup3\n        /* \"#utility.yul\":13841:13842   */\n      dup2\n        /* \"#utility.yul\":13838:13852   */\n      lt\n        /* \"#utility.yul\":13830:14038   */\n      iszero\n      tag_404\n      jumpi\n        /* \"#utility.yul\":13923:13932   */\n      dup5\n        /* \"#utility.yul\":13918:13921   */\n      dup10\n        /* \"#utility.yul\":13914:13933   */\n      add\n        /* \"#utility.yul\":13908:13934   */\n      mload\n        /* \"#utility.yul\":13900:13906   */\n      dup3\n        /* \"#utility.yul\":13893:13935   */\n      sstore\n        /* \"#utility.yul\":13974:13975   */\n      0x01\n        /* \"#utility.yul\":13966:13972   */\n      dup3\n        /* \"#utility.yul\":13962:13976   */\n      add\n        /* \"#utility.yul\":13952:13976   */\n      swap2\n      pop\n        /* \"#utility.yul\":14021:14023   */\n      0x20\n        /* \"#utility.yul\":14010:14019   */\n      dup6\n        /* \"#utility.yul\":14006:14024   */\n      add\n        /* \"#utility.yul\":13993:14024   */\n      swap5\n      pop\n        /* \"#utility.yul\":13867:13871   */\n      0x20\n        /* \"#utility.yul\":13864:13865   */\n      dup2\n        /* \"#utility.yul\":13860:13872   */\n      add\n        /* \"#utility.yul\":13855:13872   */\n      swap1\n      pop\n        /* \"#utility.yul\":13830:14038   */\n      jump(tag_402)\n    tag_404:\n        /* \"#utility.yul\":14066:14072   */\n      dup7\n        /* \"#utility.yul\":14057:14064   */\n      dup4\n        /* \"#utility.yul\":14054:14073   */\n      lt\n        /* \"#utility.yul\":14051:14230   */\n      iszero\n      tag_405\n      jumpi\n        /* \"#utility.yul\":14124:14133   */\n      dup5\n        /* \"#utility.yul\":14119:14122   */\n      dup10\n        /* \"#utility.yul\":14115:14134   */\n      add\n        /* \"#utility.yul\":14109:14135   */\n      mload\n        /* \"#utility.yul\":14167:14215   */\n      tag_406\n        /* \"#utility.yul\":14209:14213   */\n      0x1f\n        /* \"#utility.yul\":14201:14207   */\n      dup10\n        /* \"#utility.yul\":14197:14214   */\n      and\n        /* \"#utility.yul\":14186:14195   */\n      dup3\n        /* \"#utility.yul\":14167:14215   */\n      tag_234\n      jump\t// in\n    tag_406:\n        /* \"#utility.yul\":14159:14165   */\n      dup4\n        /* \"#utility.yul\":14152:14216   */\n      sstore\n        /* \"#utility.yul\":14074:14230   */\n      pop\n        /* \"#utility.yul\":14051:14230   */\n    tag_405:\n        /* \"#utility.yul\":14276:14277   */\n      0x01\n        /* \"#utility.yul\":14272:14273   */\n      0x02\n        /* \"#utility.yul\":14264:14270   */\n      dup9\n        /* \"#utility.yul\":14260:14274   */\n      mul\n        /* \"#utility.yul\":14256:14278   */\n      add\n        /* \"#utility.yul\":14250:14254   */\n      dup9\n        /* \"#utility.yul\":14243:14279   */\n      sstore\n        /* \"#utility.yul\":13678:14289   */\n      pop\n      pop\n      pop\n        /* \"#utility.yul\":13641:14528   */\n    tag_397:\n      pop\n        /* \"#utility.yul\":13231:14534   */\n      pop\n      pop\n      pop\n        /* \"#utility.yul\":13139:14534   */\n      pop\n      pop\n      jump\t// out\n        /* \"#utility.yul\":14540:14720   */\n    tag_164:\n        /* \"#utility.yul\":14588:14665   */\n      0x4e487b7100000000000000000000000000000000000000000000000000000000\n        /* \"#utility.yul\":14585:14586   */\n      0x00\n        /* \"#utility.yul\":14578:14666   */\n      mstore\n        /* \"#utility.yul\":14685:14689   */\n      0x32\n        /* \"#utility.yul\":14682:14683   */\n      0x04\n        /* \"#utility.yul\":14675:14690   */\n      mstore\n        /* \"#utility.yul\":14709:14713   */\n      0x24\n        /* \"#utility.yul\":14706:14707   */\n      0x00\n        /* \"#utility.yul\":14699:14714   */\n      revert\n        /* \"#utility.yul\":14726:14906   */\n    tag_236:\n        /* \"#utility.yul\":14774:14851   */\n      0x4e487b7100000000000000000000000000000000000000000000000000000000\n        /* \"#utility.yul\":14771:14772   */\n      0x00\n        /* \"#utility.yul\":14764:14852   */\n      mstore\n        /* \"#utility.yul\":14871:14875   */\n      0x11\n        /* \"#utility.yul\":14868:14869   */\n      0x04\n        /* \"#utility.yul\":14861:14876   */\n      mstore\n        /* \"#utility.yul\":14895:14899   */\n      0x24\n        /* \"#utility.yul\":14892:14893   */\n      0x00\n        /* \"#utility.yul\":14885:14900   */\n      revert\n        /* \"#utility.yul\":14912:15103   */\n    tag_171:\n        /* \"#utility.yul\":14952:14955   */\n      0x00\n        /* \"#utility.yul\":14971:14991   */\n      tag_410\n        /* \"#utility.yul\":14989:14990   */\n      dup3\n        /* \"#utility.yul\":14971:14991   */\n      tag_188\n      jump\t// in\n    tag_410:\n        /* \"#utility.yul\":14966:14991   */\n      swap2\n      pop\n        /* \"#utility.yul\":15005:15025   */\n      tag_411\n        /* \"#utility.yul\":15023:15024   */\n      dup4\n        /* \"#utility.yul\":15005:15025   */\n      tag_188\n      jump\t// in\n    tag_411:\n        /* \"#utility.yul\":15000:15025   */\n      swap3\n      pop\n        /* \"#utility.yul\":15048:15049   */\n      dup3\n        /* \"#utility.yul\":15045:15046   */\n      dup3\n        /* \"#utility.yul\":15041:15050   */\n      add\n        /* \"#utility.yul\":15034:15050   */\n      swap1\n      pop\n        /* \"#utility.yul\":15069:15072   */\n      dup1\n        /* \"#utility.yul\":15066:15067   */\n      dup3\n        /* \"#utility.yul\":15063:15073   */\n      gt\n        /* \"#utility.yul\":15060:15096   */\n      iszero\n      tag_412\n      jumpi\n        /* \"#utility.yul\":15076:15094   */\n      tag_413\n      tag_236\n      jump\t// in\n    tag_413:\n        /* \"#utility.yul\":15060:15096   */\n    tag_412:\n        /* \"#utility.yul\":14912:15103   */\n      swap3\n      swap2\n      pop\n      pop\n      jump\t// out\n        /* \"#utility.yul\":15109:15342   */\n    tag_173:\n        /* \"#utility.yul\":15148:15151   */\n      0x00\n        /* \"#utility.yul\":15171:15195   */\n      tag_415\n        /* \"#utility.yul\":15189:15194   */\n      dup3\n        /* \"#utility.yul\":15171:15195   */\n      tag_188\n      jump\t// in\n    tag_415:\n        /* \"#utility.yul\":15162:15195   */\n      swap2\n      pop\n        /* \"#utility.yul\":15217:15283   */\n      0xffffffffffffffffffffffffffffffffffffffffffffffffffffffffffffffff\n        /* \"#utility.yul\":15210:15215   */\n      dup3\n        /* \"#utility.yul\":15207:15284   */\n      sub\n        /* \"#utility.yul\":15204:15307   */\n      tag_416\n      jumpi\n        /* \"#utility.yul\":15287:15305   */\n      tag_417\n      tag_236\n      jump\t// in\n    tag_417:\n        /* \"#utility.yul\":15204:15307   */\n    tag_416:\n        /* \"#utility.yul\":15334:15335   */\n      0x01\n        /* \"#utility.yul\":15327:15332   */\n      dup3\n        /* \"#utility.yul\":15323:15336   */\n      add\n        /* \"#utility.yul\":15316:15336   */\n      swap1\n      pop\n        /* \"#utility.yul\":15109:15342   */\n      swap2\n      swap1\n      pop\n      jump\t// out\n        /* \"#utility.yul\":15348:15528   */\n    tag_237:\n        /* \"#utility.yul\":15396:15473   */\n      0x4e487b7100000000000000000000000000000000000000000000000000000000\n        /* \"#utility.yul\":15393:15394   */\n      0x00\n        /* \"#utility.yul\":15386:15474   */\n      mstore\n        /* \"#utility.yul\":15493:15497   */\n      0x12\n        /* \"#utility.yul\":15490:15491   */\n      0x04\n        /* \"#utility.yul\":15483:15498   */\n      mstore\n        /* \"#utility.yul\":15517:15521   */\n      0x24\n        /* \"#utility.yul\":15514:15515   */\n      0x00\n        /* \"#utility.yul\":15507:15522   */\n      revert\n        /* \"#utility.yul\":15534:15710   */\n    tag_185:\n        /* \"#utility.yul\":15566:15567   */\n      0x00\n        /* \"#utility.yul\":15583:15603   */\n      tag_420\n        /* \"#utility.yul\":15601:15602   */\n      dup3\n        /* \"#utility.yul\":15583:15603   */\n      tag_188\n      jump\t// in\n    tag_420:\n        /* \"#utility.yul\":15578:15603   */\n      swap2\n      pop\n        /* \"#utility.yul\":15617:15637   */\n      tag_421\n        /* \"#utility.yul\":15635:15636   */\n      dup4\n        /* \"#utility.yul\":15617:15637   */\n      tag_188\n      jump\t// in\n    tag_421:\n        /* \"#utility.yul\":15612:15637   */\n      swap3\n      pop\n        /* \"#utility.yul\":15656:15657   */\n      dup3\n        /* \"#utility.yul\":15646:15681   */\n      tag_422\n      jumpi\n        /* \"#utility.yul\":15661:15679   */\n      tag_423\n      tag_237\n      jump\t// in\n    tag_423:\n        /* \"#utility.yul\":15646:15681   */\n    tag_422:\n        /* \"#utility.yul\":15702:15703   */\n      dup3\n        /* \"#utility.yul\":15699:15700   */\n      dup3\n        /* \"#utility.yul\":15695:15704   */\n      mod\n        /* \"#utility.yul\":15690:15704   */\n      swap1\n      pop\n        /* \"#utility.yul\":15534:15710   */\n      swap3\n      swap2\n      pop\n      pop\n      jump\t// out\n\n    auxdata: 0xa264697066735822122050eccef9c866413a032b185f71414cf430e18daf9c884f8f1343a06e5b4ceb9e64736f6c63430008120033\n}\n",
				"bytecode": {
					"linkReferences": {},
					"object": "608060405260016000556001805560016002556040518060400160405280600581526020017f48656c6c6f00000000000000000000000000000000000000000000000000000081525060039081620000589190620007f5565b507f48656c6c6f000000000000000000000000000000000000000000000000000000600455735b38da6a701c568545dcfcb03fcb875f56beddc4600560006101000a81548173ffffffffffffffffffffffffffffffffffffffff021916908373ffffffffffffffffffffffffffffffffffffffff1602179055506040518060400160405280601881526020016040518060400160405280600781526020017f4d616362657468000000000000000000000000000000000000000000000000008152508152506006600082015181600001556020820151816001019081620001409190620007f5565b5050506040518060600160405280600160ff168152602001600260ff168152602001600360ff1681525060089060036200017c9291906200038a565b5060405180604001604052806040518060400160405280600381526020017f414243000000000000000000000000000000000000000000000000000000000081525081526020016040518060400160405280600381526020017f444546000000000000000000000000000000000000000000000000000000000081525081525060099060026200020e929190620003e1565b5060405180604001604052806040518060600160405280600160ff168152602001600260ff168152602001600360ff1681525081526020016040518060600160405280600460ff168152602001600560ff168152602001600660ff16815250815250600b9060026200028292919062000441565b503480156200029057600080fd5b506040518060400160405280600181526020017f4100000000000000000000000000000000000000000000000000000000000000815250600c6000600181526020019081526020016000209081620002e99190620007f5565b506040518060400160405280600181526020017f4200000000000000000000000000000000000000000000000000000000000000815250600c6000600281526020019081526020016000209081620003429190620007f5565b5033600d60006101000a81548173ffffffffffffffffffffffffffffffffffffffff021916908373ffffffffffffffffffffffffffffffffffffffff160217905550620008dc565b828054828255906000526020600020908101928215620003ce579160200282015b82811115620003cd578251829060ff16905591602001919060010190620003ab565b5b509050620003dd9190620004a3565b5090565b8280548282559060005260206000209081019282156200042e579160200282015b828111156200042d5782518290816200041c9190620007f5565b509160200191906001019062000402565b5b5090506200043d9190620004c2565b5090565b82805482825590600052602060002090810192821562000490579160200282015b828111156200048f578251829060036200047e9291906200038a565b509160200191906001019062000462565b5b5090506200049f9190620004ea565b5090565b5b80821115620004be576000816000905550600101620004a4565b5090565b5b80821115620004e65760008181620004dc919062000512565b50600101620004c3565b5090565b5b808211156200050e576000818162000504919062000558565b50600101620004eb565b5090565b5080546200052090620005e4565b6000825580601f1062000534575062000555565b601f016020900490600052602060002090810190620005549190620004a3565b5b50565b5080546000825590600052602060002090810190620005789190620004a3565b50565b600081519050919050565b7f4e487b7100000000000000000000000000000000000000000000000000000000600052604160045260246000fd5b7f4e487b7100000000000000000000000000000000000000000000000000000000600052602260045260246000fd5b60006002820490506001821680620005fd57607f821691505b602082108103620006135762000612620005b5565b5b50919050565b60008190508160005260206000209050919050565b60006020601f8301049050919050565b600082821b905092915050565b6000600883026200067d7fffffffffffffffffffffffffffffffffffffffffffffffffffffffffffffffff826200063e565b6200068986836200063e565b95508019841693508086168417925050509392505050565b6000819050919050565b6000819050919050565b6000620006d6620006d0620006ca84620006a1565b620006ab565b620006a1565b9050919050565b6000819050919050565b620006f283620006b5565b6200070a6200070182620006dd565b8484546200064b565b825550505050565b600090565b6200072162000712565b6200072e818484620006e7565b505050565b5b8181101562000756576200074a60008262000717565b60018101905062000734565b5050565b601f821115620007a5576200076f8162000619565b6200077a846200062e565b810160208510156200078a578190505b620007a262000799856200062e565b83018262000733565b50505b505050565b600082821c905092915050565b6000620007ca60001984600802620007aa565b1980831691505092915050565b6000620007e58383620007b7565b9150826002028217905092915050565b62000800826200057b565b67ffffffffffffffff8111156200081c576200081b62000586565b5b620008288254620005e4565b620008358282856200075a565b600060209050601f8311600181146200086d576000841562000858578287015190505b620008648582620007d7565b865550620008d4565b601f1984166200087d8662000619565b60005b82811015620008a75784890151825560018201915060208501945060208101905062000880565b86831015620008c75784890151620008c3601f891682620007b7565b8355505b6001600288020188555050505b505050505050565b61152d80620008ec6000396000f3fe608060405234801561001057600080fd5b50600436106101375760003560e01c80636422c4c8116100b8578063b7b3e86a1161007c578063b7b3e86a1461036a578063bc7640ed14610386578063be9a8428146103b6578063c2a2747b146103d4578063d3268fc1146103f3578063e5054c691461042357610137565b80636422c4c8146102b15780638cc7d446146102e15780638da5cb5b146103125780638f32d59b14610330578063abfc398d1461034e57610137565b80634622ab03116100ff5780634622ab03146101e5578063492bfa18146102155780634b3e7e0c146102335780635b3e722d14610251578063609fba8f1461028157610137565b806306540f7e1461013c57806309efb8ff1461015a57806326b85ee1146101785780632c7b97a6146101965780632cb777a6146101c7575b600080fd5b610144610453565b6040516101519190610be2565b60405180910390f35b610162610459565b60405161016f9190610c16565b60405180910390f35b61018061045f565b60405161018d9190610c72565b60405180910390f35b6101b060048036038101906101ab9190610ccd565b610485565b6040516101be929190610d8a565b60405180910390f35b6101cf610531565b6040516101dc9190610c16565b60405180910390f35b6101ff60048036038101906101fa9190610ccd565b610537565b60405161020c9190610dba565b60405180910390f35b61021d6105d7565b60405161022a9190610dba565b60405180910390f35b61023b610665565b6040516102489190610df5565b60405180910390f35b61026b60048036038101906102669190610ccd565b61066b565b6040516102789190610dba565b60405180910390f35b61029b60048036038101906102969190610ccd565b610717565b6040516102a89190610be2565b60405180910390f35b6102cb60048036038101906102c69190610ccd565b61073b565b6040516102d89190610dba565b60405180910390f35b6102fb60048036038101906102f69190610e3c565b6107e7565b604051610309929190610d8a565b60405180910390f35b61031a6108a0565b6040516103279190610c72565b60405180910390f35b6103386108c6565b6040516103459190610e97565b60405180910390f35b61036860048036038101906103639190610fe7565b61091e565b005b610384600480360381019061037f9190610fe7565b6109ab565b005b6103a0600480360381019061039b9190611056565b6109fb565b6040516103ad9190610be2565b60405180910390f35b6103be610a3f565b6040516103cb9190610be2565b60405180910390f35b6103dc610aca565b6040516103ea929190610d8a565b60405180910390f35b61040d6004803603810190610408919061109f565b610b64565b60405161041a9190610be2565b60405180910390f35b61043d60048036038101906104389190610ccd565b610ba1565b60405161044a9190610e97565b60405180910390f35b60005481565b60025481565b600560009054906101000a900473ffffffffffffffffffffffffffffffffffffffff1681565b600e6020528060005260406000206000915090508060000154908060010180546104ae9061110e565b80601f01602080910402602001604051908101604052809291908181526020018280546104da9061110e565b80156105275780601f106104fc57610100808354040283529160200191610527565b820191906000526020600020905b81548152906001019060200180831161050a57829003601f168201915b5050505050905082565b60015481565b600c60205280600052604060002060009150905080546105569061110e565b80601f01602080910402602001604051908101604052809291908181526020018280546105829061110e565b80156105cf5780601f106105a4576101008083540402835291602001916105cf565b820191906000526020600020905b8154815290600101906020018083116105b257829003601f168201915b505050505081565b600380546105e49061110e565b80601f01602080910402602001604051908101604052809291908181526020018280546106109061110e565b801561065d5780601f106106325761010080835404028352916020019161065d565b820191906000526020600020905b81548152906001019060200180831161064057829003601f168201915b505050505081565b60045481565b600a818154811061067b57600080fd5b9060005260206000200160009150905080546106969061110e565b80601f01602080910402602001604051908101604052809291908181526020018280546106c29061110e565b801561070f5780601f106106e45761010080835404028352916020019161070f565b820191906000526020600020905b8154815290600101906020018083116106f257829003601f168201915b505050505081565b6008818154811061072757600080fd5b906000526020600020016000915090505481565b6009818154811061074b57600080fd5b9060005260206000200160009150905080546107669061110e565b80601f01602080910402602001604051908101604052809291908181526020018280546107929061110e565b80156107df5780601f106107b4576101008083540402835291602001916107df565b820191906000526020600020905b8154815290600101906020018083116107c257829003601f168201915b505050505081565b600f6020528160005260406000206020528060005260406000206000915091505080600001549080600101805461081d9061110e565b80601f01602080910402602001604051908101604052809291908181526020018280546108499061110e565b80156108965780601f1061086b57610100808354040283529160200191610896565b820191906000526020600020905b81548152906001019060200180831161087957829003601f168201915b5050505050905082565b600d60009054906101000a900473ffffffffffffffffffffffffffffffffffffffff1681565b60003373ffffffffffffffffffffffffffffffffffffffff16600d60009054906101000a900473ffffffffffffffffffffffffffffffffffffffff1673ffffffffffffffffffffffffffffffffffffffff1614905090565b604051806040016040528083815260200182815250600f60003373ffffffffffffffffffffffffffffffffffffffff1673ffffffffffffffffffffffffffffffffffffffff16815260200190815260200160002060008581526020019081526020016000206000820151816000015560208201518160010190816109a291906112eb565b50905050505050565b604051806040016040528083815260200182815250600e60008581526020019081526020016000206000820151816000015560208201518160010190816109f291906112eb565b50905050505050565b6000600a82908060018154018082558091505060019003906000526020600020016000909190919091509081610a3191906112eb565b50600a805490509050919050565b6000806000905060005b600880549050811015610ac257610a7d60088281548110610a6d57610a6c6113bd565b5b9060005260206000200154610ba1565b15610aaf5760088181548110610a9657610a956113bd565b5b906000526020600020015482610aac919061141b565b91505b8080610aba9061144f565b915050610a49565b508091505090565b6006806000015490806001018054610ae19061110e565b80601f0160208091040260200160405190810160405280929190818152602001828054610b0d9061110e565b8015610b5a5780601f10610b2f57610100808354040283529160200191610b5a565b820191906000526020600020905b815481529060010190602001808311610b3d57829003601f168201915b5050505050905082565b600b8281548110610b7457600080fd5b906000526020600020018181548110610b8c57600080fd5b90600052602060002001600091509150505481565b600080600283610bb191906114c6565b03610bbf5760019050610bc4565b600090505b919050565b6000819050919050565b610bdc81610bc9565b82525050565b6000602082019050610bf76000830184610bd3565b92915050565b6000819050919050565b610c1081610bfd565b82525050565b6000602082019050610c2b6000830184610c07565b92915050565b600073ffffffffffffffffffffffffffffffffffffffff82169050919050565b6000610c5c82610c31565b9050919050565b610c6c81610c51565b82525050565b6000602082019050610c876000830184610c63565b92915050565b6000604051905090565b600080fd5b600080fd5b610caa81610bc9565b8114610cb557600080fd5b50565b600081359050610cc781610ca1565b92915050565b600060208284031215610ce357610ce2610c97565b5b6000610cf184828501610cb8565b91505092915050565b600081519050919050565b600082825260208201905092915050565b60005b83811015610d34578082015181840152602081019050610d19565b60008484015250505050565b6000601f19601f8301169050919050565b6000610d5c82610cfa565b610d668185610d05565b9350610d76818560208601610d16565b610d7f81610d40565b840191505092915050565b6000604082019050610d9f6000830185610bd3565b8181036020830152610db18184610d51565b90509392505050565b60006020820190508181036000830152610dd48184610d51565b905092915050565b6000819050919050565b610def81610ddc565b82525050565b6000602082019050610e0a6000830184610de6565b92915050565b610e1981610c51565b8114610e2457600080fd5b50565b600081359050610e3681610e10565b92915050565b60008060408385031215610e5357610e52610c97565b5b6000610e6185828601610e27565b9250506020610e7285828601610cb8565b9150509250929050565b60008115159050919050565b610e9181610e7c565b82525050565b6000602082019050610eac6000830184610e88565b92915050565b600080fd5b600080fd5b7f4e487b7100000000000000000000000000000000000000000000000000000000600052604160045260246000fd5b610ef482610d40565b810181811067ffffffffffffffff82111715610f1357610f12610ebc565b5b80604052505050565b6000610f26610c8d565b9050610f328282610eeb565b919050565b600067ffffffffffffffff821115610f5257610f51610ebc565b5b610f5b82610d40565b9050602081019050919050565b82818337600083830152505050565b6000610f8a610f8584610f37565b610f1c565b905082815260208101848484011115610fa657610fa5610eb7565b5b610fb1848285610f68565b509392505050565b600082601f830112610fce57610fcd610eb2565b5b8135610fde848260208601610f77565b91505092915050565b60008060006060848603121561100057610fff610c97565b5b600061100e86828701610cb8565b935050602061101f86828701610cb8565b925050604084013567ffffffffffffffff8111156110405761103f610c9c565b5b61104c86828701610fb9565b9150509250925092565b60006020828403121561106c5761106b610c97565b5b600082013567ffffffffffffffff81111561108a57611089610c9c565b5b61109684828501610fb9565b91505092915050565b600080604083850312156110b6576110b5610c97565b5b60006110c485828601610cb8565b92505060206110d585828601610cb8565b9150509250929050565b7f4e487b7100000000000000000000000000000000000000000000000000000000600052602260045260246000fd5b6000600282049050600182168061112657607f821691505b602082108103611139576111386110df565b5b50919050565b60008190508160005260206000209050919050565b60006020601f8301049050919050565b600082821b905092915050565b6000600883026111a17fffffffffffffffffffffffffffffffffffffffffffffffffffffffffffffffff82611164565b6111ab8683611164565b95508019841693508086168417925050509392505050565b6000819050919050565b60006111e86111e36111de84610bc9565b6111c3565b610bc9565b9050919050565b6000819050919050565b611202836111cd565b61121661120e826111ef565b848454611171565b825550505050565b600090565b61122b61121e565b6112368184846111f9565b505050565b5b8181101561125a5761124f600082611223565b60018101905061123c565b5050565b601f82111561129f576112708161113f565b61127984611154565b81016020851015611288578190505b61129c61129485611154565b83018261123b565b50505b505050565b600082821c905092915050565b60006112c2600019846008026112a4565b1980831691505092915050565b60006112db83836112b1565b9150826002028217905092915050565b6112f482610cfa565b67ffffffffffffffff81111561130d5761130c610ebc565b5b611317825461110e565b61132282828561125e565b600060209050601f8311600181146113555760008415611343578287015190505b61134d85826112cf565b8655506113b5565b601f1984166113638661113f565b60005b8281101561138b57848901518255600182019150602085019450602081019050611366565b868310156113a857848901516113a4601f8916826112b1565b8355505b6001600288020188555050505b505050505050565b7f4e487b7100000000000000000000000000000000000000000000000000000000600052603260045260246000fd5b7f4e487b7100000000000000000000000000000000000000000000000000000000600052601160045260246000fd5b600061142682610bc9565b915061143183610bc9565b9250828201905080821115611449576114486113ec565b5b92915050565b600061145a82610bc9565b91507fffffffffffffffffffffffffffffffffffffffffffffffffffffffffffffffff820361148c5761148b6113ec565b5b600182019050919050565b7f4e487b7100000000000000000000000000000000000000000000000000000000600052601260045260246000fd5b60006114d182610bc9565b91506114dc83610bc9565b9250826114ec576114eb611497565b5b82820690509291505056fea264697066735822122050eccef9c866413a032b185f71414cf430e18daf9c884f8f1343a06e5b4ceb9e64736f6c63430008120033",
					"opcodes": "PUSH1 0x80 PUSH1 0x40 MSTORE PUSH1 0x1 PUSH1 0x0 SSTORE PUSH1 0x1 DUP1 SSTORE PUSH1 0x1 PUSH1 0x2 SSTORE PUSH1 0x40 MLOAD DUP1 PUSH1 0x40 ADD PUSH1 0x40 MSTORE DUP1 PUSH1 0x5 DUP2 MSTORE PUSH1 0x20 ADD PUSH32 0x48656C6C6F000000000000000000000000000000000000000000000000000000 DUP2 MSTORE POP PUSH1 0x3 SWAP1 DUP2 PUSH3 0x58 SWAP2 SWAP1 PUSH3 0x7F5 JUMP JUMPDEST POP PUSH32 0x48656C6C6F000000000000000000000000000000000000000000000000000000 PUSH1 0x4 SSTORE PUSH20 0x5B38DA6A701C568545DCFCB03FCB875F56BEDDC4 PUSH1 0x5 PUSH1 0x0 PUSH2 0x100 EXP DUP2 SLOAD DUP2 PUSH20 0xFFFFFFFFFFFFFFFFFFFFFFFFFFFFFFFFFFFFFFFF MUL NOT AND SWAP1 DUP4 PUSH20 0xFFFFFFFFFFFFFFFFFFFFFFFFFFFFFFFFFFFFFFFF AND MUL OR SWAP1 SSTORE POP PUSH1 0x40 MLOAD DUP1 PUSH1 0x40 ADD PUSH1 0x40 MSTORE DUP1 PUSH1 0x18 DUP2 MSTORE PUSH1 0x20 ADD PUSH1 0x40 MLOAD DUP1 PUSH1 0x40 ADD PUSH1 0x40 MSTORE DUP1 PUSH1 0x7 DUP2 MSTORE PUSH1 0x20 ADD PUSH32 0x4D61636265746800000000000000000000000000000000000000000000000000 DUP2 MSTORE POP DUP2 MSTORE POP PUSH1 0x6 PUSH1 0x0 DUP3 ADD MLOAD DUP2 PUSH1 0x0 ADD SSTORE PUSH1 0x20 DUP3 ADD MLOAD DUP2 PUSH1 0x1 ADD SWAP1 DUP2 PUSH3 0x140 SWAP2 SWAP1 PUSH3 0x7F5 JUMP JUMPDEST POP POP POP PUSH1 0x40 MLOAD DUP1 PUSH1 0x60 ADD PUSH1 0x40 MSTORE DUP1 PUSH1 0x1 PUSH1 0xFF AND DUP2 MSTORE PUSH1 0x20 ADD PUSH1 0x2 PUSH1 0xFF AND DUP2 MSTORE PUSH1 0x20 ADD PUSH1 0x3 PUSH1 0xFF AND DUP2 MSTORE POP PUSH1 0x8 SWAP1 PUSH1 0x3 PUSH3 0x17C SWAP3 SWAP2 SWAP1 PUSH3 0x38A JUMP JUMPDEST POP PUSH1 0x40 MLOAD DUP1 PUSH1 0x40 ADD PUSH1 0x40 MSTORE DUP1 PUSH1 0x40 MLOAD DUP1 PUSH1 0x40 ADD PUSH1 0x40 MSTORE DUP1 PUSH1 0x3 DUP2 MSTORE PUSH1 0x20 ADD PUSH32 0x4142430000000000000000000000000000000000000000000000000000000000 DUP2 MSTORE POP DUP2 MSTORE PUSH1 0x20 ADD PUSH1 0x40 MLOAD DUP1 PUSH1 0x40 ADD PUSH1 0x40 MSTORE DUP1 PUSH1 0x3 DUP2 MSTORE PUSH1 0x20 ADD PUSH32 0x4445460000000000000000000000000000000000000000000000000000000000 DUP2 MSTORE POP DUP2 MSTORE POP PUSH1 0x9 SWAP1 PUSH1 0x2 PUSH3 0x20E SWAP3 SWAP2 SWAP1 PUSH3 0x3E1 JUMP JUMPDEST POP PUSH1 0x40 MLOAD DUP1 PUSH1 0x40 ADD PUSH1 0x40 MSTORE DUP1 PUSH1 0x40 MLOAD DUP1 PUSH1 0x60 ADD PUSH1 0x40 MSTORE DUP1 PUSH1 0x1 PUSH1 0xFF AND DUP2 MSTORE PUSH1 0x20 ADD PUSH1 0x2 PUSH1 0xFF AND DUP2 MSTORE PUSH1 0x20 ADD PUSH1 0x3 PUSH1 0xFF AND DUP2 MSTORE POP DUP2 MSTORE PUSH1 0x20 ADD PUSH1 0x40 MLOAD DUP1 PUSH1 0x60 ADD PUSH1 0x40 MSTORE DUP1 PUSH1 0x4 PUSH1 0xFF AND DUP2 MSTORE PUSH1 0x20 ADD PUSH1 0x5 PUSH1 0xFF AND DUP2 MSTORE PUSH1 0x20 ADD PUSH1 0x6 PUSH1 0xFF AND DUP2 MSTORE POP DUP2 MSTORE POP PUSH1 0xB SWAP1 PUSH1 0x2 PUSH3 0x282 SWAP3 SWAP2 SWAP1 PUSH3 0x441 JUMP JUMPDEST POP CALLVALUE DUP1 ISZERO PUSH3 0x290 JUMPI PUSH1 0x0 DUP1 REVERT JUMPDEST POP PUSH1 0x40 MLOAD DUP1 PUSH1 0x40 ADD PUSH1 0x40 MSTORE DUP1 PUSH1 0x1 DUP2 MSTORE PUSH1 0x20 ADD PUSH32 0x4100000000000000000000000000000000000000000000000000000000000000 DUP2 MSTORE POP PUSH1 0xC PUSH1 0x0 PUSH1 0x1 DUP2 MSTORE PUSH1 0x20 ADD SWAP1 DUP2 MSTORE PUSH1 0x20 ADD PUSH1 0x0 KECCAK256 SWAP1 DUP2 PUSH3 0x2E9 SWAP2 SWAP1 PUSH3 0x7F5 JUMP JUMPDEST POP PUSH1 0x40 MLOAD DUP1 PUSH1 0x40 ADD PUSH1 0x40 MSTORE DUP1 PUSH1 0x1 DUP2 MSTORE PUSH1 0x20 ADD PUSH32 0x4200000000000000000000000000000000000000000000000000000000000000 DUP2 MSTORE POP PUSH1 0xC PUSH1 0x0 PUSH1 0x2 DUP2 MSTORE PUSH1 0x20 ADD SWAP1 DUP2 MSTORE PUSH1 0x20 ADD PUSH1 0x0 KECCAK256 SWAP1 DUP2 PUSH3 0x342 SWAP2 SWAP1 PUSH3 0x7F5 JUMP JUMPDEST POP CALLER PUSH1 0xD PUSH1 0x0 PUSH2 0x100 EXP DUP2 SLOAD DUP2 PUSH20 0xFFFFFFFFFFFFFFFFFFFFFFFFFFFFFFFFFFFFFFFF MUL NOT AND SWAP1 DUP4 PUSH20 0xFFFFFFFFFFFFFFFFFFFFFFFFFFFFFFFFFFFFFFFF AND MUL OR SWAP1 SSTORE POP PUSH3 0x8DC JUMP JUMPDEST DUP3 DUP1 SLOAD DUP3 DUP3 SSTORE SWAP1 PUSH1 0x0 MSTORE PUSH1 0x20 PUSH1 0x0 KECCAK256 SWAP1 DUP2 ADD SWAP3 DUP3 ISZERO PUSH3 0x3CE JUMPI SWAP2 PUSH1 0x20 MUL DUP3 ADD JUMPDEST DUP3 DUP2 GT ISZERO PUSH3 0x3CD JUMPI DUP3 MLOAD DUP3 SWAP1 PUSH1 0xFF AND SWAP1 SSTORE SWAP2 PUSH1 0x20 ADD SWAP2 SWAP1 PUSH1 0x1 ADD SWAP1 PUSH3 0x3AB JUMP JUMPDEST JUMPDEST POP SWAP1 POP PUSH3 0x3DD SWAP2 SWAP1 PUSH3 0x4A3 JUMP JUMPDEST POP SWAP1 JUMP JUMPDEST DUP3 DUP1 SLOAD DUP3 DUP3 SSTORE SWAP1 PUSH1 0x0 MSTORE PUSH1 0x20 PUSH1 0x0 KECCAK256 SWAP1 DUP2 ADD SWAP3 DUP3 ISZERO PUSH3 0x42E JUMPI SWAP2 PUSH1 0x20 MUL DUP3 ADD JUMPDEST DUP3 DUP2 GT ISZERO PUSH3 0x42D JUMPI DUP3 MLOAD DUP3 SWAP1 DUP2 PUSH3 0x41C SWAP2 SWAP1 PUSH3 0x7F5 JUMP JUMPDEST POP SWAP2 PUSH1 0x20 ADD SWAP2 SWAP1 PUSH1 0x1 ADD SWAP1 PUSH3 0x402 JUMP JUMPDEST JUMPDEST POP SWAP1 POP PUSH3 0x43D SWAP2 SWAP1 PUSH3 0x4C2 JUMP JUMPDEST POP SWAP1 JUMP JUMPDEST DUP3 DUP1 SLOAD DUP3 DUP3 SSTORE SWAP1 PUSH1 0x0 MSTORE PUSH1 0x20 PUSH1 0x0 KECCAK256 SWAP1 DUP2 ADD SWAP3 DUP3 ISZERO PUSH3 0x490 JUMPI SWAP2 PUSH1 0x20 MUL DUP3 ADD JUMPDEST DUP3 DUP2 GT ISZERO PUSH3 0x48F JUMPI DUP3 MLOAD DUP3 SWAP1 PUSH1 0x3 PUSH3 0x47E SWAP3 SWAP2 SWAP1 PUSH3 0x38A JUMP JUMPDEST POP SWAP2 PUSH1 0x20 ADD SWAP2 SWAP1 PUSH1 0x1 ADD SWAP1 PUSH3 0x462 JUMP JUMPDEST JUMPDEST POP SWAP1 POP PUSH3 0x49F SWAP2 SWAP1 PUSH3 0x4EA JUMP JUMPDEST POP SWAP1 JUMP JUMPDEST JUMPDEST DUP1 DUP3 GT ISZERO PUSH3 0x4BE JUMPI PUSH1 0x0 DUP2 PUSH1 0x0 SWAP1 SSTORE POP PUSH1 0x1 ADD PUSH3 0x4A4 JUMP JUMPDEST POP SWAP1 JUMP JUMPDEST JUMPDEST DUP1 DUP3 GT ISZERO PUSH3 0x4E6 JUMPI PUSH1 0x0 DUP2 DUP2 PUSH3 0x4DC SWAP2 SWAP1 PUSH3 0x512 JUMP JUMPDEST POP PUSH1 0x1 ADD PUSH3 0x4C3 JUMP JUMPDEST POP SWAP1 JUMP JUMPDEST JUMPDEST DUP1 DUP3 GT ISZERO PUSH3 0x50E JUMPI PUSH1 0x0 DUP2 DUP2 PUSH3 0x504 SWAP2 SWAP1 PUSH3 0x558 JUMP JUMPDEST POP PUSH1 0x1 ADD PUSH3 0x4EB JUMP JUMPDEST POP SWAP1 JUMP JUMPDEST POP DUP1 SLOAD PUSH3 0x520 SWAP1 PUSH3 0x5E4 JUMP JUMPDEST PUSH1 0x0 DUP3 SSTORE DUP1 PUSH1 0x1F LT PUSH3 0x534 JUMPI POP PUSH3 0x555 JUMP JUMPDEST PUSH1 0x1F ADD PUSH1 0x20 SWAP1 DIV SWAP1 PUSH1 0x0 MSTORE PUSH1 0x20 PUSH1 0x0 KECCAK256 SWAP1 DUP2 ADD SWAP1 PUSH3 0x554 SWAP2 SWAP1 PUSH3 0x4A3 JUMP JUMPDEST JUMPDEST POP JUMP JUMPDEST POP DUP1 SLOAD PUSH1 0x0 DUP3 SSTORE SWAP1 PUSH1 0x0 MSTORE PUSH1 0x20 PUSH1 0x0 KECCAK256 SWAP1 DUP2 ADD SWAP1 PUSH3 0x578 SWAP2 SWAP1 PUSH3 0x4A3 JUMP JUMPDEST POP JUMP JUMPDEST PUSH1 0x0 DUP2 MLOAD SWAP1 POP SWAP2 SWAP1 POP JUMP JUMPDEST PUSH32 0x4E487B7100000000000000000000000000000000000000000000000000000000 PUSH1 0x0 MSTORE PUSH1 0x41 PUSH1 0x4 MSTORE PUSH1 0x24 PUSH1 0x0 REVERT JUMPDEST PUSH32 0x4E487B7100000000000000000000000000000000000000000000000000000000 PUSH1 0x0 MSTORE PUSH1 0x22 PUSH1 0x4 MSTORE PUSH1 0x24 PUSH1 0x0 REVERT JUMPDEST PUSH1 0x0 PUSH1 0x2 DUP3 DIV SWAP1 POP PUSH1 0x1 DUP3 AND DUP1 PUSH3 0x5FD JUMPI PUSH1 0x7F DUP3 AND SWAP2 POP JUMPDEST PUSH1 0x20 DUP3 LT DUP2 SUB PUSH3 0x613 JUMPI PUSH3 0x612 PUSH3 0x5B5 JUMP JUMPDEST JUMPDEST POP SWAP2 SWAP1 POP JUMP JUMPDEST PUSH1 0x0 DUP2 SWAP1 POP DUP2 PUSH1 0x0 MSTORE PUSH1 0x20 PUSH1 0x0 KECCAK256 SWAP1 POP SWAP2 SWAP1 POP JUMP JUMPDEST PUSH1 0x0 PUSH1 0x20 PUSH1 0x1F DUP4 ADD DIV SWAP1 POP SWAP2 SWAP1 POP JUMP JUMPDEST PUSH1 0x0 DUP3 DUP3 SHL SWAP1 POP SWAP3 SWAP2 POP POP JUMP JUMPDEST PUSH1 0x0 PUSH1 0x8 DUP4 MUL PUSH3 0x67D PUSH32 0xFFFFFFFFFFFFFFFFFFFFFFFFFFFFFFFFFFFFFFFFFFFFFFFFFFFFFFFFFFFFFFFF DUP3 PUSH3 0x63E JUMP JUMPDEST PUSH3 0x689 DUP7 DUP4 PUSH3 0x63E JUMP JUMPDEST SWAP6 POP DUP1 NOT DUP5 AND SWAP4 POP DUP1 DUP7 AND DUP5 OR SWAP3 POP POP POP SWAP4 SWAP3 POP POP POP JUMP JUMPDEST PUSH1 0x0 DUP2 SWAP1 POP SWAP2 SWAP1 POP JUMP JUMPDEST PUSH1 0x0 DUP2 SWAP1 POP SWAP2 SWAP1 POP JUMP JUMPDEST PUSH1 0x0 PUSH3 0x6D6 PUSH3 0x6D0 PUSH3 0x6CA DUP5 PUSH3 0x6A1 JUMP JUMPDEST PUSH3 0x6AB JUMP JUMPDEST PUSH3 0x6A1 JUMP JUMPDEST SWAP1 POP SWAP2 SWAP1 POP JUMP JUMPDEST PUSH1 0x0 DUP2 SWAP1 POP SWAP2 SWAP1 POP JUMP JUMPDEST PUSH3 0x6F2 DUP4 PUSH3 0x6B5 JUMP JUMPDEST PUSH3 0x70A PUSH3 0x701 DUP3 PUSH3 0x6DD JUMP JUMPDEST DUP5 DUP5 SLOAD PUSH3 0x64B JUMP JUMPDEST DUP3 SSTORE POP POP POP POP JUMP JUMPDEST PUSH1 0x0 SWAP1 JUMP JUMPDEST PUSH3 0x721 PUSH3 0x712 JUMP JUMPDEST PUSH3 0x72E DUP2 DUP5 DUP5 PUSH3 0x6E7 JUMP JUMPDEST POP POP POP JUMP JUMPDEST JUMPDEST DUP2 DUP2 LT ISZERO PUSH3 0x756 JUMPI PUSH3 0x74A PUSH1 0x0 DUP3 PUSH3 0x717 JUMP JUMPDEST PUSH1 0x1 DUP2 ADD SWAP1 POP PUSH3 0x734 JUMP JUMPDEST POP POP JUMP JUMPDEST PUSH1 0x1F DUP3 GT ISZERO PUSH3 0x7A5 JUMPI PUSH3 0x76F DUP2 PUSH3 0x619 JUMP JUMPDEST PUSH3 0x77A DUP5 PUSH3 0x62E JUMP JUMPDEST DUP2 ADD PUSH1 0x20 DUP6 LT ISZERO PUSH3 0x78A JUMPI DUP2 SWAP1 POP JUMPDEST PUSH3 0x7A2 PUSH3 0x799 DUP6 PUSH3 0x62E JUMP JUMPDEST DUP4 ADD DUP3 PUSH3 0x733 JUMP JUMPDEST POP POP JUMPDEST POP POP POP JUMP JUMPDEST PUSH1 0x0 DUP3 DUP3 SHR SWAP1 POP SWAP3 SWAP2 POP POP JUMP JUMPDEST PUSH1 0x0 PUSH3 0x7CA PUSH1 0x0 NOT DUP5 PUSH1 0x8 MUL PUSH3 0x7AA JUMP JUMPDEST NOT DUP1 DUP4 AND SWAP2 POP POP SWAP3 SWAP2 POP POP JUMP JUMPDEST PUSH1 0x0 PUSH3 0x7E5 DUP4 DUP4 PUSH3 0x7B7 JUMP JUMPDEST SWAP2 POP DUP3 PUSH1 0x2 MUL DUP3 OR SWAP1 POP SWAP3 SWAP2 POP POP JUMP JUMPDEST PUSH3 0x800 DUP3 PUSH3 0x57B JUMP JUMPDEST PUSH8 0xFFFFFFFFFFFFFFFF DUP2 GT ISZERO PUSH3 0x81C JUMPI PUSH3 0x81B PUSH3 0x586 JUMP JUMPDEST JUMPDEST PUSH3 0x828 DUP3 SLOAD PUSH3 0x5E4 JUMP JUMPDEST PUSH3 0x835 DUP3 DUP3 DUP6 PUSH3 0x75A JUMP JUMPDEST PUSH1 0x0 PUSH1 0x20 SWAP1 POP PUSH1 0x1F DUP4 GT PUSH1 0x1 DUP2 EQ PUSH3 0x86D JUMPI PUSH1 0x0 DUP5 ISZERO PUSH3 0x858 JUMPI DUP3 DUP8 ADD MLOAD SWAP1 POP JUMPDEST PUSH3 0x864 DUP6 DUP3 PUSH3 0x7D7 JUMP JUMPDEST DUP7 SSTORE POP PUSH3 0x8D4 JUMP JUMPDEST PUSH1 0x1F NOT DUP5 AND PUSH3 0x87D DUP7 PUSH3 0x619 JUMP JUMPDEST PUSH1 0x0 JUMPDEST DUP3 DUP2 LT ISZERO PUSH3 0x8A7 JUMPI DUP5 DUP10 ADD MLOAD DUP3 SSTORE PUSH1 0x1 DUP3 ADD SWAP2 POP PUSH1 0x20 DUP6 ADD SWAP5 POP PUSH1 0x20 DUP2 ADD SWAP1 POP PUSH3 0x880 JUMP JUMPDEST DUP7 DUP4 LT ISZERO PUSH3 0x8C7 JUMPI DUP5 DUP10 ADD MLOAD PUSH3 0x8C3 PUSH1 0x1F DUP10 AND DUP3 PUSH3 0x7B7 JUMP JUMPDEST DUP4 SSTORE POP JUMPDEST PUSH1 0x1 PUSH1 0x2 DUP9 MUL ADD DUP9 SSTORE POP POP POP JUMPDEST POP POP POP POP POP POP JUMP JUMPDEST PUSH2 0x152D DUP1 PUSH3 0x8EC PUSH1 0x0 CODECOPY PUSH1 0x0 RETURN INVALID PUSH1 0x80 PUSH1 0x40 MSTORE CALLVALUE DUP1 ISZERO PUSH2 0x10 JUMPI PUSH1 0x0 DUP1 REVERT JUMPDEST POP PUSH1 0x4 CALLDATASIZE LT PUSH2 0x137 JUMPI PUSH1 0x0 CALLDATALOAD PUSH1 0xE0 SHR DUP1 PUSH4 0x6422C4C8 GT PUSH2 0xB8 JUMPI DUP1 PUSH4 0xB7B3E86A GT PUSH2 0x7C JUMPI DUP1 PUSH4 0xB7B3E86A EQ PUSH2 0x36A JUMPI DUP1 PUSH4 0xBC7640ED EQ PUSH2 0x386 JUMPI DUP1 PUSH4 0xBE9A8428 EQ PUSH2 0x3B6 JUMPI DUP1 PUSH4 0xC2A2747B EQ PUSH2 0x3D4 JUMPI DUP1 PUSH4 0xD3268FC1 EQ PUSH2 0x3F3 JUMPI DUP1 PUSH4 0xE5054C69 EQ PUSH2 0x423 JUMPI PUSH2 0x137 JUMP JUMPDEST DUP1 PUSH4 0x6422C4C8 EQ PUSH2 0x2B1 JUMPI DUP1 PUSH4 0x8CC7D446 EQ PUSH2 0x2E1 JUMPI DUP1 PUSH4 0x8DA5CB5B EQ PUSH2 0x312 JUMPI DUP1 PUSH4 0x8F32D59B EQ PUSH2 0x330 JUMPI DUP1 PUSH4 0xABFC398D EQ PUSH2 0x34E JUMPI PUSH2 0x137 JUMP JUMPDEST DUP1 PUSH4 0x4622AB03 GT PUSH2 0xFF JUMPI DUP1 PUSH4 0x4622AB03 EQ PUSH2 0x1E5 JUMPI DUP1 PUSH4 0x492BFA18 EQ PUSH2 0x215 JUMPI DUP1 PUSH4 0x4B3E7E0C EQ PUSH2 0x233 JUMPI DUP1 PUSH4 0x5B3E722D EQ PUSH2 0x251 JUMPI DUP1 PUSH4 0x609FBA8F EQ PUSH2 0x281 JUMPI PUSH2 0x137 JUMP JUMPDEST DUP1 PUSH4 0x6540F7E EQ PUSH2 0x13C JUMPI DUP1 PUSH4 0x9EFB8FF EQ PUSH2 0x15A JUMPI DUP1 PUSH4 0x26B85EE1 EQ PUSH2 0x178 JUMPI DUP1 PUSH4 0x2C7B97A6 EQ PUSH2 0x196 JUMPI DUP1 PUSH4 0x2CB777A6 EQ PUSH2 0x1C7 JUMPI JUMPDEST PUSH1 0x0 DUP1 REVERT JUMPDEST PUSH2 0x144 PUSH2 0x453 JUMP JUMPDEST PUSH1 0x40 MLOAD PUSH2 0x151 SWAP2 SWAP1 PUSH2 0xBE2 JUMP JUMPDEST PUSH1 0x40 MLOAD DUP1 SWAP2 SUB SWAP1 RETURN JUMPDEST PUSH2 0x162 PUSH2 0x459 JUMP JUMPDEST PUSH1 0x40 MLOAD PUSH2 0x16F SWAP2 SWAP1 PUSH2 0xC16 JUMP JUMPDEST PUSH1 0x40 MLOAD DUP1 SWAP2 SUB SWAP1 RETURN JUMPDEST PUSH2 0x180 PUSH2 0x45F JUMP JUMPDEST PUSH1 0x40 MLOAD PUSH2 0x18D SWAP2 SWAP1 PUSH2 0xC72 JUMP JUMPDEST PUSH1 0x40 MLOAD DUP1 SWAP2 SUB SWAP1 RETURN JUMPDEST PUSH2 0x1B0 PUSH1 0x4 DUP1 CALLDATASIZE SUB DUP2 ADD SWAP1 PUSH2 0x1AB SWAP2 SWAP1 PUSH2 0xCCD JUMP JUMPDEST PUSH2 0x485 JUMP JUMPDEST PUSH1 0x40 MLOAD PUSH2 0x1BE SWAP3 SWAP2 SWAP1 PUSH2 0xD8A JUMP JUMPDEST PUSH1 0x40 MLOAD DUP1 SWAP2 SUB SWAP1 RETURN JUMPDEST PUSH2 0x1CF PUSH2 0x531 JUMP JUMPDEST PUSH1 0x40 MLOAD PUSH2 0x1DC SWAP2 SWAP1 PUSH2 0xC16 JUMP JUMPDEST PUSH1 0x40 MLOAD DUP1 SWAP2 SUB SWAP1 RETURN JUMPDEST PUSH2 0x1FF PUSH1 0x4 DUP1 CALLDATASIZE SUB DUP2 ADD SWAP1 PUSH2 0x1FA SWAP2 SWAP1 PUSH2 0xCCD JUMP JUMPDEST PUSH2 0x537 JUMP JUMPDEST PUSH1 0x40 MLOAD PUSH2 0x20C SWAP2 SWAP1 PUSH2 0xDBA JUMP JUMPDEST PUSH1 0x40 MLOAD DUP1 SWAP2 SUB SWAP1 RETURN JUMPDEST PUSH2 0x21D PUSH2 0x5D7 JUMP JUMPDEST PUSH1 0x40 MLOAD PUSH2 0x22A SWAP2 SWAP1 PUSH2 0xDBA JUMP JUMPDEST PUSH1 0x40 MLOAD DUP1 SWAP2 SUB SWAP1 RETURN JUMPDEST PUSH2 0x23B PUSH2 0x665 JUMP JUMPDEST PUSH1 0x40 MLOAD PUSH2 0x248 SWAP2 SWAP1 PUSH2 0xDF5 JUMP JUMPDEST PUSH1 0x40 MLOAD DUP1 SWAP2 SUB SWAP1 RETURN JUMPDEST PUSH2 0x26B PUSH1 0x4 DUP1 CALLDATASIZE SUB DUP2 ADD SWAP1 PUSH2 0x266 SWAP2 SWAP1 PUSH2 0xCCD JUMP JUMPDEST PUSH2 0x66B JUMP JUMPDEST PUSH1 0x40 MLOAD PUSH2 0x278 SWAP2 SWAP1 PUSH2 0xDBA JUMP JUMPDEST PUSH1 0x40 MLOAD DUP1 SWAP2 SUB SWAP1 RETURN JUMPDEST PUSH2 0x29B PUSH1 0x4 DUP1 CALLDATASIZE SUB DUP2 ADD SWAP1 PUSH2 0x296 SWAP2 SWAP1 PUSH2 0xCCD JUMP JUMPDEST PUSH2 0x717 JUMP JUMPDEST PUSH1 0x40 MLOAD PUSH2 0x2A8 SWAP2 SWAP1 PUSH2 0xBE2 JUMP JUMPDEST PUSH1 0x40 MLOAD DUP1 SWAP2 SUB SWAP1 RETURN JUMPDEST PUSH2 0x2CB PUSH1 0x4 DUP1 CALLDATASIZE SUB DUP2 ADD SWAP1 PUSH2 0x2C6 SWAP2 SWAP1 PUSH2 0xCCD JUMP JUMPDEST PUSH2 0x73B JUMP JUMPDEST PUSH1 0x40 MLOAD PUSH2 0x2D8 SWAP2 SWAP1 PUSH2 0xDBA JUMP JUMPDEST PUSH1 0x40 MLOAD DUP1 SWAP2 SUB SWAP1 RETURN JUMPDEST PUSH2 0x2FB PUSH1 0x4 DUP1 CALLDATASIZE SUB DUP2 ADD SWAP1 PUSH2 0x2F6 SWAP2 SWAP1 PUSH2 0xE3C JUMP JUMPDEST PUSH2 0x7E7 JUMP JUMPDEST PUSH1 0x40 MLOAD PUSH2 0x309 SWAP3 SWAP2 SWAP1 PUSH2 0xD8A JUMP JUMPDEST PUSH1 0x40 MLOAD DUP1 SWAP2 SUB SWAP1 RETURN JUMPDEST PUSH2 0x31A PUSH2 0x8A0 JUMP JUMPDEST PUSH1 0x40 MLOAD PUSH2 0x327 SWAP2 SWAP1 PUSH2 0xC72 JUMP JUMPDEST PUSH1 0x40 MLOAD DUP1 SWAP2 SUB SWAP1 RETURN JUMPDEST PUSH2 0x338 PUSH2 0x8C6 JUMP JUMPDEST PUSH1 0x40 MLOAD PUSH2 0x345 SWAP2 SWAP1 PUSH2 0xE97 JUMP JUMPDEST PUSH1 0x40 MLOAD DUP1 SWAP2 SUB SWAP1 RETURN JUMPDEST PUSH2 0x368 PUSH1 0x4 DUP1 CALLDATASIZE SUB DUP2 ADD SWAP1 PUSH2 0x363 SWAP2 SWAP1 PUSH2 0xFE7 JUMP JUMPDEST PUSH2 0x91E JUMP JUMPDEST STOP JUMPDEST PUSH2 0x384 PUSH1 0x4 DUP1 CALLDATASIZE SUB DUP2 ADD SWAP1 PUSH2 0x37F SWAP2 SWAP1 PUSH2 0xFE7 JUMP JUMPDEST PUSH2 0x9AB JUMP JUMPDEST STOP JUMPDEST PUSH2 0x3A0 PUSH1 0x4 DUP1 CALLDATASIZE SUB DUP2 ADD SWAP1 PUSH2 0x39B SWAP2 SWAP1 PUSH2 0x1056 JUMP JUMPDEST PUSH2 0x9FB JUMP JUMPDEST PUSH1 0x40 MLOAD PUSH2 0x3AD SWAP2 SWAP1 PUSH2 0xBE2 JUMP JUMPDEST PUSH1 0x40 MLOAD DUP1 SWAP2 SUB SWAP1 RETURN JUMPDEST PUSH2 0x3BE PUSH2 0xA3F JUMP JUMPDEST PUSH1 0x40 MLOAD PUSH2 0x3CB SWAP2 SWAP1 PUSH2 0xBE2 JUMP JUMPDEST PUSH1 0x40 MLOAD DUP1 SWAP2 SUB SWAP1 RETURN JUMPDEST PUSH2 0x3DC PUSH2 0xACA JUMP JUMPDEST PUSH1 0x40 MLOAD PUSH2 0x3EA SWAP3 SWAP2 SWAP1 PUSH2 0xD8A JUMP JUMPDEST PUSH1 0x40 MLOAD DUP1 SWAP2 SUB SWAP1 RETURN JUMPDEST PUSH2 0x40D PUSH1 0x4 DUP1 CALLDATASIZE SUB DUP2 ADD SWAP1 PUSH2 0x408 SWAP2 SWAP1 PUSH2 0x109F JUMP JUMPDEST PUSH2 0xB64 JUMP JUMPDEST PUSH1 0x40 MLOAD PUSH2 0x41A SWAP2 SWAP1 PUSH2 0xBE2 JUMP JUMPDEST PUSH1 0x40 MLOAD DUP1 SWAP2 SUB SWAP1 RETURN JUMPDEST PUSH2 0x43D PUSH1 0x4 DUP1 CALLDATASIZE SUB DUP2 ADD SWAP1 PUSH2 0x438 SWAP2 SWAP1 PUSH2 0xCCD JUMP JUMPDEST PUSH2 0xBA1 JUMP JUMPDEST PUSH1 0x40 MLOAD PUSH2 0x44A SWAP2 SWAP1 PUSH2 0xE97 JUMP JUMPDEST PUSH1 0x40 MLOAD DUP1 SWAP2 SUB SWAP1 RETURN JUMPDEST PUSH1 0x0 SLOAD DUP2 JUMP JUMPDEST PUSH1 0x2 SLOAD DUP2 JUMP JUMPDEST PUSH1 0x5 PUSH1 0x0 SWAP1 SLOAD SWAP1 PUSH2 0x100 EXP SWAP1 DIV PUSH20 0xFFFFFFFFFFFFFFFFFFFFFFFFFFFFFFFFFFFFFFFF AND DUP2 JUMP JUMPDEST PUSH1 0xE PUSH1 0x20 MSTORE DUP1 PUSH1 0x0 MSTORE PUSH1 0x40 PUSH1 0x0 KECCAK256 PUSH1 0x0 SWAP2 POP SWAP1 POP DUP1 PUSH1 0x0 ADD SLOAD SWAP1 DUP1 PUSH1 0x1 ADD DUP1 SLOAD PUSH2 0x4AE SWAP1 PUSH2 0x110E JUMP JUMPDEST DUP1 PUSH1 0x1F ADD PUSH1 0x20 DUP1 SWAP2 DIV MUL PUSH1 0x20 ADD PUSH1 0x40 MLOAD SWAP1 DUP2 ADD PUSH1 0x40 MSTORE DUP1 SWAP3 SWAP2 SWAP1 DUP2 DUP2 MSTORE PUSH1 0x20 ADD DUP3 DUP1 SLOAD PUSH2 0x4DA SWAP1 PUSH2 0x110E JUMP JUMPDEST DUP1 ISZERO PUSH2 0x527 JUMPI DUP1 PUSH1 0x1F LT PUSH2 0x4FC JUMPI PUSH2 0x100 DUP1 DUP4 SLOAD DIV MUL DUP4 MSTORE SWAP2 PUSH1 0x20 ADD SWAP2 PUSH2 0x527 JUMP JUMPDEST DUP3 ADD SWAP2 SWAP1 PUSH1 0x0 MSTORE PUSH1 0x20 PUSH1 0x0 KECCAK256 SWAP1 JUMPDEST DUP2 SLOAD DUP2 MSTORE SWAP1 PUSH1 0x1 ADD SWAP1 PUSH1 0x20 ADD DUP1 DUP4 GT PUSH2 0x50A JUMPI DUP3 SWAP1 SUB PUSH1 0x1F AND DUP3 ADD SWAP2 JUMPDEST POP POP POP POP POP SWAP1 POP DUP3 JUMP JUMPDEST PUSH1 0x1 SLOAD DUP2 JUMP JUMPDEST PUSH1 0xC PUSH1 0x20 MSTORE DUP1 PUSH1 0x0 MSTORE PUSH1 0x40 PUSH1 0x0 KECCAK256 PUSH1 0x0 SWAP2 POP SWAP1 POP DUP1 SLOAD PUSH2 0x556 SWAP1 PUSH2 0x110E JUMP JUMPDEST DUP1 PUSH1 0x1F ADD PUSH1 0x20 DUP1 SWAP2 DIV MUL PUSH1 0x20 ADD PUSH1 0x40 MLOAD SWAP1 DUP2 ADD PUSH1 0x40 MSTORE DUP1 SWAP3 SWAP2 SWAP1 DUP2 DUP2 MSTORE PUSH1 0x20 ADD DUP3 DUP1 SLOAD PUSH2 0x582 SWAP1 PUSH2 0x110E JUMP JUMPDEST DUP1 ISZERO PUSH2 0x5CF JUMPI DUP1 PUSH1 0x1F LT PUSH2 0x5A4 JUMPI PUSH2 0x100 DUP1 DUP4 SLOAD DIV MUL DUP4 MSTORE SWAP2 PUSH1 0x20 ADD SWAP2 PUSH2 0x5CF JUMP JUMPDEST DUP3 ADD SWAP2 SWAP1 PUSH1 0x0 MSTORE PUSH1 0x20 PUSH1 0x0 KECCAK256 SWAP1 JUMPDEST DUP2 SLOAD DUP2 MSTORE SWAP1 PUSH1 0x1 ADD SWAP1 PUSH1 0x20 ADD DUP1 DUP4 GT PUSH2 0x5B2 JUMPI DUP3 SWAP1 SUB PUSH1 0x1F AND DUP3 ADD SWAP2 JUMPDEST POP POP POP POP POP DUP2 JUMP JUMPDEST PUSH1 0x3 DUP1 SLOAD PUSH2 0x5E4 SWAP1 PUSH2 0x110E JUMP JUMPDEST DUP1 PUSH1 0x1F ADD PUSH1 0x20 DUP1 SWAP2 DIV MUL PUSH1 0x20 ADD PUSH1 0x40 MLOAD SWAP1 DUP2 ADD PUSH1 0x40 MSTORE DUP1 SWAP3 SWAP2 SWAP1 DUP2 DUP2 MSTORE PUSH1 0x20 ADD DUP3 DUP1 SLOAD PUSH2 0x610 SWAP1 PUSH2 0x110E JUMP JUMPDEST DUP1 ISZERO PUSH2 0x65D JUMPI DUP1 PUSH1 0x1F LT PUSH2 0x632 JUMPI PUSH2 0x100 DUP1 DUP4 SLOAD DIV MUL DUP4 MSTORE SWAP2 PUSH1 0x20 ADD SWAP2 PUSH2 0x65D JUMP JUMPDEST DUP3 ADD SWAP2 SWAP1 PUSH1 0x0 MSTORE PUSH1 0x20 PUSH1 0x0 KECCAK256 SWAP1 JUMPDEST DUP2 SLOAD DUP2 MSTORE SWAP1 PUSH1 0x1 ADD SWAP1 PUSH1 0x20 ADD DUP1 DUP4 GT PUSH2 0x640 JUMPI DUP3 SWAP1 SUB PUSH1 0x1F AND DUP3 ADD SWAP2 JUMPDEST POP POP POP POP POP DUP2 JUMP JUMPDEST PUSH1 0x4 SLOAD DUP2 JUMP JUMPDEST PUSH1 0xA DUP2 DUP2 SLOAD DUP2 LT PUSH2 0x67B JUMPI PUSH1 0x0 DUP1 REVERT JUMPDEST SWAP1 PUSH1 0x0 MSTORE PUSH1 0x20 PUSH1 0x0 KECCAK256 ADD PUSH1 0x0 SWAP2 POP SWAP1 POP DUP1 SLOAD PUSH2 0x696 SWAP1 PUSH2 0x110E JUMP JUMPDEST DUP1 PUSH1 0x1F ADD PUSH1 0x20 DUP1 SWAP2 DIV MUL PUSH1 0x20 ADD PUSH1 0x40 MLOAD SWAP1 DUP2 ADD PUSH1 0x40 MSTORE DUP1 SWAP3 SWAP2 SWAP1 DUP2 DUP2 MSTORE PUSH1 0x20 ADD DUP3 DUP1 SLOAD PUSH2 0x6C2 SWAP1 PUSH2 0x110E JUMP JUMPDEST DUP1 ISZERO PUSH2 0x70F JUMPI DUP1 PUSH1 0x1F LT PUSH2 0x6E4 JUMPI PUSH2 0x100 DUP1 DUP4 SLOAD DIV MUL DUP4 MSTORE SWAP2 PUSH1 0x20 ADD SWAP2 PUSH2 0x70F JUMP JUMPDEST DUP3 ADD SWAP2 SWAP1 PUSH1 0x0 MSTORE PUSH1 0x20 PUSH1 0x0 KECCAK256 SWAP1 JUMPDEST DUP2 SLOAD DUP2 MSTORE SWAP1 PUSH1 0x1 ADD SWAP1 PUSH1 0x20 ADD DUP1 DUP4 GT PUSH2 0x6F2 JUMPI DUP3 SWAP1 SUB PUSH1 0x1F AND DUP3 ADD SWAP2 JUMPDEST POP POP POP POP POP DUP2 JUMP JUMPDEST PUSH1 0x8 DUP2 DUP2 SLOAD DUP2 LT PUSH2 0x727 JUMPI PUSH1 0x0 DUP1 REVERT JUMPDEST SWAP1 PUSH1 0x0 MSTORE PUSH1 0x20 PUSH1 0x0 KECCAK256 ADD PUSH1 0x0 SWAP2 POP SWAP1 POP SLOAD DUP2 JUMP JUMPDEST PUSH1 0x9 DUP2 DUP2 SLOAD DUP2 LT PUSH2 0x74B JUMPI PUSH1 0x0 DUP1 REVERT JUMPDEST SWAP1 PUSH1 0x0 MSTORE PUSH1 0x20 PUSH1 0x0 KECCAK256 ADD PUSH1 0x0 SWAP2 POP SWAP1 POP DUP1 SLOAD PUSH2 0x766 SWAP1 PUSH2 0x110E JUMP JUMPDEST DUP1 PUSH1 0x1F ADD PUSH1 0x20 DUP1 SWAP2 DIV MUL PUSH1 0x20 ADD PUSH1 0x40 MLOAD SWAP1 DUP2 ADD PUSH1 0x40 MSTORE DUP1 SWAP3 SWAP2 SWAP1 DUP2 DUP2 MSTORE PUSH1 0x20 ADD DUP3 DUP1 SLOAD PUSH2 0x792 SWAP1 PUSH2 0x110E JUMP JUMPDEST DUP1 ISZERO PUSH2 0x7DF JUMPI DUP1 PUSH1 0x1F LT PUSH2 0x7B4 JUMPI PUSH2 0x100 DUP1 DUP4 SLOAD DIV MUL DUP4 MSTORE SWAP2 PUSH1 0x20 ADD SWAP2 PUSH2 0x7DF JUMP JUMPDEST DUP3 ADD SWAP2 SWAP1 PUSH1 0x0 MSTORE PUSH1 0x20 PUSH1 0x0 KECCAK256 SWAP1 JUMPDEST DUP2 SLOAD DUP2 MSTORE SWAP1 PUSH1 0x1 ADD SWAP1 PUSH1 0x20 ADD DUP1 DUP4 GT PUSH2 0x7C2 JUMPI DUP3 SWAP1 SUB PUSH1 0x1F AND DUP3 ADD SWAP2 JUMPDEST POP POP POP POP POP DUP2 JUMP JUMPDEST PUSH1 0xF PUSH1 0x20 MSTORE DUP2 PUSH1 0x0 MSTORE PUSH1 0x40 PUSH1 0x0 KECCAK256 PUSH1 0x20 MSTORE DUP1 PUSH1 0x0 MSTORE PUSH1 0x40 PUSH1 0x0 KECCAK256 PUSH1 0x0 SWAP2 POP SWAP2 POP POP DUP1 PUSH1 0x0 ADD SLOAD SWAP1 DUP1 PUSH1 0x1 ADD DUP1 SLOAD PUSH2 0x81D SWAP1 PUSH2 0x110E JUMP JUMPDEST DUP1 PUSH1 0x1F ADD PUSH1 0x20 DUP1 SWAP2 DIV MUL PUSH1 0x20 ADD PUSH1 0x40 MLOAD SWAP1 DUP2 ADD PUSH1 0x40 MSTORE DUP1 SWAP3 SWAP2 SWAP1 DUP2 DUP2 MSTORE PUSH1 0x20 ADD DUP3 DUP1 SLOAD PUSH2 0x849 SWAP1 PUSH2 0x110E JUMP JUMPDEST DUP1 ISZERO PUSH2 0x896 JUMPI DUP1 PUSH1 0x1F LT PUSH2 0x86B JUMPI PUSH2 0x100 DUP1 DUP4 SLOAD DIV MUL DUP4 MSTORE SWAP2 PUSH1 0x20 ADD SWAP2 PUSH2 0x896 JUMP JUMPDEST DUP3 ADD SWAP2 SWAP1 PUSH1 0x0 MSTORE PUSH1 0x20 PUSH1 0x0 KECCAK256 SWAP1 JUMPDEST DUP2 SLOAD DUP2 MSTORE SWAP1 PUSH1 0x1 ADD SWAP1 PUSH1 0x20 ADD DUP1 DUP4 GT PUSH2 0x879 JUMPI DUP3 SWAP1 SUB PUSH1 0x1F AND DUP3 ADD SWAP2 JUMPDEST POP POP POP POP POP SWAP1 POP DUP3 JUMP JUMPDEST PUSH1 0xD PUSH1 0x0 SWAP1 SLOAD SWAP1 PUSH2 0x100 EXP SWAP1 DIV PUSH20 0xFFFFFFFFFFFFFFFFFFFFFFFFFFFFFFFFFFFFFFFF AND DUP2 JUMP JUMPDEST PUSH1 0x0 CALLER PUSH20 0xFFFFFFFFFFFFFFFFFFFFFFFFFFFFFFFFFFFFFFFF AND PUSH1 0xD PUSH1 0x0 SWAP1 SLOAD SWAP1 PUSH2 0x100 EXP SWAP1 DIV PUSH20 0xFFFFFFFFFFFFFFFFFFFFFFFFFFFFFFFFFFFFFFFF AND PUSH20 0xFFFFFFFFFFFFFFFFFFFFFFFFFFFFFFFFFFFFFFFF AND EQ SWAP1 POP SWAP1 JUMP JUMPDEST PUSH1 0x40 MLOAD DUP1 PUSH1 0x40 ADD PUSH1 0x40 MSTORE DUP1 DUP4 DUP2 MSTORE PUSH1 0x20 ADD DUP3 DUP2 MSTORE POP PUSH1 0xF PUSH1 0x0 CALLER PUSH20 0xFFFFFFFFFFFFFFFFFFFFFFFFFFFFFFFFFFFFFFFF AND PUSH20 0xFFFFFFFFFFFFFFFFFFFFFFFFFFFFFFFFFFFFFFFF AND DUP2 MSTORE PUSH1 0x20 ADD SWAP1 DUP2 MSTORE PUSH1 0x20 ADD PUSH1 0x0 KECCAK256 PUSH1 0x0 DUP6 DUP2 MSTORE PUSH1 0x20 ADD SWAP1 DUP2 MSTORE PUSH1 0x20 ADD PUSH1 0x0 KECCAK256 PUSH1 0x0 DUP3 ADD MLOAD DUP2 PUSH1 0x0 ADD SSTORE PUSH1 0x20 DUP3 ADD MLOAD DUP2 PUSH1 0x1 ADD SWAP1 DUP2 PUSH2 0x9A2 SWAP2 SWAP1 PUSH2 0x12EB JUMP JUMPDEST POP SWAP1 POP POP POP POP POP JUMP JUMPDEST PUSH1 0x40 MLOAD DUP1 PUSH1 0x40 ADD PUSH1 0x40 MSTORE DUP1 DUP4 DUP2 MSTORE PUSH1 0x20 ADD DUP3 DUP2 MSTORE POP PUSH1 0xE PUSH1 0x0 DUP6 DUP2 MSTORE PUSH1 0x20 ADD SWAP1 DUP2 MSTORE PUSH1 0x20 ADD PUSH1 0x0 KECCAK256 PUSH1 0x0 DUP3 ADD MLOAD DUP2 PUSH1 0x0 ADD SSTORE PUSH1 0x20 DUP3 ADD MLOAD DUP2 PUSH1 0x1 ADD SWAP1 DUP2 PUSH2 0x9F2 SWAP2 SWAP1 PUSH2 0x12EB JUMP JUMPDEST POP SWAP1 POP POP POP POP POP JUMP JUMPDEST PUSH1 0x0 PUSH1 0xA DUP3 SWAP1 DUP1 PUSH1 0x1 DUP2 SLOAD ADD DUP1 DUP3 SSTORE DUP1 SWAP2 POP POP PUSH1 0x1 SWAP1 SUB SWAP1 PUSH1 0x0 MSTORE PUSH1 0x20 PUSH1 0x0 KECCAK256 ADD PUSH1 0x0 SWAP1 SWAP2 SWAP1 SWAP2 SWAP1 SWAP2 POP SWAP1 DUP2 PUSH2 0xA31 SWAP2 SWAP1 PUSH2 0x12EB JUMP JUMPDEST POP PUSH1 0xA DUP1 SLOAD SWAP1 POP SWAP1 POP SWAP2 SWAP1 POP JUMP JUMPDEST PUSH1 0x0 DUP1 PUSH1 0x0 SWAP1 POP PUSH1 0x0 JUMPDEST PUSH1 0x8 DUP1 SLOAD SWAP1 POP DUP2 LT ISZERO PUSH2 0xAC2 JUMPI PUSH2 0xA7D PUSH1 0x8 DUP3 DUP2 SLOAD DUP2 LT PUSH2 0xA6D JUMPI PUSH2 0xA6C PUSH2 0x13BD JUMP JUMPDEST JUMPDEST SWAP1 PUSH1 0x0 MSTORE PUSH1 0x20 PUSH1 0x0 KECCAK256 ADD SLOAD PUSH2 0xBA1 JUMP JUMPDEST ISZERO PUSH2 0xAAF JUMPI PUSH1 0x8 DUP2 DUP2 SLOAD DUP2 LT PUSH2 0xA96 JUMPI PUSH2 0xA95 PUSH2 0x13BD JUMP JUMPDEST JUMPDEST SWAP1 PUSH1 0x0 MSTORE PUSH1 0x20 PUSH1 0x0 KECCAK256 ADD SLOAD DUP3 PUSH2 0xAAC SWAP2 SWAP1 PUSH2 0x141B JUMP JUMPDEST SWAP2 POP JUMPDEST DUP1 DUP1 PUSH2 0xABA SWAP1 PUSH2 0x144F JUMP JUMPDEST SWAP2 POP POP PUSH2 0xA49 JUMP JUMPDEST POP DUP1 SWAP2 POP POP SWAP1 JUMP JUMPDEST PUSH1 0x6 DUP1 PUSH1 0x0 ADD SLOAD SWAP1 DUP1 PUSH1 0x1 ADD DUP1 SLOAD PUSH2 0xAE1 SWAP1 PUSH2 0x110E JUMP JUMPDEST DUP1 PUSH1 0x1F ADD PUSH1 0x20 DUP1 SWAP2 DIV MUL PUSH1 0x20 ADD PUSH1 0x40 MLOAD SWAP1 DUP2 ADD PUSH1 0x40 MSTORE DUP1 SWAP3 SWAP2 SWAP1 DUP2 DUP2 MSTORE PUSH1 0x20 ADD DUP3 DUP1 SLOAD PUSH2 0xB0D SWAP1 PUSH2 0x110E JUMP JUMPDEST DUP1 ISZERO PUSH2 0xB5A JUMPI DUP1 PUSH1 0x1F LT PUSH2 0xB2F JUMPI PUSH2 0x100 DUP1 DUP4 SLOAD DIV MUL DUP4 MSTORE SWAP2 PUSH1 0x20 ADD SWAP2 PUSH2 0xB5A JUMP JUMPDEST DUP3 ADD SWAP2 SWAP1 PUSH1 0x0 MSTORE PUSH1 0x20 PUSH1 0x0 KECCAK256 SWAP1 JUMPDEST DUP2 SLOAD DUP2 MSTORE SWAP1 PUSH1 0x1 ADD SWAP1 PUSH1 0x20 ADD DUP1 DUP4 GT PUSH2 0xB3D JUMPI DUP3 SWAP1 SUB PUSH1 0x1F AND DUP3 ADD SWAP2 JUMPDEST POP POP POP POP POP SWAP1 POP DUP3 JUMP JUMPDEST PUSH1 0xB DUP3 DUP2 SLOAD DUP2 LT PUSH2 0xB74 JUMPI PUSH1 0x0 DUP1 REVERT JUMPDEST SWAP1 PUSH1 0x0 MSTORE PUSH1 0x20 PUSH1 0x0 KECCAK256 ADD DUP2 DUP2 SLOAD DUP2 LT PUSH2 0xB8C JUMPI PUSH1 0x0 DUP1 REVERT JUMPDEST SWAP1 PUSH1 0x0 MSTORE PUSH1 0x20 PUSH1 0x0 KECCAK256 ADD PUSH1 0x0 SWAP2 POP SWAP2 POP POP SLOAD DUP2 JUMP JUMPDEST PUSH1 0x0 DUP1 PUSH1 0x2 DUP4 PUSH2 0xBB1 SWAP2 SWAP1 PUSH2 0x14C6 JUMP JUMPDEST SUB PUSH2 0xBBF JUMPI PUSH1 0x1 SWAP1 POP PUSH2 0xBC4 JUMP JUMPDEST PUSH1 0x0 SWAP1 POP JUMPDEST SWAP2 SWAP1 POP JUMP JUMPDEST PUSH1 0x0 DUP2 SWAP1 POP SWAP2 SWAP1 POP JUMP JUMPDEST PUSH2 0xBDC DUP2 PUSH2 0xBC9 JUMP JUMPDEST DUP3 MSTORE POP POP JUMP JUMPDEST PUSH1 0x0 PUSH1 0x20 DUP3 ADD SWAP1 POP PUSH2 0xBF7 PUSH1 0x0 DUP4 ADD DUP5 PUSH2 0xBD3 JUMP JUMPDEST SWAP3 SWAP2 POP POP JUMP JUMPDEST PUSH1 0x0 DUP2 SWAP1 POP SWAP2 SWAP1 POP JUMP JUMPDEST PUSH2 0xC10 DUP2 PUSH2 0xBFD JUMP JUMPDEST DUP3 MSTORE POP POP JUMP JUMPDEST PUSH1 0x0 PUSH1 0x20 DUP3 ADD SWAP1 POP PUSH2 0xC2B PUSH1 0x0 DUP4 ADD DUP5 PUSH2 0xC07 JUMP JUMPDEST SWAP3 SWAP2 POP POP JUMP JUMPDEST PUSH1 0x0 PUSH20 0xFFFFFFFFFFFFFFFFFFFFFFFFFFFFFFFFFFFFFFFF DUP3 AND SWAP1 POP SWAP2 SWAP1 POP JUMP JUMPDEST PUSH1 0x0 PUSH2 0xC5C DUP3 PUSH2 0xC31 JUMP JUMPDEST SWAP1 POP SWAP2 SWAP1 POP JUMP JUMPDEST PUSH2 0xC6C DUP2 PUSH2 0xC51 JUMP JUMPDEST DUP3 MSTORE POP POP JUMP JUMPDEST PUSH1 0x0 PUSH1 0x20 DUP3 ADD SWAP1 POP PUSH2 0xC87 PUSH1 0x0 DUP4 ADD DUP5 PUSH2 0xC63 JUMP JUMPDEST SWAP3 SWAP2 POP POP JUMP JUMPDEST PUSH1 0x0 PUSH1 0x40 MLOAD SWAP1 POP SWAP1 JUMP JUMPDEST PUSH1 0x0 DUP1 REVERT JUMPDEST PUSH1 0x0 DUP1 REVERT JUMPDEST PUSH2 0xCAA DUP2 PUSH2 0xBC9 JUMP JUMPDEST DUP2 EQ PUSH2 0xCB5 JUMPI PUSH1 0x0 DUP1 REVERT JUMPDEST POP JUMP JUMPDEST PUSH1 0x0 DUP2 CALLDATALOAD SWAP1 POP PUSH2 0xCC7 DUP2 PUSH2 0xCA1 JUMP JUMPDEST SWAP3 SWAP2 POP POP JUMP JUMPDEST PUSH1 0x0 PUSH1 0x20 DUP3 DUP5 SUB SLT ISZERO PUSH2 0xCE3 JUMPI PUSH2 0xCE2 PUSH2 0xC97 JUMP JUMPDEST JUMPDEST PUSH1 0x0 PUSH2 0xCF1 DUP5 DUP3 DUP6 ADD PUSH2 0xCB8 JUMP JUMPDEST SWAP2 POP POP SWAP3 SWAP2 POP POP JUMP JUMPDEST PUSH1 0x0 DUP2 MLOAD SWAP1 POP SWAP2 SWAP1 POP JUMP JUMPDEST PUSH1 0x0 DUP3 DUP3 MSTORE PUSH1 0x20 DUP3 ADD SWAP1 POP SWAP3 SWAP2 POP POP JUMP JUMPDEST PUSH1 0x0 JUMPDEST DUP4 DUP2 LT ISZERO PUSH2 0xD34 JUMPI DUP1 DUP3 ADD MLOAD DUP2 DUP5 ADD MSTORE PUSH1 0x20 DUP2 ADD SWAP1 POP PUSH2 0xD19 JUMP JUMPDEST PUSH1 0x0 DUP5 DUP5 ADD MSTORE POP POP POP POP JUMP JUMPDEST PUSH1 0x0 PUSH1 0x1F NOT PUSH1 0x1F DUP4 ADD AND SWAP1 POP SWAP2 SWAP1 POP JUMP JUMPDEST PUSH1 0x0 PUSH2 0xD5C DUP3 PUSH2 0xCFA JUMP JUMPDEST PUSH2 0xD66 DUP2 DUP6 PUSH2 0xD05 JUMP JUMPDEST SWAP4 POP PUSH2 0xD76 DUP2 DUP6 PUSH1 0x20 DUP7 ADD PUSH2 0xD16 JUMP JUMPDEST PUSH2 0xD7F DUP2 PUSH2 0xD40 JUMP JUMPDEST DUP5 ADD SWAP2 POP POP SWAP3 SWAP2 POP POP JUMP JUMPDEST PUSH1 0x0 PUSH1 0x40 DUP3 ADD SWAP1 POP PUSH2 0xD9F PUSH1 0x0 DUP4 ADD DUP6 PUSH2 0xBD3 JUMP JUMPDEST DUP2 DUP2 SUB PUSH1 0x20 DUP4 ADD MSTORE PUSH2 0xDB1 DUP2 DUP5 PUSH2 0xD51 JUMP JUMPDEST SWAP1 POP SWAP4 SWAP3 POP POP POP JUMP JUMPDEST PUSH1 0x0 PUSH1 0x20 DUP3 ADD SWAP1 POP DUP2 DUP2 SUB PUSH1 0x0 DUP4 ADD MSTORE PUSH2 0xDD4 DUP2 DUP5 PUSH2 0xD51 JUMP JUMPDEST SWAP1 POP SWAP3 SWAP2 POP POP JUMP JUMPDEST PUSH1 0x0 DUP2 SWAP1 POP SWAP2 SWAP1 POP JUMP JUMPDEST PUSH2 0xDEF DUP2 PUSH2 0xDDC JUMP JUMPDEST DUP3 MSTORE POP POP JUMP JUMPDEST PUSH1 0x0 PUSH1 0x20 DUP3 ADD SWAP1 POP PUSH2 0xE0A PUSH1 0x0 DUP4 ADD DUP5 PUSH2 0xDE6 JUMP JUMPDEST SWAP3 SWAP2 POP POP JUMP JUMPDEST PUSH2 0xE19 DUP2 PUSH2 0xC51 JUMP JUMPDEST DUP2 EQ PUSH2 0xE24 JUMPI PUSH1 0x0 DUP1 REVERT JUMPDEST POP JUMP JUMPDEST PUSH1 0x0 DUP2 CALLDATALOAD SWAP1 POP PUSH2 0xE36 DUP2 PUSH2 0xE10 JUMP JUMPDEST SWAP3 SWAP2 POP POP JUMP JUMPDEST PUSH1 0x0 DUP1 PUSH1 0x40 DUP4 DUP6 SUB SLT ISZERO PUSH2 0xE53 JUMPI PUSH2 0xE52 PUSH2 0xC97 JUMP JUMPDEST JUMPDEST PUSH1 0x0 PUSH2 0xE61 DUP6 DUP3 DUP7 ADD PUSH2 0xE27 JUMP JUMPDEST SWAP3 POP POP PUSH1 0x20 PUSH2 0xE72 DUP6 DUP3 DUP7 ADD PUSH2 0xCB8 JUMP JUMPDEST SWAP2 POP POP SWAP3 POP SWAP3 SWAP1 POP JUMP JUMPDEST PUSH1 0x0 DUP2 ISZERO ISZERO SWAP1 POP SWAP2 SWAP1 POP JUMP JUMPDEST PUSH2 0xE91 DUP2 PUSH2 0xE7C JUMP JUMPDEST DUP3 MSTORE POP POP JUMP JUMPDEST PUSH1 0x0 PUSH1 0x20 DUP3 ADD SWAP1 POP PUSH2 0xEAC PUSH1 0x0 DUP4 ADD DUP5 PUSH2 0xE88 JUMP JUMPDEST SWAP3 SWAP2 POP POP JUMP JUMPDEST PUSH1 0x0 DUP1 REVERT JUMPDEST PUSH1 0x0 DUP1 REVERT JUMPDEST PUSH32 0x4E487B7100000000000000000000000000000000000000000000000000000000 PUSH1 0x0 MSTORE PUSH1 0x41 PUSH1 0x4 MSTORE PUSH1 0x24 PUSH1 0x0 REVERT JUMPDEST PUSH2 0xEF4 DUP3 PUSH2 0xD40 JUMP JUMPDEST DUP2 ADD DUP2 DUP2 LT PUSH8 0xFFFFFFFFFFFFFFFF DUP3 GT OR ISZERO PUSH2 0xF13 JUMPI PUSH2 0xF12 PUSH2 0xEBC JUMP JUMPDEST JUMPDEST DUP1 PUSH1 0x40 MSTORE POP POP POP JUMP JUMPDEST PUSH1 0x0 PUSH2 0xF26 PUSH2 0xC8D JUMP JUMPDEST SWAP1 POP PUSH2 0xF32 DUP3 DUP3 PUSH2 0xEEB JUMP JUMPDEST SWAP2 SWAP1 POP JUMP JUMPDEST PUSH1 0x0 PUSH8 0xFFFFFFFFFFFFFFFF DUP3 GT ISZERO PUSH2 0xF52 JUMPI PUSH2 0xF51 PUSH2 0xEBC JUMP JUMPDEST JUMPDEST PUSH2 0xF5B DUP3 PUSH2 0xD40 JUMP JUMPDEST SWAP1 POP PUSH1 0x20 DUP2 ADD SWAP1 POP SWAP2 SWAP1 POP JUMP JUMPDEST DUP3 DUP2 DUP4 CALLDATACOPY PUSH1 0x0 DUP4 DUP4 ADD MSTORE POP POP POP JUMP JUMPDEST PUSH1 0x0 PUSH2 0xF8A PUSH2 0xF85 DUP5 PUSH2 0xF37 JUMP JUMPDEST PUSH2 0xF1C JUMP JUMPDEST SWAP1 POP DUP3 DUP2 MSTORE PUSH1 0x20 DUP2 ADD DUP5 DUP5 DUP5 ADD GT ISZERO PUSH2 0xFA6 JUMPI PUSH2 0xFA5 PUSH2 0xEB7 JUMP JUMPDEST JUMPDEST PUSH2 0xFB1 DUP5 DUP3 DUP6 PUSH2 0xF68 JUMP JUMPDEST POP SWAP4 SWAP3 POP POP POP JUMP JUMPDEST PUSH1 0x0 DUP3 PUSH1 0x1F DUP4 ADD SLT PUSH2 0xFCE JUMPI PUSH2 0xFCD PUSH2 0xEB2 JUMP JUMPDEST JUMPDEST DUP2 CALLDATALOAD PUSH2 0xFDE DUP5 DUP3 PUSH1 0x20 DUP7 ADD PUSH2 0xF77 JUMP JUMPDEST SWAP2 POP POP SWAP3 SWAP2 POP POP JUMP JUMPDEST PUSH1 0x0 DUP1 PUSH1 0x0 PUSH1 0x60 DUP5 DUP7 SUB SLT ISZERO PUSH2 0x1000 JUMPI PUSH2 0xFFF PUSH2 0xC97 JUMP JUMPDEST JUMPDEST PUSH1 0x0 PUSH2 0x100E DUP7 DUP3 DUP8 ADD PUSH2 0xCB8 JUMP JUMPDEST SWAP4 POP POP PUSH1 0x20 PUSH2 0x101F DUP7 DUP3 DUP8 ADD PUSH2 0xCB8 JUMP JUMPDEST SWAP3 POP POP PUSH1 0x40 DUP5 ADD CALLDATALOAD PUSH8 0xFFFFFFFFFFFFFFFF DUP2 GT ISZERO PUSH2 0x1040 JUMPI PUSH2 0x103F PUSH2 0xC9C JUMP JUMPDEST JUMPDEST PUSH2 0x104C DUP7 DUP3 DUP8 ADD PUSH2 0xFB9 JUMP JUMPDEST SWAP2 POP POP SWAP3 POP SWAP3 POP SWAP3 JUMP JUMPDEST PUSH1 0x0 PUSH1 0x20 DUP3 DUP5 SUB SLT ISZERO PUSH2 0x106C JUMPI PUSH2 0x106B PUSH2 0xC97 JUMP JUMPDEST JUMPDEST PUSH1 0x0 DUP3 ADD CALLDATALOAD PUSH8 0xFFFFFFFFFFFFFFFF DUP2 GT ISZERO PUSH2 0x108A JUMPI PUSH2 0x1089 PUSH2 0xC9C JUMP JUMPDEST JUMPDEST PUSH2 0x1096 DUP5 DUP3 DUP6 ADD PUSH2 0xFB9 JUMP JUMPDEST SWAP2 POP POP SWAP3 SWAP2 POP POP JUMP JUMPDEST PUSH1 0x0 DUP1 PUSH1 0x40 DUP4 DUP6 SUB SLT ISZERO PUSH2 0x10B6 JUMPI PUSH2 0x10B5 PUSH2 0xC97 JUMP JUMPDEST JUMPDEST PUSH1 0x0 PUSH2 0x10C4 DUP6 DUP3 DUP7 ADD PUSH2 0xCB8 JUMP JUMPDEST SWAP3 POP POP PUSH1 0x20 PUSH2 0x10D5 DUP6 DUP3 DUP7 ADD PUSH2 0xCB8 JUMP JUMPDEST SWAP2 POP POP SWAP3 POP SWAP3 SWAP1 POP JUMP JUMPDEST PUSH32 0x4E487B7100000000000000000000000000000000000000000000000000000000 PUSH1 0x0 MSTORE PUSH1 0x22 PUSH1 0x4 MSTORE PUSH1 0x24 PUSH1 0x0 REVERT JUMPDEST PUSH1 0x0 PUSH1 0x2 DUP3 DIV SWAP1 POP PUSH1 0x1 DUP3 AND DUP1 PUSH2 0x1126 JUMPI PUSH1 0x7F DUP3 AND SWAP2 POP JUMPDEST PUSH1 0x20 DUP3 LT DUP2 SUB PUSH2 0x1139 JUMPI PUSH2 0x1138 PUSH2 0x10DF JUMP JUMPDEST JUMPDEST POP SWAP2 SWAP1 POP JUMP JUMPDEST PUSH1 0x0 DUP2 SWAP1 POP DUP2 PUSH1 0x0 MSTORE PUSH1 0x20 PUSH1 0x0 KECCAK256 SWAP1 POP SWAP2 SWAP1 POP JUMP JUMPDEST PUSH1 0x0 PUSH1 0x20 PUSH1 0x1F DUP4 ADD DIV SWAP1 POP SWAP2 SWAP1 POP JUMP JUMPDEST PUSH1 0x0 DUP3 DUP3 SHL SWAP1 POP SWAP3 SWAP2 POP POP JUMP JUMPDEST PUSH1 0x0 PUSH1 0x8 DUP4 MUL PUSH2 0x11A1 PUSH32 0xFFFFFFFFFFFFFFFFFFFFFFFFFFFFFFFFFFFFFFFFFFFFFFFFFFFFFFFFFFFFFFFF DUP3 PUSH2 0x1164 JUMP JUMPDEST PUSH2 0x11AB DUP7 DUP4 PUSH2 0x1164 JUMP JUMPDEST SWAP6 POP DUP1 NOT DUP5 AND SWAP4 POP DUP1 DUP7 AND DUP5 OR SWAP3 POP POP POP SWAP4 SWAP3 POP POP POP JUMP JUMPDEST PUSH1 0x0 DUP2 SWAP1 POP SWAP2 SWAP1 POP JUMP JUMPDEST PUSH1 0x0 PUSH2 0x11E8 PUSH2 0x11E3 PUSH2 0x11DE DUP5 PUSH2 0xBC9 JUMP JUMPDEST PUSH2 0x11C3 JUMP JUMPDEST PUSH2 0xBC9 JUMP JUMPDEST SWAP1 POP SWAP2 SWAP1 POP JUMP JUMPDEST PUSH1 0x0 DUP2 SWAP1 POP SWAP2 SWAP1 POP JUMP JUMPDEST PUSH2 0x1202 DUP4 PUSH2 0x11CD JUMP JUMPDEST PUSH2 0x1216 PUSH2 0x120E DUP3 PUSH2 0x11EF JUMP JUMPDEST DUP5 DUP5 SLOAD PUSH2 0x1171 JUMP JUMPDEST DUP3 SSTORE POP POP POP POP JUMP JUMPDEST PUSH1 0x0 SWAP1 JUMP JUMPDEST PUSH2 0x122B PUSH2 0x121E JUMP JUMPDEST PUSH2 0x1236 DUP2 DUP5 DUP5 PUSH2 0x11F9 JUMP JUMPDEST POP POP POP JUMP JUMPDEST JUMPDEST DUP2 DUP2 LT ISZERO PUSH2 0x125A JUMPI PUSH2 0x124F PUSH1 0x0 DUP3 PUSH2 0x1223 JUMP JUMPDEST PUSH1 0x1 DUP2 ADD SWAP1 POP PUSH2 0x123C JUMP JUMPDEST POP POP JUMP JUMPDEST PUSH1 0x1F DUP3 GT ISZERO PUSH2 0x129F JUMPI PUSH2 0x1270 DUP2 PUSH2 0x113F JUMP JUMPDEST PUSH2 0x1279 DUP5 PUSH2 0x1154 JUMP JUMPDEST DUP2 ADD PUSH1 0x20 DUP6 LT ISZERO PUSH2 0x1288 JUMPI DUP2 SWAP1 POP JUMPDEST PUSH2 0x129C PUSH2 0x1294 DUP6 PUSH2 0x1154 JUMP JUMPDEST DUP4 ADD DUP3 PUSH2 0x123B JUMP JUMPDEST POP POP JUMPDEST POP POP POP JUMP JUMPDEST PUSH1 0x0 DUP3 DUP3 SHR SWAP1 POP SWAP3 SWAP2 POP POP JUMP JUMPDEST PUSH1 0x0 PUSH2 0x12C2 PUSH1 0x0 NOT DUP5 PUSH1 0x8 MUL PUSH2 0x12A4 JUMP JUMPDEST NOT DUP1 DUP4 AND SWAP2 POP POP SWAP3 SWAP2 POP POP JUMP JUMPDEST PUSH1 0x0 PUSH2 0x12DB DUP4 DUP4 PUSH2 0x12B1 JUMP JUMPDEST SWAP2 POP DUP3 PUSH1 0x2 MUL DUP3 OR SWAP1 POP SWAP3 SWAP2 POP POP JUMP JUMPDEST PUSH2 0x12F4 DUP3 PUSH2 0xCFA JUMP JUMPDEST PUSH8 0xFFFFFFFFFFFFFFFF DUP2 GT ISZERO PUSH2 0x130D JUMPI PUSH2 0x130C PUSH2 0xEBC JUMP JUMPDEST JUMPDEST PUSH2 0x1317 DUP3 SLOAD PUSH2 0x110E JUMP JUMPDEST PUSH2 0x1322 DUP3 DUP3 DUP6 PUSH2 0x125E JUMP JUMPDEST PUSH1 0x0 PUSH1 0x20 SWAP1 POP PUSH1 0x1F DUP4 GT PUSH1 0x1 DUP2 EQ PUSH2 0x1355 JUMPI PUSH1 0x0 DUP5 ISZERO PUSH2 0x1343 JUMPI DUP3 DUP8 ADD MLOAD SWAP1 POP JUMPDEST PUSH2 0x134D DUP6 DUP3 PUSH2 0x12CF JUMP JUMPDEST DUP7 SSTORE POP PUSH2 0x13B5 JUMP JUMPDEST PUSH1 0x1F NOT DUP5 AND PUSH2 0x1363 DUP7 PUSH2 0x113F JUMP JUMPDEST PUSH1 0x0 JUMPDEST DUP3 DUP2 LT ISZERO PUSH2 0x138B JUMPI DUP5 DUP10 ADD MLOAD DUP3 SSTORE PUSH1 0x1 DUP3 ADD SWAP2 POP PUSH1 0x20 DUP6 ADD SWAP5 POP PUSH1 0x20 DUP2 ADD SWAP1 POP PUSH2 0x1366 JUMP JUMPDEST DUP7 DUP4 LT ISZERO PUSH2 0x13A8 JUMPI DUP5 DUP10 ADD MLOAD PUSH2 0x13A4 PUSH1 0x1F DUP10 AND DUP3 PUSH2 0x12B1 JUMP JUMPDEST DUP4 SSTORE POP JUMPDEST PUSH1 0x1 PUSH1 0x2 DUP9 MUL ADD DUP9 SSTORE POP POP POP JUMPDEST POP POP POP POP POP POP JUMP JUMPDEST PUSH32 0x4E487B7100000000000000000000000000000000000000000000000000000000 PUSH1 0x0 MSTORE PUSH1 0x32 PUSH1 0x4 MSTORE PUSH1 0x24 PUSH1 0x0 REVERT JUMPDEST PUSH32 0x4E487B7100000000000000000000000000000000000000000000000000000000 PUSH1 0x0 MSTORE PUSH1 0x11 PUSH1 0x4 MSTORE PUSH1 0x24 PUSH1 0x0 REVERT JUMPDEST PUSH1 0x0 PUSH2 0x1426 DUP3 PUSH2 0xBC9 JUMP JUMPDEST SWAP2 POP PUSH2 0x1431 DUP4 PUSH2 0xBC9 JUMP JUMPDEST SWAP3 POP DUP3 DUP3 ADD SWAP1 POP DUP1 DUP3 GT ISZERO PUSH2 0x1449 JUMPI PUSH2 0x1448 PUSH2 0x13EC JUMP JUMPDEST JUMPDEST SWAP3 SWAP2 POP POP JUMP JUMPDEST PUSH1 0x0 PUSH2 0x145A DUP3 PUSH2 0xBC9 JUMP JUMPDEST SWAP2 POP PUSH32 0xFFFFFFFFFFFFFFFFFFFFFFFFFFFFFFFFFFFFFFFFFFFFFFFFFFFFFFFFFFFFFFFF DUP3 SUB PUSH2 0x148C JUMPI PUSH2 0x148B PUSH2 0x13EC JUMP JUMPDEST JUMPDEST PUSH1 0x1 DUP3 ADD SWAP1 POP SWAP2 SWAP1 POP JUMP JUMPDEST PUSH32 0x4E487B7100000000000000000000000000000000000000000000000000000000 PUSH1 0x0 MSTORE PUSH1 0x12 PUSH1 0x4 MSTORE PUSH1 0x24 PUSH1 0x0 REVERT JUMPDEST PUSH1 0x0 PUSH2 0x14D1 DUP3 PUSH2 0xBC9 JUMP JUMPDEST SWAP2 POP PUSH2 0x14DC DUP4 PUSH2 0xBC9 JUMP JUMPDEST SWAP3 POP DUP3 PUSH2 0x14EC JUMPI PUSH2 0x14EB PUSH2 0x1497 JUMP JUMPDEST JUMPDEST DUP3 DUP3 MOD SWAP1 POP SWAP3 SWAP2 POP POP JUMP INVALID LOG2 PUSH5 0x6970667358 0x22 SLT KECCAK256 POP 0xEC 0xCE 0xF9 0xC8 PUSH7 0x413A032B185F71 COINBASE 0x4C DELEGATECALL ADDRESS 0xE1 DUP14 0xAF SWAP13 DUP9 0x4F DUP16 SGT NUMBER LOG0 PUSH15 0x5B4CEB9E64736F6C63430008120033 "
				},
				"gasEstimates": {
					"creation": {
						"codeDepositCost": "1084200",
						"executionCost": "infinite",
						"totalCost": "infinite"
					},
					"external": {
						"addMyPerson(uint256,uint256,string)": "infinite",
						"addPerson(uint256,uint256,string)": "infinite",
						"anArray(uint256)": "infinite",
						"array2D(uint256,uint256)": "infinite",
						"intArray(uint256)": "infinite",
						"integer()": "2475",
						"isEvenNumber(uint256)": "infinite",
						"isOwner()": "2585",
						"myAddress()": "2582",
						"myBytes32()": "2496",
						"myInt()": "2541",
						"myPeople(address,uint256)": "infinite",
						"myString()": "infinite",
						"myUint()": "2453",
						"names(uint256)": "infinite",
						"owner()": "2581",
						"p1()": "infinite",
						"personMap(uint256)": "infinite",
						"pushValue(string)": "infinite",
						"stringArray(uint256)": "infinite",
						"sumArrayEvenNums()": "infinite"
					}
				},
				"methodIdentifiers": {
					"addMyPerson(uint256,uint256,string)": "abfc398d",
					"addPerson(uint256,uint256,string)": "b7b3e86a",
					"anArray(uint256)": "5b3e722d",
					"array2D(uint256,uint256)": "d3268fc1",
					"intArray(uint256)": "609fba8f",
					"integer()": "09efb8ff",
					"isEvenNumber(uint256)": "e5054c69",
					"isOwner()": "8f32d59b",
					"myAddress()": "26b85ee1",
					"myBytes32()": "4b3e7e0c",
					"myInt()": "2cb777a6",
					"myPeople(address,uint256)": "8cc7d446",
					"myString()": "492bfa18",
					"myUint()": "06540f7e",
					"names(uint256)": "4622ab03",
					"owner()": "8da5cb5b",
					"p1()": "c2a2747b",
					"personMap(uint256)": "2c7b97a6",
					"pushValue(string)": "bc7640ed",
					"stringArray(uint256)": "6422c4c8",
					"sumArrayEvenNums()": "be9a8428"
				}
			},
			"storageLayout": {
				"storage": [
					{
						"astId": 4,
						"contract": "contracts/MyContract.sol:MyContract",
						"label": "myUint",
						"offset": 0,
						"slot": "0",
						"type": "t_uint256"
					},
					{
						"astId": 7,
						"contract": "contracts/MyContract.sol:MyContract",
						"label": "myInt",
						"offset": 0,
						"slot": "1",
						"type": "t_int256"
					},
					{
						"astId": 10,
						"contract": "contracts/MyContract.sol:MyContract",
						"label": "integer",
						"offset": 0,
						"slot": "2",
						"type": "t_int256"
					},
					{
						"astId": 13,
						"contract": "contracts/MyContract.sol:MyContract",
						"label": "myString",
						"offset": 0,
						"slot": "3",
						"type": "t_string_storage"
					},
					{
						"astId": 16,
						"contract": "contracts/MyContract.sol:MyContract",
						"label": "myBytes32",
						"offset": 0,
						"slot": "4",
						"type": "t_bytes32"
					},
					{
						"astId": 19,
						"contract": "contracts/MyContract.sol:MyContract",
						"label": "myAddress",
						"offset": 0,
						"slot": "5",
						"type": "t_address"
					},
					{
						"astId": 31,
						"contract": "contracts/MyContract.sol:MyContract",
						"label": "p1",
						"offset": 0,
						"slot": "6",
						"type": "t_struct(Person)24_storage"
					},
					{
						"astId": 38,
						"contract": "contracts/MyContract.sol:MyContract",
						"label": "intArray",
						"offset": 0,
						"slot": "8",
						"type": "t_array(t_uint256)dyn_storage"
					},
					{
						"astId": 44,
						"contract": "contracts/MyContract.sol:MyContract",
						"label": "stringArray",
						"offset": 0,
						"slot": "9",
						"type": "t_array(t_string_storage)dyn_storage"
					},
					{
						"astId": 47,
						"contract": "contracts/MyContract.sol:MyContract",
						"label": "anArray",
						"offset": 0,
						"slot": "10",
						"type": "t_array(t_string_storage)dyn_storage"
					},
					{
						"astId": 77,
						"contract": "contracts/MyContract.sol:MyContract",
						"label": "array2D",
						"offset": 0,
						"slot": "11",
						"type": "t_array(t_array(t_uint256)dyn_storage)dyn_storage"
					},
					{
						"astId": 81,
						"contract": "contracts/MyContract.sol:MyContract",
						"label": "names",
						"offset": 0,
						"slot": "12",
						"type": "t_mapping(t_uint256,t_string_storage)"
					},
					{
						"astId": 83,
						"contract": "contracts/MyContract.sol:MyContract",
						"label": "owner",
						"offset": 0,
						"slot": "13",
						"type": "t_address"
					},
					{
						"astId": 109,
						"contract": "contracts/MyContract.sol:MyContract",
						"label": "personMap",
						"offset": 0,
						"slot": "14",
						"type": "t_mapping(t_uint256,t_struct(Person)24_storage)"
					},
					{
						"astId": 135,
						"contract": "contracts/MyContract.sol:MyContract",
						"label": "myPeople",
						"offset": 0,
						"slot": "15",
						"type": "t_mapping(t_address,t_mapping(t_uint256,t_struct(Person)24_storage))"
					}
				],
				"types": {
					"t_address": {
						"encoding": "inplace",
						"label": "address",
						"numberOfBytes": "20"
					},
					"t_array(t_array(t_uint256)dyn_storage)dyn_storage": {
						"base": "t_array(t_uint256)dyn_storage",
						"encoding": "dynamic_array",
						"label": "uint256[][]",
						"numberOfBytes": "32"
					},
					"t_array(t_string_storage)dyn_storage": {
						"base": "t_string_storage",
						"encoding": "dynamic_array",
						"label": "string[]",
						"numberOfBytes": "32"
					},
					"t_array(t_uint256)dyn_storage": {
						"base": "t_uint256",
						"encoding": "dynamic_array",
						"label": "uint256[]",
						"numberOfBytes": "32"
					},
					"t_bytes32": {
						"encoding": "inplace",
						"label": "bytes32",
						"numberOfBytes": "32"
					},
					"t_int256": {
						"encoding": "inplace",
						"label": "int256",
						"numberOfBytes": "32"
					},
					"t_mapping(t_address,t_mapping(t_uint256,t_struct(Person)24_storage))": {
						"encoding": "mapping",
						"key": "t_address",
						"label": "mapping(address => mapping(uint256 => struct MyContract.Person))",
						"numberOfBytes": "32",
						"value": "t_mapping(t_uint256,t_struct(Person)24_storage)"
					},
					"t_mapping(t_uint256,t_string_storage)": {
						"encoding": "mapping",
						"key": "t_uint256",
						"label": "mapping(uint256 => string)",
						"numberOfBytes": "32",
						"value": "t_string_storage"
					},
					"t_mapping(t_uint256,t_struct(Person)24_storage)": {
						"encoding": "mapping",
						"key": "t_uint256",
						"label": "mapping(uint256 => struct MyContract.Person)",
						"numberOfBytes": "32",
						"value": "t_struct(Person)24_storage"
					},
					"t_string_storage": {
						"encoding": "bytes",
						"label": "string",
						"numberOfBytes": "32"
					},
					"t_struct(Person)24_storage": {
						"encoding": "inplace",
						"label": "struct MyContract.Person",
						"members": [
							{
								"astId": 21,
								"contract": "contracts/MyContract.sol:MyContract",
								"label": "age",
								"offset": 0,
								"slot": "0",
								"type": "t_uint256"
							},
							{
								"astId": 23,
								"contract": "contracts/MyContract.sol:MyContract",
								"label": "name",
								"offset": 0,
								"slot": "1",
								"type": "t_string_storage"
							}
						],
						"numberOfBytes": "64"
					},
					"t_uint256": {
						"encoding": "inplace",
						"label": "uint256",
						"numberOfBytes": "32"
					}
				}
			},
			"userdoc": {
				"kind": "user",
				"methods": {},
				"version": 1
			}
		}
	}
}